{
  "contractName": "CrowdFunding",
  "abi": [
    {
      "anonymous": false,
      "inputs": [
        {
          "indexed": false,
          "internalType": "uint256",
          "name": "id",
          "type": "uint256"
        },
        {
          "indexed": false,
          "internalType": "string",
          "name": "title",
          "type": "string"
        },
        {
          "indexed": false,
          "internalType": "address",
          "name": "owner",
          "type": "address"
        },
        {
          "indexed": false,
          "internalType": "uint256",
          "name": "goalAmount",
          "type": "uint256"
        },
        {
          "indexed": false,
          "internalType": "uint256",
          "name": "beginTime",
          "type": "uint256"
        },
        {
          "indexed": false,
          "internalType": "uint256",
          "name": "endTime",
          "type": "uint256"
        }
      ],
      "name": "CreateFunding",
      "type": "event"
    },
    {
      "anonymous": false,
      "inputs": [
        {
          "indexed": false,
          "internalType": "address",
          "name": "funder",
          "type": "address"
        },
        {
          "indexed": false,
          "internalType": "uint256",
          "name": "fundingId",
          "type": "uint256"
        },
        {
          "indexed": false,
          "internalType": "uint256",
          "name": "amount",
          "type": "uint256"
        },
        {
          "indexed": false,
          "internalType": "uint256",
          "name": "time",
          "type": "uint256"
        }
      ],
      "name": "Fund",
      "type": "event"
    },
    {
      "anonymous": false,
      "inputs": [
        {
          "indexed": false,
          "internalType": "address",
          "name": "funder",
          "type": "address"
        },
        {
          "indexed": false,
          "internalType": "uint256",
          "name": "amount",
          "type": "uint256"
        },
        {
          "indexed": false,
          "internalType": "uint256",
          "name": "time",
          "type": "uint256"
        }
      ],
      "name": "WithdrawAsFunder",
      "type": "event"
    },
    {
      "anonymous": false,
      "inputs": [
        {
          "indexed": false,
          "internalType": "address",
          "name": "fundraiser",
          "type": "address"
        },
        {
          "indexed": false,
          "internalType": "uint256",
          "name": "amount",
          "type": "uint256"
        },
        {
          "indexed": false,
          "internalType": "uint256",
          "name": "time",
          "type": "uint256"
        }
      ],
      "name": "WithdrawAsFundraiser",
      "type": "event"
    },
    {
      "inputs": [
        {
          "internalType": "address",
          "name": "",
          "type": "address"
        },
        {
          "internalType": "uint256",
          "name": "",
          "type": "uint256"
        }
      ],
      "name": "addressToFundedFundingIds",
      "outputs": [
        {
          "internalType": "uint256",
          "name": "",
          "type": "uint256"
        }
      ],
      "stateMutability": "view",
      "type": "function",
      "constant": true
    },
    {
      "inputs": [
        {
          "internalType": "address",
          "name": "",
          "type": "address"
        },
        {
          "internalType": "uint256",
          "name": "",
          "type": "uint256"
        },
        {
          "internalType": "uint256",
          "name": "",
          "type": "uint256"
        }
      ],
      "name": "addressToFundingIdToAcoountPapersIds",
      "outputs": [
        {
          "internalType": "uint256",
          "name": "",
          "type": "uint256"
        }
      ],
      "stateMutability": "view",
      "type": "function",
      "constant": true
    },
    {
      "inputs": [
        {
          "internalType": "address",
          "name": "",
          "type": "address"
        },
        {
          "internalType": "uint256",
          "name": "",
          "type": "uint256"
        }
      ],
      "name": "addressToFundingIds",
      "outputs": [
        {
          "internalType": "uint256",
          "name": "",
          "type": "uint256"
        }
      ],
      "stateMutability": "view",
      "type": "function",
      "constant": true
    },
    {
      "inputs": [
        {
          "internalType": "string",
          "name": "_title",
          "type": "string"
        },
        {
          "internalType": "string",
          "name": "_subTitle",
          "type": "string"
        },
        {
          "internalType": "string",
          "name": "_content",
          "type": "string"
        },
        {
          "internalType": "uint256",
          "name": "_goalAmount",
          "type": "uint256"
        },
        {
          "internalType": "uint256",
          "name": "_availableMinAmount",
          "type": "uint256"
        },
        {
          "internalType": "uint256",
          "name": "_beginTime",
          "type": "uint256"
        },
        {
          "internalType": "uint256",
          "name": "_endTime",
          "type": "uint256"
        }
      ],
      "name": "createFunding",
      "outputs": [
        {
          "internalType": "uint256",
          "name": "",
          "type": "uint256"
        }
      ],
      "stateMutability": "nonpayable",
      "type": "function"
    },
    {
      "inputs": [
        {
          "internalType": "uint256",
          "name": "_fundingId",
          "type": "uint256"
        }
      ],
      "name": "fund",
      "outputs": [],
      "stateMutability": "payable",
      "type": "function",
      "payable": true
    },
    {
      "inputs": [
        {
          "internalType": "uint256",
          "name": "",
          "type": "uint256"
        },
        {
          "internalType": "uint256",
          "name": "",
          "type": "uint256"
        }
      ],
      "name": "fundingToAccountPapers",
      "outputs": [
        {
          "internalType": "address",
          "name": "funder",
          "type": "address"
        },
        {
          "internalType": "uint256",
          "name": "fundingId",
          "type": "uint256"
        },
        {
          "internalType": "uint256",
          "name": "amount",
          "type": "uint256"
        },
        {
          "internalType": "uint256",
          "name": "date",
          "type": "uint256"
        }
      ],
      "stateMutability": "view",
      "type": "function",
      "constant": true
    },
    {
      "inputs": [
        {
          "internalType": "uint256",
          "name": "",
          "type": "uint256"
        }
      ],
      "name": "fundingToFundraiser",
      "outputs": [
        {
          "internalType": "address",
          "name": "",
          "type": "address"
        }
      ],
      "stateMutability": "view",
      "type": "function",
      "constant": true
    },
    {
      "inputs": [
        {
          "internalType": "uint256",
          "name": "",
          "type": "uint256"
        }
      ],
      "name": "fundings",
      "outputs": [
        {
          "internalType": "string",
          "name": "title",
          "type": "string"
        },
        {
          "internalType": "string",
          "name": "subTitle",
          "type": "string"
        },
        {
          "internalType": "string",
          "name": "content",
          "type": "string"
        },
        {
          "internalType": "uint256",
          "name": "currentAmount",
          "type": "uint256"
        },
        {
          "internalType": "uint256",
          "name": "availableMinAmount",
          "type": "uint256"
        },
        {
          "internalType": "uint256",
          "name": "goalAmount",
          "type": "uint256"
        },
        {
          "internalType": "uint256",
          "name": "beginTime",
          "type": "uint256"
        },
        {
          "internalType": "uint256",
          "name": "endTime",
          "type": "uint256"
        },
        {
          "internalType": "address",
          "name": "fundraiser",
          "type": "address"
        }
      ],
      "stateMutability": "view",
      "type": "function",
      "constant": true
    },
    {
      "inputs": [
        {
          "internalType": "uint256",
          "name": "_fundingId",
          "type": "uint256"
        }
      ],
      "name": "getMyFundingAccountPapers",
      "outputs": [
        {
          "components": [
            {
              "internalType": "address",
              "name": "funder",
              "type": "address"
            },
            {
              "internalType": "uint256",
              "name": "fundingId",
              "type": "uint256"
            },
            {
              "internalType": "uint256",
              "name": "amount",
              "type": "uint256"
            },
            {
              "internalType": "uint256",
              "name": "date",
              "type": "uint256"
            }
          ],
          "internalType": "struct FunderHandler.AccountPaper[]",
          "name": "",
          "type": "tuple[]"
        }
      ],
      "stateMutability": "view",
      "type": "function",
      "constant": true
    },
    {
      "inputs": [
        {
          "internalType": "uint256",
          "name": "_fundingId",
          "type": "uint256"
        },
        {
          "internalType": "uint256",
          "name": "_availableMinAmount",
          "type": "uint256"
        }
      ],
      "name": "setAvailableMinAmount",
      "outputs": [],
      "stateMutability": "nonpayable",
      "type": "function"
    },
    {
      "inputs": [
        {
          "internalType": "uint256",
          "name": "_fundingId",
          "type": "uint256"
        }
      ],
      "name": "withdrawAsFunder",
      "outputs": [],
      "stateMutability": "nonpayable",
      "type": "function"
    },
    {
      "inputs": [
        {
          "internalType": "uint256",
          "name": "_fundingId",
          "type": "uint256"
        }
      ],
      "name": "withdrawAsFundraiser",
      "outputs": [],
      "stateMutability": "nonpayable",
      "type": "function"
    },
    {
      "inputs": [],
      "name": "getBalance",
      "outputs": [
        {
          "internalType": "uint256",
          "name": "",
          "type": "uint256"
        }
      ],
      "stateMutability": "view",
      "type": "function",
      "constant": true
    },
    {
      "inputs": [],
      "name": "getFundings",
      "outputs": [
        {
          "components": [
            {
              "internalType": "string",
              "name": "title",
              "type": "string"
            },
            {
              "internalType": "string",
              "name": "subTitle",
              "type": "string"
            },
            {
              "internalType": "string",
              "name": "content",
              "type": "string"
            },
            {
              "internalType": "uint256",
              "name": "currentAmount",
              "type": "uint256"
            },
            {
              "internalType": "uint256",
              "name": "availableMinAmount",
              "type": "uint256"
            },
            {
              "internalType": "uint256",
              "name": "goalAmount",
              "type": "uint256"
            },
            {
              "internalType": "uint256",
              "name": "beginTime",
              "type": "uint256"
            },
            {
              "internalType": "uint256",
              "name": "endTime",
              "type": "uint256"
            },
            {
              "internalType": "address",
              "name": "fundraiser",
              "type": "address"
            }
          ],
          "internalType": "struct FundingFactory.Funding[]",
          "name": "",
          "type": "tuple[]"
        }
      ],
      "stateMutability": "view",
      "type": "function",
      "constant": true
    },
    {
      "inputs": [
        {
          "internalType": "uint256",
          "name": "_fundingId",
          "type": "uint256"
        }
      ],
      "name": "getFunding",
      "outputs": [
        {
          "components": [
            {
              "internalType": "string",
              "name": "title",
              "type": "string"
            },
            {
              "internalType": "string",
              "name": "subTitle",
              "type": "string"
            },
            {
              "internalType": "string",
              "name": "content",
              "type": "string"
            },
            {
              "internalType": "uint256",
              "name": "currentAmount",
              "type": "uint256"
            },
            {
              "internalType": "uint256",
              "name": "availableMinAmount",
              "type": "uint256"
            },
            {
              "internalType": "uint256",
              "name": "goalAmount",
              "type": "uint256"
            },
            {
              "internalType": "uint256",
              "name": "beginTime",
              "type": "uint256"
            },
            {
              "internalType": "uint256",
              "name": "endTime",
              "type": "uint256"
            },
            {
              "internalType": "address",
              "name": "fundraiser",
              "type": "address"
            }
          ],
          "internalType": "struct FundingFactory.Funding",
          "name": "",
          "type": "tuple"
        }
      ],
      "stateMutability": "view",
      "type": "function",
      "constant": true
    }
  ],
  "bytecode": "0x6080604052600160005534801561001557600080fd5b50613521806100256000396000f3fe6080604052600436106100e85760003560e01c80639f23c8211161008a578063ca1d209d11610059578063ca1d209d14610343578063d13cb1fb1461035f578063ebed4bd4146103a4578063f23406bb146103e1576100e8565b80639f23c8211461024c578063af50498e14610289578063b9e1b880146102c9578063c385e90214610306576100e8565b80633ba7cb61116100c65780633ba7cb61146101925780634696a8d7146101bb578063513cdb8c146101e65780635ad868f61461020f576100e8565b806312065fe0146100ed57806315644b7614610118578063359ef97d14610155575b600080fd5b3480156100f957600080fd5b5061010261040a565b60405161010f919061224f565b60405180910390f35b34801561012457600080fd5b5061013f600480360381019061013a91906122aa565b610412565b60405161014c919061242b565b60405180910390f35b34801561016157600080fd5b5061017c60048036038101906101779190612479565b61066f565b604051610189919061224f565b60405180910390f35b34801561019e57600080fd5b506101b960048036038101906101b491906124cc565b6106ad565b005b3480156101c757600080fd5b506101d061079d565b6040516101dd919061273a565b60405180910390f35b3480156101f257600080fd5b5061020d600480360381019061020891906122aa565b610a3b565b005b34801561021b57600080fd5b506102366004803603810190610231919061275c565b610c4b565b604051610243919061224f565b60405180910390f35b34801561025857600080fd5b50610273600480360381019061026e919061275c565b610c7c565b604051610280919061224f565b60405180910390f35b34801561029557600080fd5b506102b060048036038101906102ab91906124cc565b610cad565b6040516102c094939291906127ab565b60405180910390f35b3480156102d557600080fd5b506102f060048036038101906102eb9190612925565b610d1a565b6040516102fd919061224f565b60405180910390f35b34801561031257600080fd5b5061032d600480360381019061032891906122aa565b611068565b60405161033a9190612a1b565b60405180910390f35b61035d600480360381019061035891906122aa565b61109b565b005b34801561036b57600080fd5b50610386600480360381019061038191906122aa565b611479565b60405161039b99989796959493929190612a80565b60405180910390f35b3480156103b057600080fd5b506103cb60048036038101906103c691906122aa565b61168f565b6040516103d89190612bf5565b60405180910390f35b3480156103ed57600080fd5b50610408600480360381019061040391906122aa565b61190a565b005b600047905090565b60606000600660003373ffffffffffffffffffffffffffffffffffffffff1673ffffffffffffffffffffffffffffffffffffffff16815260200190815260200160002060008481526020019081526020016000208054806020026020016040519081016040528092919081815260200182805480156104b057602002820191906000526020600020905b81548152602001906001019080831161049c575b50505050509050600060046000858152602001908152602001600020805480602002602001604051908101604052809291908181526020016000905b8282101561059257838290600052602060002090600402016040518060800160405290816000820160009054906101000a900473ffffffffffffffffffffffffffffffffffffffff1673ffffffffffffffffffffffffffffffffffffffff1673ffffffffffffffffffffffffffffffffffffffff1681526020016001820154815260200160028201548152602001600382015481525050815260200190600101906104ec565b5050505090506000825167ffffffffffffffff8111156105b5576105b46127fa565b5b6040519080825280602002602001820160405280156105ee57816020015b6105db6120f3565b8152602001906001900390816105d35790505b50905060005b8351811015610663578284828151811061061157610610612c17565b5b60200260200101518151811061062a57610629612c17565b5b602002602001015182828151811061064557610644612c17565b5b6020026020010181905250808061065b90612c75565b9150506105f4565b50809350505050919050565b6006602052826000526040600020602052816000526040600020818154811061069757600080fd5b9060005260206000200160009250925050505481565b81600181815481106106c2576106c1612c17565b5b906000526020600020906009020160080160009054906101000a900473ffffffffffffffffffffffffffffffffffffffff1673ffffffffffffffffffffffffffffffffffffffff163373ffffffffffffffffffffffffffffffffffffffff161461072b57600080fd5b6000821161076e576040517f08c379a000000000000000000000000000000000000000000000000000000000815260040161076590612d30565b60405180910390fd5b816001848154811061078357610782612c17565b5b906000526020600020906009020160040181905550505050565b60606001805480602002602001604051908101604052809291908181526020016000905b82821015610a325783829060005260206000209060090201604051806101200160405290816000820180546107f590612d7f565b80601f016020809104026020016040519081016040528092919081815260200182805461082190612d7f565b801561086e5780601f106108435761010080835404028352916020019161086e565b820191906000526020600020905b81548152906001019060200180831161085157829003601f168201915b5050505050815260200160018201805461088790612d7f565b80601f01602080910402602001604051908101604052809291908181526020018280546108b390612d7f565b80156109005780601f106108d557610100808354040283529160200191610900565b820191906000526020600020905b8154815290600101906020018083116108e357829003601f168201915b5050505050815260200160028201805461091990612d7f565b80601f016020809104026020016040519081016040528092919081815260200182805461094590612d7f565b80156109925780601f1061096757610100808354040283529160200191610992565b820191906000526020600020905b81548152906001019060200180831161097557829003601f168201915b5050505050815260200160038201548152602001600482015481526020016005820154815260200160068201548152602001600782015481526020016008820160009054906101000a900473ffffffffffffffffffffffffffffffffffffffff1673ffffffffffffffffffffffffffffffffffffffff1673ffffffffffffffffffffffffffffffffffffffff1681525050815260200190600101906107c1565b50505050905090565b803373ffffffffffffffffffffffffffffffffffffffff1660018281548110610a6757610a66612c17565b5b906000526020600020906009020160080160009054906101000a900473ffffffffffffffffffffffffffffffffffffffff1673ffffffffffffffffffffffffffffffffffffffff1614610ab957600080fd5b60018181548110610acd57610acc612c17565b5b90600052602060002090600902016003015460018281548110610af357610af2612c17565b5b9060005260206000209060090201600501541115610b1057600080fd5b4260018281548110610b2557610b24612c17565b5b9060005260206000209060090201600701541115610b4257600080fd5b6000610b7260018481548110610b5b57610b5a612c17565b5b906000526020600020906009020160030154611cb5565b905080610bb4576040517f08c379a0000000000000000000000000000000000000000000000000000000008152600401610bab90612e23565b60405180910390fd5b8015610c46577f6552b24c7831225bf26325677522a862ef60cd568d63797a8bc9bb811c991a433360018581548110610bf057610bef612c17565b5b90600052602060002090600902016003015442604051610c1293929190612e43565b60405180910390a1600060018481548110610c3057610c2f612c17565b5b9060005260206000209060090201600301819055505b505050565b60036020528160005260406000208181548110610c6757600080fd5b90600052602060002001600091509150505481565b60056020528160005260406000208181548110610c9857600080fd5b90600052602060002001600091509150505481565b60046020528160005260406000208181548110610cc957600080fd5b9060005260206000209060040201600091509150508060000160009054906101000a900473ffffffffffffffffffffffffffffffffffffffff16908060010154908060020154908060030154905084565b6000824210610d5e576040517f08c379a0000000000000000000000000000000000000000000000000000000008152600401610d5590612eec565b60405180910390fd5b818310610da0576040517f08c379a0000000000000000000000000000000000000000000000000000000008152600401610d9790612f7e565b60405180910390fd5b838511610de2576040517f08c379a0000000000000000000000000000000000000000000000000000000008152600401610dd990613010565b60405180910390fd5b60016040518061012001604052808a81526020018981526020018881526020016000815260200160005487610e179190613030565b81526020018781526020018581526020018481526020013373ffffffffffffffffffffffffffffffffffffffff1681525090806001815401808255809150506001900390600052602060002090600902016000909190919091506000820151816000019080519060200190610e8d929190612131565b506020820151816001019080519060200190610eaa929190612131565b506040820151816002019080519060200190610ec7929190612131565b50606082015181600301556080820151816004015560a0820151816005015560c0820151816006015560e082015181600701556101008201518160080160006101000a81548173ffffffffffffffffffffffffffffffffffffffff021916908373ffffffffffffffffffffffffffffffffffffffff16021790555050506000610f5e60018080549050611d2b90919063ffffffff16565b9050336002600083815260200190815260200160002060006101000a81548173ffffffffffffffffffffffffffffffffffffffff021916908373ffffffffffffffffffffffffffffffffffffffff160217905550600360003373ffffffffffffffffffffffffffffffffffffffff1673ffffffffffffffffffffffffffffffffffffffff1681526020019081526020016000208190806001815401808255809150506001900390600052602060002001600090919091909150557ff4d14b13a885fbfb9d8e330bc8926f9a6eef30045a65f60bfdf67ed3eb22b82e818a338988886040516110519695949392919061308a565b60405180910390a180915050979650505050505050565b60026020528060005260406000206000915054906101000a900473ffffffffffffffffffffffffffffffffffffffff1681565b80600042905080600183815481106110b6576110b5612c17565b5b90600052602060002090600902016006015410611108576040517f08c379a00000000000000000000000000000000000000000000000000000000081526004016110ff9061313e565b60405180910390fd5b6001828154811061111c5761111b612c17565b5b906000526020600020906009020160070154811061116f576040517f08c379a0000000000000000000000000000000000000000000000000000000008152600401611166906131aa565b60405180910390fd5b346000546001848154811061118757611186612c17565b5b9060005260206000209060090201600401546111a39190613030565b11156111e4576040517f08c379a00000000000000000000000000000000000000000000000000000000081526004016111db9061323c565b60405180910390fd5b60004290506000349050611226816001878154811061120657611205612c17565b5b906000526020600020906009020160030154611d4190919063ffffffff16565b6001868154811061123a57611239612c17565b5b906000526020600020906009020160030181905550600060405180608001604052803373ffffffffffffffffffffffffffffffffffffffff1681526020018781526020018381526020018481525090506004600087815260200190815260200160002081908060018154018082558091505060019003906000526020600020906004020160009091909190915060008201518160000160006101000a81548173ffffffffffffffffffffffffffffffffffffffff021916908373ffffffffffffffffffffffffffffffffffffffff1602179055506020820151816001015560408201518160020155606082015181600301555050600560003373ffffffffffffffffffffffffffffffffffffffff1673ffffffffffffffffffffffffffffffffffffffff168152602001908152602001600020869080600181540180825580915050600190039060005260206000200160009091909190915055600660003373ffffffffffffffffffffffffffffffffffffffff1673ffffffffffffffffffffffffffffffffffffffff168152602001908152602001600020600087815260200190815260200160002061140e6001600460008a815260200190815260200160002080549050611d2b90919063ffffffff16565b90806001815401808255809150506001900390600052602060002001600090919091909150557f5570b9603539479ab41b78451afd6c57c24197e1ca6a1e74436daefe1d6587643387848660405161146994939291906127ab565b60405180910390a1505050505050565b6001818154811061148957600080fd5b90600052602060002090600902016000915090508060000180546114ac90612d7f565b80601f01602080910402602001604051908101604052809291908181526020018280546114d890612d7f565b80156115255780601f106114fa57610100808354040283529160200191611525565b820191906000526020600020905b81548152906001019060200180831161150857829003601f168201915b50505050509080600101805461153a90612d7f565b80601f016020809104026020016040519081016040528092919081815260200182805461156690612d7f565b80156115b35780601f10611588576101008083540402835291602001916115b3565b820191906000526020600020905b81548152906001019060200180831161159657829003601f168201915b5050505050908060020180546115c890612d7f565b80601f01602080910402602001604051908101604052809291908181526020018280546115f490612d7f565b80156116415780601f1061161657610100808354040283529160200191611641565b820191906000526020600020905b81548152906001019060200180831161162457829003601f168201915b5050505050908060030154908060040154908060050154908060060154908060070154908060080160009054906101000a900473ffffffffffffffffffffffffffffffffffffffff16905089565b6116976121b7565b600182815481106116ab576116aa612c17565b5b9060005260206000209060090201604051806101200160405290816000820180546116d590612d7f565b80601f016020809104026020016040519081016040528092919081815260200182805461170190612d7f565b801561174e5780601f106117235761010080835404028352916020019161174e565b820191906000526020600020905b81548152906001019060200180831161173157829003601f168201915b5050505050815260200160018201805461176790612d7f565b80601f016020809104026020016040519081016040528092919081815260200182805461179390612d7f565b80156117e05780601f106117b5576101008083540402835291602001916117e0565b820191906000526020600020905b8154815290600101906020018083116117c357829003601f168201915b505050505081526020016002820180546117f990612d7f565b80601f016020809104026020016040519081016040528092919081815260200182805461182590612d7f565b80156118725780601f1061184757610100808354040283529160200191611872565b820191906000526020600020905b81548152906001019060200180831161185557829003601f168201915b5050505050815260200160038201548152602001600482015481526020016005820154815260200160068201548152602001600782015481526020016008820160009054906101000a900473ffffffffffffffffffffffffffffffffffffffff1673ffffffffffffffffffffffffffffffffffffffff1673ffffffffffffffffffffffffffffffffffffffff16815250509050919050565b806000600660003373ffffffffffffffffffffffffffffffffffffffff1673ffffffffffffffffffffffffffffffffffffffff1681526020019081526020016000206000838152602001908152602001600020805490501161196b57600080fd5b8160004290506000816001848154811061198857611987612c17565b5b9060005260206000209060090201600601541080156119cb5750600183815481106119b6576119b5612c17565b5b90600052602060002090600902016007015482105b9050600082600185815481106119e4576119e3612c17565b5b906000526020600020906009020160070154108015611a4c575060018481548110611a1257611a11612c17565b5b90600052602060002090600902016005015460018581548110611a3857611a37612c17565b5b906000526020600020906009020160030154105b90508180611a575750805b611a96576040517f08c379a0000000000000000000000000000000000000000000000000000000008152600401611a8d906132ce565b60405180910390fd5b6000600660003373ffffffffffffffffffffffffffffffffffffffff1673ffffffffffffffffffffffffffffffffffffffff16815260200190815260200160002060008881526020019081526020016000208054905011611b2c576040517f08c379a0000000000000000000000000000000000000000000000000000000008152600401611b2390613360565b60405180910390fd5b600080600660003373ffffffffffffffffffffffffffffffffffffffff1673ffffffffffffffffffffffffffffffffffffffff168152602001908152602001600020600089815260200190815260200160002080549050905060005b81811015611bc057611bab611b9c8a611d57565b84611d4190919063ffffffff16565b92508080611bb890612c75565b915050611b88565b50611bf98260018a81548110611bd957611bd8612c17565b5b906000526020600020906009020160030154611d2b90919063ffffffff16565b60018981548110611c0d57611c0c612c17565b5b9060005260206000209060090201600301819055506000611c2d83611cb5565b905080611c6f576040517f08c379a0000000000000000000000000000000000000000000000000000000008152600401611c6690612e23565b60405180910390fd5b7f9ad197141d5c72dae11f90854737d3cc9efd77578b03f5a92862afaacf99f2dc338442604051611ca293929190612e43565b60405180910390a1505050505050505050565b6000803373ffffffffffffffffffffffffffffffffffffffff1683604051611cdc906133b1565b60006040518083038185875af1925050503d8060008114611d19576040519150601f19603f3d011682016040523d82523d6000602084013e611d1e565b606091505b5050905080915050919050565b60008183611d3991906133c6565b905092915050565b60008183611d4f91906133fa565b905092915050565b600080600660003373ffffffffffffffffffffffffffffffffffffffff1673ffffffffffffffffffffffffffffffffffffffff16815260200190815260200160002060008481526020019081526020016000208054905011611db857600080fd5b6000600660003373ffffffffffffffffffffffffffffffffffffffff1673ffffffffffffffffffffffffffffffffffffffff1681526020019081526020016000206000848152602001908152602001600020600081548110611e1d57611e1c612c17565b5b906000526020600020015490506000600460008581526020019081526020016000208281548110611e5157611e50612c17565b5b9060005260206000209060040201600201549050611e70846000611e7a565b8092505050919050565b600660003373ffffffffffffffffffffffffffffffffffffffff1673ffffffffffffffffffffffffffffffffffffffff1681526020019081526020016000206000838152602001908152602001600020805490508110611f0f576040517f08c379a0000000000000000000000000000000000000000000000000000000008152600401611f069061349c565b60405180910390fd5b60008190505b6001600660003373ffffffffffffffffffffffffffffffffffffffff1673ffffffffffffffffffffffffffffffffffffffff168152602001908152602001600020600085815260200190815260200160002080549050611f7591906133c6565b81101561207857600660003373ffffffffffffffffffffffffffffffffffffffff1673ffffffffffffffffffffffffffffffffffffffff1681526020019081526020016000206000848152602001908152602001600020600182611fd991906133fa565b81548110611fea57611fe9612c17565b5b9060005260206000200154600660003373ffffffffffffffffffffffffffffffffffffffff1673ffffffffffffffffffffffffffffffffffffffff1681526020019081526020016000206000858152602001908152602001600020828154811061205757612056612c17565b5b9060005260206000200181905550808061207090612c75565b915050611f15565b50600660003373ffffffffffffffffffffffffffffffffffffffff1673ffffffffffffffffffffffffffffffffffffffff16815260200190815260200160002060008381526020019081526020016000208054806120d9576120d86134bc565b5b600190038181906000526020600020016000905590555050565b6040518060800160405280600073ffffffffffffffffffffffffffffffffffffffff1681526020016000815260200160008152602001600081525090565b82805461213d90612d7f565b90600052602060002090601f01602090048101928261215f57600085556121a6565b82601f1061217857805160ff19168380011785556121a6565b828001600101855582156121a6579182015b828111156121a557825182559160200191906001019061218a565b5b5090506121b39190612219565b5090565b6040518061012001604052806060815260200160608152602001606081526020016000815260200160008152602001600081526020016000815260200160008152602001600073ffffffffffffffffffffffffffffffffffffffff1681525090565b5b8082111561223257600081600090555060010161221a565b5090565b6000819050919050565b61224981612236565b82525050565b60006020820190506122646000830184612240565b92915050565b6000604051905090565b600080fd5b600080fd5b61228781612236565b811461229257600080fd5b50565b6000813590506122a48161227e565b92915050565b6000602082840312156122c0576122bf612274565b5b60006122ce84828501612295565b91505092915050565b600081519050919050565b600082825260208201905092915050565b6000819050602082019050919050565b600073ffffffffffffffffffffffffffffffffffffffff82169050919050565b600061232e82612303565b9050919050565b61233e81612323565b82525050565b61234d81612236565b82525050565b6080820160008201516123696000850182612335565b50602082015161237c6020850182612344565b50604082015161238f6040850182612344565b5060608201516123a26060850182612344565b50505050565b60006123b48383612353565b60808301905092915050565b6000602082019050919050565b60006123d8826122d7565b6123e281856122e2565b93506123ed836122f3565b8060005b8381101561241e57815161240588826123a8565b9750612410836123c0565b9250506001810190506123f1565b5085935050505092915050565b6000602082019050818103600083015261244581846123cd565b905092915050565b61245681612323565b811461246157600080fd5b50565b6000813590506124738161244d565b92915050565b60008060006060848603121561249257612491612274565b5b60006124a086828701612464565b93505060206124b186828701612295565b92505060406124c286828701612295565b9150509250925092565b600080604083850312156124e3576124e2612274565b5b60006124f185828601612295565b925050602061250285828601612295565b9150509250929050565b600081519050919050565b600082825260208201905092915050565b6000819050602082019050919050565b600081519050919050565b600082825260208201905092915050565b60005b83811015612572578082015181840152602081019050612557565b83811115612581576000848401525b50505050565b6000601f19601f8301169050919050565b60006125a382612538565b6125ad8185612543565b93506125bd818560208601612554565b6125c681612587565b840191505092915050565b60006101208301600083015184820360008601526125ef8282612598565b915050602083015184820360208601526126098282612598565b915050604083015184820360408601526126238282612598565b91505060608301516126386060860182612344565b50608083015161264b6080860182612344565b5060a083015161265e60a0860182612344565b5060c083015161267160c0860182612344565b5060e083015161268460e0860182612344565b50610100830151612699610100860182612335565b508091505092915050565b60006126b083836125d1565b905092915050565b6000602082019050919050565b60006126d08261250c565b6126da8185612517565b9350836020820285016126ec85612528565b8060005b85811015612728578484038952815161270985826126a4565b9450612714836126b8565b925060208a019950506001810190506126f0565b50829750879550505050505092915050565b6000602082019050818103600083015261275481846126c5565b905092915050565b6000806040838503121561277357612772612274565b5b600061278185828601612464565b925050602061279285828601612295565b9150509250929050565b6127a581612323565b82525050565b60006080820190506127c0600083018761279c565b6127cd6020830186612240565b6127da6040830185612240565b6127e76060830184612240565b95945050505050565b600080fd5b600080fd5b7f4e487b7100000000000000000000000000000000000000000000000000000000600052604160045260246000fd5b61283282612587565b810181811067ffffffffffffffff82111715612851576128506127fa565b5b80604052505050565b600061286461226a565b90506128708282612829565b919050565b600067ffffffffffffffff8211156128905761288f6127fa565b5b61289982612587565b9050602081019050919050565b82818337600083830152505050565b60006128c86128c384612875565b61285a565b9050828152602081018484840111156128e4576128e36127f5565b5b6128ef8482856128a6565b509392505050565b600082601f83011261290c5761290b6127f0565b5b813561291c8482602086016128b5565b91505092915050565b600080600080600080600060e0888a03121561294457612943612274565b5b600088013567ffffffffffffffff81111561296257612961612279565b5b61296e8a828b016128f7565b975050602088013567ffffffffffffffff81111561298f5761298e612279565b5b61299b8a828b016128f7565b965050604088013567ffffffffffffffff8111156129bc576129bb612279565b5b6129c88a828b016128f7565b95505060606129d98a828b01612295565b94505060806129ea8a828b01612295565b93505060a06129fb8a828b01612295565b92505060c0612a0c8a828b01612295565b91505092959891949750929550565b6000602082019050612a30600083018461279c565b92915050565b600082825260208201905092915050565b6000612a5282612538565b612a5c8185612a36565b9350612a6c818560208601612554565b612a7581612587565b840191505092915050565b6000610120820190508181036000830152612a9b818c612a47565b90508181036020830152612aaf818b612a47565b90508181036040830152612ac3818a612a47565b9050612ad26060830189612240565b612adf6080830188612240565b612aec60a0830187612240565b612af960c0830186612240565b612b0660e0830185612240565b612b1461010083018461279c565b9a9950505050505050505050565b6000610120830160008301518482036000860152612b408282612598565b91505060208301518482036020860152612b5a8282612598565b91505060408301518482036040860152612b748282612598565b9150506060830151612b896060860182612344565b506080830151612b9c6080860182612344565b5060a0830151612baf60a0860182612344565b5060c0830151612bc260c0860182612344565b5060e0830151612bd560e0860182612344565b50610100830151612bea610100860182612335565b508091505092915050565b60006020820190508181036000830152612c0f8184612b22565b905092915050565b7f4e487b7100000000000000000000000000000000000000000000000000000000600052603260045260246000fd5b7f4e487b7100000000000000000000000000000000000000000000000000000000600052601160045260246000fd5b6000612c8082612236565b91507fffffffffffffffffffffffffffffffffffffffffffffffffffffffffffffffff821415612cb357612cb2612c46565b5b600182019050919050565b7f74686520617661696c61626c654d696e416d6f756e742076616c7565206d757360008201527f74206265207570706572207468616e2030207765692e00000000000000000000602082015250565b6000612d1a603683612a36565b9150612d2582612cbe565b604082019050919050565b60006020820190508181036000830152612d4981612d0d565b9050919050565b7f4e487b7100000000000000000000000000000000000000000000000000000000600052602260045260246000fd5b60006002820490506001821680612d9757607f821691505b60208210811415612dab57612daa612d50565b5b50919050565b7f7769746864726177206d6574686f6420646f65736e277420776f726b2077656c60008201527f6c2e000000000000000000000000000000000000000000000000000000000000602082015250565b6000612e0d602283612a36565b9150612e1882612db1565b604082019050919050565b60006020820190508181036000830152612e3c81612e00565b9050919050565b6000606082019050612e58600083018661279c565b612e656020830185612240565b612e726040830184612240565b949350505050565b7f54686520626567696e54696d65206d75737420626520616674657220626c6f6360008201527f6b2074696d657374616d702e0000000000000000000000000000000000000000602082015250565b6000612ed6602c83612a36565b9150612ee182612e7a565b604082019050919050565b60006020820190508181036000830152612f0581612ec9565b9050919050565b7f54686520626567696e54696d65206d757374206265206265666f72652074686560008201527f20656e6454696d652e0000000000000000000000000000000000000000000000602082015250565b6000612f68602983612a36565b9150612f7382612f0c565b604082019050919050565b60006020820190508181036000830152612f9781612f5b565b9050919050565b7f54686520676f616c416d6f756e74206d7573742062652075707065722074686160008201527f6e20617661696c61626c654d696e416d6f756e742e0000000000000000000000602082015250565b6000612ffa603583612a36565b915061300582612f9e565b604082019050919050565b6000602082019050818103600083015261302981612fed565b9050919050565b600061303b82612236565b915061304683612236565b9250817fffffffffffffffffffffffffffffffffffffffffffffffffffffffffffffffff048311821515161561307f5761307e612c46565b5b828202905092915050565b600060c08201905061309f6000830189612240565b81810360208301526130b18188612a47565b90506130c0604083018761279c565b6130cd6060830186612240565b6130da6080830185612240565b6130e760a0830184612240565b979650505050505050565b7f5468652066756e64696e67206e6f74206f70656e207965742e00000000000000600082015250565b6000613128601983612a36565b9150613133826130f2565b602082019050919050565b600060208201905081810360008301526131578161311b565b9050919050565b7f5468652066756e64696e672068617320636c6f7365642e000000000000000000600082015250565b6000613194601783612a36565b915061319f8261315e565b602082019050919050565b600060208201905081810360008301526131c381613187565b9050919050565b7f596f75206e65656420746f2066756e64206d6f726520616d6f756e742e20436860008201527f65636b207468652066756e64696e67206d696e696d756e20616d6f756e742e00602082015250565b6000613226603f83612a36565b9150613231826131ca565b604082019050919050565b6000602082019050818103600083015261325581613219565b9050919050565b7f5468652066756e64696e67207374617465206d7573742062652070726f67726560008201527f7373206f72206661696c65642e00000000000000000000000000000000000000602082015250565b60006132b8602d83612a36565b91506132c38261325c565b604082019050919050565b600060208201905081810360008301526132e7816132ab565b9050919050565b7f596f7520646f6e2774206861766520616e79206163636f756e7420706170657260008201527f2061626f7574207468652066756e64696e672e00000000000000000000000000602082015250565b600061334a603383612a36565b9150613355826132ee565b604082019050919050565b600060208201905081810360008301526133798161333d565b9050919050565b600081905092915050565b50565b600061339b600083613380565b91506133a68261338b565b600082019050919050565b60006133bc8261338e565b9150819050919050565b60006133d182612236565b91506133dc83612236565b9250828210156133ef576133ee612c46565b5b828203905092915050565b600061340582612236565b915061341083612236565b9250827fffffffffffffffffffffffffffffffffffffffffffffffffffffffffffffffff0382111561344557613444612c46565b5b828201905092915050565b7f696e646578206f7574206f6620626f756e640000000000000000000000000000600082015250565b6000613486601283612a36565b915061349182613450565b602082019050919050565b600060208201905081810360008301526134b581613479565b9050919050565b7f4e487b7100000000000000000000000000000000000000000000000000000000600052603160045260246000fdfea26469706673582212206e58893cf4793b7b5a172ffa43d8737133647d6cdf5359a7c7733e2332112cd964736f6c634300080b0033",
  "immutableReferences": {},
  "source": "// SPDX-License-Identifier: MIT\npragma solidity 0.8.11;\nimport \"./FundraiserHandler.sol\";\nimport \"./FunderHandler.sol\";\n\ncontract CrowdFunding is FundraiserHandler, FunderHandler {\n  function getBalance() public view returns (uint256) {\n    return address(this).balance;\n  }\n\n  function getFundings() external view returns(Funding [] memory) {\n      return fundings;\n  }\n\n  function getFunding(uint _fundingId) external view returns(Funding memory) {\n    return fundings[_fundingId];\n  }\n}\n",
  "sourcePath": "/home/user/Develope/crowd-funding/contracts/CrowdFunding.sol",
  "compiler": {
    "name": "solc",
    "version": "0.8.11+commit.d7f03943.Emscripten.clang"
  },
  "schemaVersion": "3.4.5",
  "updatedAt": "2022-03-04T15:19:45.568Z",
  "networkType": "ethereum",
  "devdoc": {
    "kind": "dev",
    "methods": {},
    "version": 1
  },
  "userdoc": {
    "kind": "user",
    "methods": {},
    "version": 1
  }
}