{
  "contractName": "CrowdFunding",
  "abi": [
    {
      "anonymous": false,
      "inputs": [
        {
          "indexed": false,
          "internalType": "uint256",
          "name": "id",
          "type": "uint256"
        },
        {
          "indexed": false,
          "internalType": "string",
          "name": "title",
          "type": "string"
        },
        {
          "indexed": false,
          "internalType": "address",
          "name": "owner",
          "type": "address"
        }
      ],
      "name": "CreateFunding",
      "type": "event"
    },
    {
      "anonymous": false,
      "inputs": [
        {
          "indexed": false,
          "internalType": "address",
          "name": "_address",
          "type": "address"
        },
        {
          "indexed": false,
          "internalType": "uint256",
          "name": "_fundingId",
          "type": "uint256"
        },
        {
          "indexed": false,
          "internalType": "uint256",
          "name": "amount",
          "type": "uint256"
        },
        {
          "indexed": false,
          "internalType": "uint256",
          "name": "date",
          "type": "uint256"
        }
      ],
      "name": "Fund",
      "type": "event"
    },
    {
      "anonymous": false,
      "inputs": [
        {
          "indexed": false,
          "internalType": "address",
          "name": "_address",
          "type": "address"
        },
        {
          "indexed": false,
          "internalType": "uint256",
          "name": "amount",
          "type": "uint256"
        }
      ],
      "name": "WithdrawAsFunder",
      "type": "event"
    },
    {
      "inputs": [
        {
          "internalType": "address",
          "name": "",
          "type": "address"
        },
        {
          "internalType": "uint256",
          "name": "",
          "type": "uint256"
        }
      ],
      "name": "addressToFundedFundingIds",
      "outputs": [
        {
          "internalType": "uint256",
          "name": "",
          "type": "uint256"
        }
      ],
      "stateMutability": "view",
      "type": "function"
    },
    {
      "inputs": [
        {
          "internalType": "address",
          "name": "",
          "type": "address"
        },
        {
          "internalType": "uint256",
          "name": "",
          "type": "uint256"
        },
        {
          "internalType": "uint256",
          "name": "",
          "type": "uint256"
        }
      ],
      "name": "addressToFundingIdToAcoountPapersIds",
      "outputs": [
        {
          "internalType": "uint256",
          "name": "",
          "type": "uint256"
        }
      ],
      "stateMutability": "view",
      "type": "function"
    },
    {
      "inputs": [
        {
          "internalType": "address",
          "name": "",
          "type": "address"
        },
        {
          "internalType": "uint256",
          "name": "",
          "type": "uint256"
        }
      ],
      "name": "addressToFundingIds",
      "outputs": [
        {
          "internalType": "uint256",
          "name": "",
          "type": "uint256"
        }
      ],
      "stateMutability": "view",
      "type": "function"
    },
    {
      "inputs": [
        {
          "internalType": "string",
          "name": "_title",
          "type": "string"
        },
        {
          "internalType": "string",
          "name": "_subTitle",
          "type": "string"
        },
        {
          "internalType": "string",
          "name": "_content",
          "type": "string"
        },
        {
          "internalType": "uint256",
          "name": "_goalAmount",
          "type": "uint256"
        },
        {
          "internalType": "uint256",
          "name": "_availableMinAmount",
          "type": "uint256"
        },
        {
          "internalType": "uint256",
          "name": "_beginTime",
          "type": "uint256"
        },
        {
          "internalType": "uint256",
          "name": "_endTime",
          "type": "uint256"
        }
      ],
      "name": "createFunding",
      "outputs": [
        {
          "internalType": "uint256",
          "name": "",
          "type": "uint256"
        }
      ],
      "stateMutability": "nonpayable",
      "type": "function"
    },
    {
      "inputs": [
        {
          "internalType": "uint256",
          "name": "_fundingId",
          "type": "uint256"
        }
      ],
      "name": "fund",
      "outputs": [],
      "stateMutability": "payable",
      "type": "function"
    },
    {
      "inputs": [
        {
          "internalType": "uint256",
          "name": "",
          "type": "uint256"
        },
        {
          "internalType": "uint256",
          "name": "",
          "type": "uint256"
        }
      ],
      "name": "fundingToAccountPapers",
      "outputs": [
        {
          "internalType": "address",
          "name": "funder",
          "type": "address"
        },
        {
          "internalType": "uint256",
          "name": "fundingId",
          "type": "uint256"
        },
        {
          "internalType": "uint256",
          "name": "amount",
          "type": "uint256"
        },
        {
          "internalType": "uint256",
          "name": "date",
          "type": "uint256"
        }
      ],
      "stateMutability": "view",
      "type": "function"
    },
    {
      "inputs": [
        {
          "internalType": "uint256",
          "name": "",
          "type": "uint256"
        }
      ],
      "name": "fundingToFundraiser",
      "outputs": [
        {
          "internalType": "address",
          "name": "",
          "type": "address"
        }
      ],
      "stateMutability": "view",
      "type": "function"
    },
    {
      "inputs": [
        {
          "internalType": "uint256",
          "name": "",
          "type": "uint256"
        }
      ],
      "name": "fundings",
      "outputs": [
        {
          "internalType": "string",
          "name": "title",
          "type": "string"
        },
        {
          "internalType": "string",
          "name": "subTitle",
          "type": "string"
        },
        {
          "internalType": "string",
          "name": "content",
          "type": "string"
        },
        {
          "internalType": "uint256",
          "name": "currentAmount",
          "type": "uint256"
        },
        {
          "internalType": "uint256",
          "name": "availableMinAmount",
          "type": "uint256"
        },
        {
          "internalType": "uint256",
          "name": "goalAmount",
          "type": "uint256"
        },
        {
          "internalType": "uint256",
          "name": "beginTime",
          "type": "uint256"
        },
        {
          "internalType": "uint256",
          "name": "endTime",
          "type": "uint256"
        },
        {
          "internalType": "address",
          "name": "fundraiser",
          "type": "address"
        }
      ],
      "stateMutability": "view",
      "type": "function"
    },
    {
      "inputs": [],
      "name": "getFundings",
      "outputs": [
        {
          "components": [
            {
              "internalType": "string",
              "name": "title",
              "type": "string"
            },
            {
              "internalType": "string",
              "name": "subTitle",
              "type": "string"
            },
            {
              "internalType": "string",
              "name": "content",
              "type": "string"
            },
            {
              "internalType": "uint256",
              "name": "currentAmount",
              "type": "uint256"
            },
            {
              "internalType": "uint256",
              "name": "availableMinAmount",
              "type": "uint256"
            },
            {
              "internalType": "uint256",
              "name": "goalAmount",
              "type": "uint256"
            },
            {
              "internalType": "uint256",
              "name": "beginTime",
              "type": "uint256"
            },
            {
              "internalType": "uint256",
              "name": "endTime",
              "type": "uint256"
            },
            {
              "internalType": "address",
              "name": "fundraiser",
              "type": "address"
            }
          ],
          "internalType": "struct FundingFactory.Funding[]",
          "name": "",
          "type": "tuple[]"
        }
      ],
      "stateMutability": "view",
      "type": "function"
    },
    {
      "inputs": [
        {
          "internalType": "uint256",
          "name": "_fundingId",
          "type": "uint256"
        }
      ],
      "name": "getMyFundingAccountPapers",
      "outputs": [
        {
          "components": [
            {
              "internalType": "address",
              "name": "funder",
              "type": "address"
            },
            {
              "internalType": "uint256",
              "name": "fundingId",
              "type": "uint256"
            },
            {
              "internalType": "uint256",
              "name": "amount",
              "type": "uint256"
            },
            {
              "internalType": "uint256",
              "name": "date",
              "type": "uint256"
            }
          ],
          "internalType": "struct FunderHandler.AccountPaper[]",
          "name": "",
          "type": "tuple[]"
        }
      ],
      "stateMutability": "view",
      "type": "function"
    },
    {
      "inputs": [],
      "name": "getMyFundingList",
      "outputs": [
        {
          "components": [
            {
              "internalType": "string",
              "name": "title",
              "type": "string"
            },
            {
              "internalType": "string",
              "name": "subTitle",
              "type": "string"
            },
            {
              "internalType": "string",
              "name": "content",
              "type": "string"
            },
            {
              "internalType": "uint256",
              "name": "currentAmount",
              "type": "uint256"
            },
            {
              "internalType": "uint256",
              "name": "availableMinAmount",
              "type": "uint256"
            },
            {
              "internalType": "uint256",
              "name": "goalAmount",
              "type": "uint256"
            },
            {
              "internalType": "uint256",
              "name": "beginTime",
              "type": "uint256"
            },
            {
              "internalType": "uint256",
              "name": "endTime",
              "type": "uint256"
            },
            {
              "internalType": "address",
              "name": "fundraiser",
              "type": "address"
            }
          ],
          "internalType": "struct FundingFactory.Funding[]",
          "name": "",
          "type": "tuple[]"
        }
      ],
      "stateMutability": "view",
      "type": "function"
    },
    {
      "inputs": [
        {
          "internalType": "uint256",
          "name": "_fundingId",
          "type": "uint256"
        },
        {
          "internalType": "uint256",
          "name": "_availableMinAmount",
          "type": "uint256"
        }
      ],
      "name": "setAvailableMinAmount",
      "outputs": [],
      "stateMutability": "nonpayable",
      "type": "function"
    },
    {
      "inputs": [
        {
          "internalType": "address payable",
          "name": "_address",
          "type": "address"
        },
        {
          "internalType": "uint256",
          "name": "_fundingId",
          "type": "uint256"
        }
      ],
      "name": "withdrawAsFunder",
      "outputs": [],
      "stateMutability": "nonpayable",
      "type": "function"
    },
    {
      "inputs": [
        {
          "internalType": "address payable",
          "name": "_address",
          "type": "address"
        },
        {
          "internalType": "uint256",
          "name": "_fundingId",
          "type": "uint256"
        }
      ],
      "name": "withdrawAsFundraiser",
      "outputs": [],
      "stateMutability": "nonpayable",
      "type": "function"
    },
    {
      "inputs": [],
      "name": "getBalance",
      "outputs": [
        {
          "internalType": "uint256",
          "name": "",
          "type": "uint256"
        }
      ],
      "stateMutability": "view",
      "type": "function"
    }
  ],
  "bytecode": "0x6080604052600160005534801561001557600080fd5b506133fa806100256000396000f3fe6080604052600436106100e85760003560e01c806379f760211161008a578063c18d0cf211610059578063c18d0cf21461032f578063c385e9021461035a578063ca1d209d14610397578063d13cb1fb146103b3576100e8565b806379f760211461024c5780639f23c82114610275578063af50498e146102b2578063b9e1b880146102f2576100e8565b8063359ef97d116100c6578063359ef97d1461017e5780633ba7cb61146101bb5780634696a8d7146101e45780635ad868f61461020f576100e8565b80630127bd96146100ed57806312065fe01461011657806315644b7614610141575b600080fd5b3480156100f957600080fd5b50610114600480360381019061010f9190612351565b6103f8565b005b34801561012257600080fd5b5061012b610799565b60405161013891906123a0565b60405180910390f35b34801561014d57600080fd5b50610168600480360381019061016391906123bb565b6107a1565b604051610175919061251c565b60405180910390f35b34801561018a57600080fd5b506101a560048036038101906101a0919061256a565b6109fe565b6040516101b291906123a0565b60405180910390f35b3480156101c757600080fd5b506101e260048036038101906101dd91906125bd565b610a3c565b005b3480156101f057600080fd5b506101f9610ae9565b604051610206919061282b565b60405180910390f35b34801561021b57600080fd5b506102366004803603810190610231919061284d565b610d87565b60405161024391906123a0565b60405180910390f35b34801561025857600080fd5b50610273600480360381019061026e9190612351565b610db8565b005b34801561028157600080fd5b5061029c6004803603810190610297919061284d565b610f2a565b6040516102a991906123a0565b60405180910390f35b3480156102be57600080fd5b506102d960048036038101906102d491906125bd565b610f5b565b6040516102e9949392919061289c565b60405180910390f35b3480156102fe57600080fd5b5061031960048036038101906103149190612a16565b610fc8565b60405161032691906123a0565b60405180910390f35b34801561033b57600080fd5b506103446112ce565b604051610351919061282b565b60405180910390f35b34801561036657600080fd5b50610381600480360381019061037c91906123bb565b611687565b60405161038e9190612b0c565b60405180910390f35b6103b160048036038101906103ac91906123bb565b6116ba565b005b3480156103bf57600080fd5b506103da60048036038101906103d591906123bb565b611a98565b6040516103ef99989796959493929190612b71565b60405180910390f35b806000600660003373ffffffffffffffffffffffffffffffffffffffff1673ffffffffffffffffffffffffffffffffffffffff1681526020019081526020016000206000838152602001908152602001600020805490501161045957600080fd5b8160004290506000816001848154811061047657610475612c13565b5b9060005260206000209060090201600601541080156104b95750600183815481106104a4576104a3612c13565b5b90600052602060002090600902016007015482105b9050600082600185815481106104d2576104d1612c13565b5b90600052602060002090600902016007015410801561053a575060018481548110610500576104ff612c13565b5b9060005260206000209060090201600301546001858154811061052657610525612c13565b5b906000526020600020906009020160050154105b905081806105455750805b610584576040517f08c379a000000000000000000000000000000000000000000000000000000000815260040161057b90612cb4565b60405180910390fd5b6000600660003373ffffffffffffffffffffffffffffffffffffffff1673ffffffffffffffffffffffffffffffffffffffff1681526020019081526020016000206000888152602001908152602001600020805490501161061a576040517f08c379a000000000000000000000000000000000000000000000000000000000815260040161061190612d46565b60405180910390fd5b600080600090505b600660003373ffffffffffffffffffffffffffffffffffffffff1673ffffffffffffffffffffffffffffffffffffffff1681526020019081526020016000206000898152602001908152602001600020805490508110156106ad5761069861068989611cae565b83611dd190919063ffffffff16565b915080806106a590612d95565b915050610622565b506106e681600189815481106106c6576106c5612c13565b5b906000526020600020906009020160030154611de790919063ffffffff16565b600188815481106106fa576106f9612c13565b5b9060005260206000209060090201600301819055508773ffffffffffffffffffffffffffffffffffffffff166108fc829081150290604051600060405180830381858888f19350505050158015610755573d6000803e3d6000fd5b507f8b44624ed77d3aba37528007e957b3364e912e373b37b367bf5bd578d226747a8882604051610787929190612e3d565b60405180910390a15050505050505050565b600047905090565b60606000600660003373ffffffffffffffffffffffffffffffffffffffff1673ffffffffffffffffffffffffffffffffffffffff168152602001908152602001600020600084815260200190815260200160002080548060200260200160405190810160405280929190818152602001828054801561083f57602002820191906000526020600020905b81548152602001906001019080831161082b575b50505050509050600060046000858152602001908152602001600020805480602002602001604051908101604052809291908181526020016000905b8282101561092157838290600052602060002090600402016040518060800160405290816000820160009054906101000a900473ffffffffffffffffffffffffffffffffffffffff1673ffffffffffffffffffffffffffffffffffffffff1673ffffffffffffffffffffffffffffffffffffffff16815260200160018201548152602001600282015481526020016003820154815250508152602001906001019061087b565b5050505090506000825167ffffffffffffffff811115610944576109436128eb565b5b60405190808252806020026020018201604052801561097d57816020015b61096a612166565b8152602001906001900390816109625790505b50905060005b83518110156109f257828482815181106109a05761099f612c13565b5b6020026020010151815181106109b9576109b8612c13565b5b60200260200101518282815181106109d4576109d3612c13565b5b602002602001018190525080806109ea90612d95565b915050610983565b50809350505050919050565b60066020528260005260406000206020528160005260406000208181548110610a2657600080fd5b9060005260206000200160009250925050505481565b8160018181548110610a5157610a50612c13565b5b906000526020600020906009020160080160009054906101000a900473ffffffffffffffffffffffffffffffffffffffff1673ffffffffffffffffffffffffffffffffffffffff163373ffffffffffffffffffffffffffffffffffffffff1614610aba57600080fd5b8160018481548110610acf57610ace612c13565b5b906000526020600020906009020160040181905550505050565b60606001805480602002602001604051908101604052809291908181526020016000905b82821015610d7e578382906000526020600020906009020160405180610120016040529081600082018054610b4190612e95565b80601f0160208091040260200160405190810160405280929190818152602001828054610b6d90612e95565b8015610bba5780601f10610b8f57610100808354040283529160200191610bba565b820191906000526020600020905b815481529060010190602001808311610b9d57829003601f168201915b50505050508152602001600182018054610bd390612e95565b80601f0160208091040260200160405190810160405280929190818152602001828054610bff90612e95565b8015610c4c5780601f10610c2157610100808354040283529160200191610c4c565b820191906000526020600020905b815481529060010190602001808311610c2f57829003601f168201915b50505050508152602001600282018054610c6590612e95565b80601f0160208091040260200160405190810160405280929190818152602001828054610c9190612e95565b8015610cde5780601f10610cb357610100808354040283529160200191610cde565b820191906000526020600020905b815481529060010190602001808311610cc157829003601f168201915b5050505050815260200160038201548152602001600482015481526020016005820154815260200160068201548152602001600782015481526020016008820160009054906101000a900473ffffffffffffffffffffffffffffffffffffffff1673ffffffffffffffffffffffffffffffffffffffff1673ffffffffffffffffffffffffffffffffffffffff168152505081526020019060010190610b0d565b50505050905090565b60036020528160005260406000208181548110610da357600080fd5b90600052602060002001600091509150505481565b803373ffffffffffffffffffffffffffffffffffffffff1660018281548110610de457610de3612c13565b5b906000526020600020906009020160080160009054906101000a900473ffffffffffffffffffffffffffffffffffffffff1673ffffffffffffffffffffffffffffffffffffffff1614610e3657600080fd5b60018181548110610e4a57610e49612c13565b5b90600052602060002090600902016003015460018281548110610e7057610e6f612c13565b5b9060005260206000209060090201600501541115610e8d57600080fd5b4260018281548110610ea257610ea1612c13565b5b9060005260206000209060090201600701541115610ebf57600080fd5b6000610ef08460018581548110610ed957610ed8612c13565b5b906000526020600020906009020160030154611dfd565b90508015610f2457600060018481548110610f0e57610f0d612c13565b5b9060005260206000209060090201600301819055505b50505050565b60056020528160005260406000208181548110610f4657600080fd5b90600052602060002001600091509150505481565b60046020528160005260406000208181548110610f7757600080fd5b9060005260206000209060040201600091509150508060000160009054906101000a900473ffffffffffffffffffffffffffffffffffffffff16908060010154908060020154908060030154905084565b600060016040518061012001604052808a81526020018981526020018881526020016000815260200160005487610fff9190612ec7565b81526020018781526020018581526020018481526020013373ffffffffffffffffffffffffffffffffffffffff16815250908060018154018082558091505060019003906000526020600020906009020160009091909190915060008201518160000190805190602001906110759291906121a4565b5060208201518160010190805190602001906110929291906121a4565b5060408201518160020190805190602001906110af9291906121a4565b50606082015181600301556080820151816004015560a0820151816005015560c0820151816006015560e082015181600701556101008201518160080160006101000a81548173ffffffffffffffffffffffffffffffffffffffff021916908373ffffffffffffffffffffffffffffffffffffffff160217905550505082421061116e576040517f08c379a000000000000000000000000000000000000000000000000000000000815260040161116590612f93565b60405180910390fd5b8183106111b0576040517f08c379a00000000000000000000000000000000000000000000000000000000081526004016111a790613025565b60405180910390fd5b60006111ca60018080549050611de790919063ffffffff16565b9050336002600083815260200190815260200160002060006101000a81548173ffffffffffffffffffffffffffffffffffffffff021916908373ffffffffffffffffffffffffffffffffffffffff160217905550600360003373ffffffffffffffffffffffffffffffffffffffff1673ffffffffffffffffffffffffffffffffffffffff1681526020019081526020016000208190806001815401808255809150506001900390600052602060002001600090919091909150557f067c1b8999473c496ecef075b41bfd7fb76764f4329db144e64c9a31e9f93cec818a336040516112b793929190613045565b60405180910390a180915050979650505050505050565b60606000600360003373ffffffffffffffffffffffffffffffffffffffff1673ffffffffffffffffffffffffffffffffffffffff16815260200190815260200160002080548060200260200160405190810160405280929190818152602001828054801561135b57602002820191906000526020600020905b815481526020019060010190808311611347575b505050505090506000815167ffffffffffffffff81111561137f5761137e6128eb565b5b6040519080825280602002602001820160405280156113b857816020015b6113a561222a565b81526020019060019003908161139d5790505b50905060005b825181101561167e5760018382815181106113dc576113db612c13565b5b6020026020010151815481106113f5576113f4612c13565b5b90600052602060002090600902016040518061012001604052908160008201805461141f90612e95565b80601f016020809104026020016040519081016040528092919081815260200182805461144b90612e95565b80156114985780601f1061146d57610100808354040283529160200191611498565b820191906000526020600020905b81548152906001019060200180831161147b57829003601f168201915b505050505081526020016001820180546114b190612e95565b80601f01602080910402602001604051908101604052809291908181526020018280546114dd90612e95565b801561152a5780601f106114ff5761010080835404028352916020019161152a565b820191906000526020600020905b81548152906001019060200180831161150d57829003601f168201915b5050505050815260200160028201805461154390612e95565b80601f016020809104026020016040519081016040528092919081815260200182805461156f90612e95565b80156115bc5780601f10611591576101008083540402835291602001916115bc565b820191906000526020600020905b81548152906001019060200180831161159f57829003601f168201915b5050505050815260200160038201548152602001600482015481526020016005820154815260200160068201548152602001600782015481526020016008820160009054906101000a900473ffffffffffffffffffffffffffffffffffffffff1673ffffffffffffffffffffffffffffffffffffffff1673ffffffffffffffffffffffffffffffffffffffff16815250508282815181106116605761165f612c13565b5b6020026020010181905250808061167690612d95565b9150506113be565b50809250505090565b60026020528060005260406000206000915054906101000a900473ffffffffffffffffffffffffffffffffffffffff1681565b80600042905080600183815481106116d5576116d4612c13565b5b90600052602060002090600902016006015410611727576040517f08c379a000000000000000000000000000000000000000000000000000000000815260040161171e906130cf565b60405180910390fd5b6001828154811061173b5761173a612c13565b5b906000526020600020906009020160070154811061178e576040517f08c379a00000000000000000000000000000000000000000000000000000000081526004016117859061313b565b60405180910390fd5b34600054600184815481106117a6576117a5612c13565b5b9060005260206000209060090201600401546117c29190612ec7565b1115611803576040517f08c379a00000000000000000000000000000000000000000000000000000000081526004016117fa906131cd565b60405180910390fd5b60004290506000349050611845816001878154811061182557611824612c13565b5b906000526020600020906009020160030154611dd190919063ffffffff16565b6001868154811061185957611858612c13565b5b906000526020600020906009020160030181905550600060405180608001604052803373ffffffffffffffffffffffffffffffffffffffff1681526020018781526020018381526020018481525090506004600087815260200190815260200160002081908060018154018082558091505060019003906000526020600020906004020160009091909190915060008201518160000160006101000a81548173ffffffffffffffffffffffffffffffffffffffff021916908373ffffffffffffffffffffffffffffffffffffffff1602179055506020820151816001015560408201518160020155606082015181600301555050600560003373ffffffffffffffffffffffffffffffffffffffff1673ffffffffffffffffffffffffffffffffffffffff168152602001908152602001600020869080600181540180825580915050600190039060005260206000200160009091909190915055600660003373ffffffffffffffffffffffffffffffffffffffff1673ffffffffffffffffffffffffffffffffffffffff1681526020019081526020016000206000878152602001908152602001600020611a2d6001600460008a815260200190815260200160002080549050611de790919063ffffffff16565b90806001815401808255809150506001900390600052602060002001600090919091909150557f5570b9603539479ab41b78451afd6c57c24197e1ca6a1e74436daefe1d65876433878486604051611a88949392919061289c565b60405180910390a1505050505050565b60018181548110611aa857600080fd5b9060005260206000209060090201600091509050806000018054611acb90612e95565b80601f0160208091040260200160405190810160405280929190818152602001828054611af790612e95565b8015611b445780601f10611b1957610100808354040283529160200191611b44565b820191906000526020600020905b815481529060010190602001808311611b2757829003601f168201915b505050505090806001018054611b5990612e95565b80601f0160208091040260200160405190810160405280929190818152602001828054611b8590612e95565b8015611bd25780601f10611ba757610100808354040283529160200191611bd2565b820191906000526020600020905b815481529060010190602001808311611bb557829003601f168201915b505050505090806002018054611be790612e95565b80601f0160208091040260200160405190810160405280929190818152602001828054611c1390612e95565b8015611c605780601f10611c3557610100808354040283529160200191611c60565b820191906000526020600020905b815481529060010190602001808311611c4357829003601f168201915b5050505050908060030154908060040154908060050154908060060154908060070154908060080160009054906101000a900473ffffffffffffffffffffffffffffffffffffffff16905089565b600080600660003373ffffffffffffffffffffffffffffffffffffffff1673ffffffffffffffffffffffffffffffffffffffff16815260200190815260200160002060008481526020019081526020016000208054905011611d0f57600080fd5b6000600660003373ffffffffffffffffffffffffffffffffffffffff1673ffffffffffffffffffffffffffffffffffffffff1681526020019081526020016000206000848152602001908152602001600020600081548110611d7457611d73612c13565b5b906000526020600020015490506000600460008581526020019081526020016000208281548110611da857611da7612c13565b5b9060005260206000209060040201600201549050611dc7846000611eed565b8092505050919050565b60008183611ddf91906131ed565b905092915050565b60008183611df59190613243565b905092915050565b60003373ffffffffffffffffffffffffffffffffffffffff168373ffffffffffffffffffffffffffffffffffffffff1614611e3757600080fd5b60008373ffffffffffffffffffffffffffffffffffffffff1683604051611e5d906132a8565b60006040518083038185875af1925050503d8060008114611e9a576040519150601f19603f3d011682016040523d82523d6000602084013e611e9f565b606091505b5050905080611ee3576040517f08c379a0000000000000000000000000000000000000000000000000000000008152600401611eda90613309565b60405180910390fd5b8091505092915050565b600660003373ffffffffffffffffffffffffffffffffffffffff1673ffffffffffffffffffffffffffffffffffffffff1681526020019081526020016000206000838152602001908152602001600020805490508110611f82576040517f08c379a0000000000000000000000000000000000000000000000000000000008152600401611f7990613375565b60405180910390fd5b60008190505b6001600660003373ffffffffffffffffffffffffffffffffffffffff1673ffffffffffffffffffffffffffffffffffffffff168152602001908152602001600020600085815260200190815260200160002080549050611fe89190613243565b8110156120eb57600660003373ffffffffffffffffffffffffffffffffffffffff1673ffffffffffffffffffffffffffffffffffffffff168152602001908152602001600020600084815260200190815260200160002060018261204c91906131ed565b8154811061205d5761205c612c13565b5b9060005260206000200154600660003373ffffffffffffffffffffffffffffffffffffffff1673ffffffffffffffffffffffffffffffffffffffff168152602001908152602001600020600085815260200190815260200160002082815481106120ca576120c9612c13565b5b906000526020600020018190555080806120e390612d95565b915050611f88565b50600660003373ffffffffffffffffffffffffffffffffffffffff1673ffffffffffffffffffffffffffffffffffffffff168152602001908152602001600020600083815260200190815260200160002080548061214c5761214b613395565b5b600190038181906000526020600020016000905590555050565b6040518060800160405280600073ffffffffffffffffffffffffffffffffffffffff1681526020016000815260200160008152602001600081525090565b8280546121b090612e95565b90600052602060002090601f0160209004810192826121d25760008555612219565b82601f106121eb57805160ff1916838001178555612219565b82800160010185558215612219579182015b828111156122185782518255916020019190600101906121fd565b5b509050612226919061228c565b5090565b6040518061012001604052806060815260200160608152602001606081526020016000815260200160008152602001600081526020016000815260200160008152602001600073ffffffffffffffffffffffffffffffffffffffff1681525090565b5b808211156122a557600081600090555060010161228d565b5090565b6000604051905090565b600080fd5b600080fd5b600073ffffffffffffffffffffffffffffffffffffffff82169050919050565b60006122e8826122bd565b9050919050565b6122f8816122dd565b811461230357600080fd5b50565b600081359050612315816122ef565b92915050565b6000819050919050565b61232e8161231b565b811461233957600080fd5b50565b60008135905061234b81612325565b92915050565b60008060408385031215612368576123676122b3565b5b600061237685828601612306565b92505060206123878582860161233c565b9150509250929050565b61239a8161231b565b82525050565b60006020820190506123b56000830184612391565b92915050565b6000602082840312156123d1576123d06122b3565b5b60006123df8482850161233c565b91505092915050565b600081519050919050565b600082825260208201905092915050565b6000819050602082019050919050565b600061241f826122bd565b9050919050565b61242f81612414565b82525050565b61243e8161231b565b82525050565b60808201600082015161245a6000850182612426565b50602082015161246d6020850182612435565b5060408201516124806040850182612435565b5060608201516124936060850182612435565b50505050565b60006124a58383612444565b60808301905092915050565b6000602082019050919050565b60006124c9826123e8565b6124d381856123f3565b93506124de83612404565b8060005b8381101561250f5781516124f68882612499565b9750612501836124b1565b9250506001810190506124e2565b5085935050505092915050565b6000602082019050818103600083015261253681846124be565b905092915050565b61254781612414565b811461255257600080fd5b50565b6000813590506125648161253e565b92915050565b600080600060608486031215612583576125826122b3565b5b600061259186828701612555565b93505060206125a28682870161233c565b92505060406125b38682870161233c565b9150509250925092565b600080604083850312156125d4576125d36122b3565b5b60006125e28582860161233c565b92505060206125f38582860161233c565b9150509250929050565b600081519050919050565b600082825260208201905092915050565b6000819050602082019050919050565b600081519050919050565b600082825260208201905092915050565b60005b83811015612663578082015181840152602081019050612648565b83811115612672576000848401525b50505050565b6000601f19601f8301169050919050565b600061269482612629565b61269e8185612634565b93506126ae818560208601612645565b6126b781612678565b840191505092915050565b60006101208301600083015184820360008601526126e08282612689565b915050602083015184820360208601526126fa8282612689565b915050604083015184820360408601526127148282612689565b91505060608301516127296060860182612435565b50608083015161273c6080860182612435565b5060a083015161274f60a0860182612435565b5060c083015161276260c0860182612435565b5060e083015161277560e0860182612435565b5061010083015161278a610100860182612426565b508091505092915050565b60006127a183836126c2565b905092915050565b6000602082019050919050565b60006127c1826125fd565b6127cb8185612608565b9350836020820285016127dd85612619565b8060005b8581101561281957848403895281516127fa8582612795565b9450612805836127a9565b925060208a019950506001810190506127e1565b50829750879550505050505092915050565b6000602082019050818103600083015261284581846127b6565b905092915050565b60008060408385031215612864576128636122b3565b5b600061287285828601612555565b92505060206128838582860161233c565b9150509250929050565b61289681612414565b82525050565b60006080820190506128b1600083018761288d565b6128be6020830186612391565b6128cb6040830185612391565b6128d86060830184612391565b95945050505050565b600080fd5b600080fd5b7f4e487b7100000000000000000000000000000000000000000000000000000000600052604160045260246000fd5b61292382612678565b810181811067ffffffffffffffff82111715612942576129416128eb565b5b80604052505050565b60006129556122a9565b9050612961828261291a565b919050565b600067ffffffffffffffff821115612981576129806128eb565b5b61298a82612678565b9050602081019050919050565b82818337600083830152505050565b60006129b96129b484612966565b61294b565b9050828152602081018484840111156129d5576129d46128e6565b5b6129e0848285612997565b509392505050565b600082601f8301126129fd576129fc6128e1565b5b8135612a0d8482602086016129a6565b91505092915050565b600080600080600080600060e0888a031215612a3557612a346122b3565b5b600088013567ffffffffffffffff811115612a5357612a526122b8565b5b612a5f8a828b016129e8565b975050602088013567ffffffffffffffff811115612a8057612a7f6122b8565b5b612a8c8a828b016129e8565b965050604088013567ffffffffffffffff811115612aad57612aac6122b8565b5b612ab98a828b016129e8565b9550506060612aca8a828b0161233c565b9450506080612adb8a828b0161233c565b93505060a0612aec8a828b0161233c565b92505060c0612afd8a828b0161233c565b91505092959891949750929550565b6000602082019050612b21600083018461288d565b92915050565b600082825260208201905092915050565b6000612b4382612629565b612b4d8185612b27565b9350612b5d818560208601612645565b612b6681612678565b840191505092915050565b6000610120820190508181036000830152612b8c818c612b38565b90508181036020830152612ba0818b612b38565b90508181036040830152612bb4818a612b38565b9050612bc36060830189612391565b612bd06080830188612391565b612bdd60a0830187612391565b612bea60c0830186612391565b612bf760e0830185612391565b612c0561010083018461288d565b9a9950505050505050505050565b7f4e487b7100000000000000000000000000000000000000000000000000000000600052603260045260246000fd5b7f5468652066756e64696e672074696d652068617320706173736564206f72206860008201527f6173206e6f74206265656e207375636365737366756c2e000000000000000000602082015250565b6000612c9e603783612b27565b9150612ca982612c42565b604082019050919050565b60006020820190508181036000830152612ccd81612c91565b9050919050565b7f596f7520646f6e2774206861766520616e79206163636f756e7420706170657260008201527f2061626f7574207468652066756e64696e672e00000000000000000000000000602082015250565b6000612d30603383612b27565b9150612d3b82612cd4565b604082019050919050565b60006020820190508181036000830152612d5f81612d23565b9050919050565b7f4e487b7100000000000000000000000000000000000000000000000000000000600052601160045260246000fd5b6000612da08261231b565b91507fffffffffffffffffffffffffffffffffffffffffffffffffffffffffffffffff821415612dd357612dd2612d66565b5b600182019050919050565b6000819050919050565b6000612e03612dfe612df9846122bd565b612dde565b6122bd565b9050919050565b6000612e1582612de8565b9050919050565b6000612e2782612e0a565b9050919050565b612e3781612e1c565b82525050565b6000604082019050612e526000830185612e2e565b612e5f6020830184612391565b9392505050565b7f4e487b7100000000000000000000000000000000000000000000000000000000600052602260045260246000fd5b60006002820490506001821680612ead57607f821691505b60208210811415612ec157612ec0612e66565b5b50919050565b6000612ed28261231b565b9150612edd8361231b565b9250817fffffffffffffffffffffffffffffffffffffffffffffffffffffffffffffffff0483118215151615612f1657612f15612d66565b5b828202905092915050565b7f54686520626567696e54696d65206d75737420626520616674657220626c6f6360008201527f6b2074696d657374616d702e0000000000000000000000000000000000000000602082015250565b6000612f7d602c83612b27565b9150612f8882612f21565b604082019050919050565b60006020820190508181036000830152612fac81612f70565b9050919050565b7f54686520626567696e54696d65206d757374206265206265666f72652074686560008201527f20656e6454696d652e0000000000000000000000000000000000000000000000602082015250565b600061300f602983612b27565b915061301a82612fb3565b604082019050919050565b6000602082019050818103600083015261303e81613002565b9050919050565b600060608201905061305a6000830186612391565b818103602083015261306c8185612b38565b905061307b604083018461288d565b949350505050565b7f5468652066756e64696e67206e6f74206f70656e207965742e00000000000000600082015250565b60006130b9601983612b27565b91506130c482613083565b602082019050919050565b600060208201905081810360008301526130e8816130ac565b9050919050565b7f5468652066756e64696e6720636c6f7365642e00000000000000000000000000600082015250565b6000613125601383612b27565b9150613130826130ef565b602082019050919050565b6000602082019050818103600083015261315481613118565b9050919050565b7f596f75206e65656420746f20757365206d6f726520616d6f756e742e2043686560008201527f636b207468652066756e64696e67206d696e696d756e20616d6f756e742e0000602082015250565b60006131b7603e83612b27565b91506131c28261315b565b604082019050919050565b600060208201905081810360008301526131e6816131aa565b9050919050565b60006131f88261231b565b91506132038361231b565b9250827fffffffffffffffffffffffffffffffffffffffffffffffffffffffffffffffff0382111561323857613237612d66565b5b828201905092915050565b600061324e8261231b565b91506132598361231b565b92508282101561326c5761326b612d66565b5b828203905092915050565b600081905092915050565b50565b6000613292600083613277565b915061329d82613282565b600082019050919050565b60006132b382613285565b9150819050919050565b7f4661696c656420746f2073656e64204574686572000000000000000000000000600082015250565b60006132f3601483612b27565b91506132fe826132bd565b602082019050919050565b60006020820190508181036000830152613322816132e6565b9050919050565b7f696e646578206f7574206f6620626f756e640000000000000000000000000000600082015250565b600061335f601283612b27565b915061336a82613329565b602082019050919050565b6000602082019050818103600083015261338e81613352565b9050919050565b7f4e487b7100000000000000000000000000000000000000000000000000000000600052603160045260246000fdfea26469706673582212209cf4557a74921fd888f348825f97f5ef2926cf503c7b8bd4a790bf2a9a736deb64736f6c634300080b0033",
  "immutableReferences": {},
  "source": "// SPDX-License-Identifier: MIT\npragma solidity 0.8.11;\nimport \"./FundraiserHandler.sol\";\nimport \"./FunderHandler.sol\";\n\ncontract CrowdFunding is FundraiserHandler, FunderHandler {\n  function getBalance() public view returns (uint256) {\n    return address(this).balance;\n  }\n}\n",
  "sourcePath": "/home/user/Develope/crowd-funding/contracts/CrowdFunding.sol",
  "compiler": {
    "name": "solc",
    "version": "0.8.11+commit.d7f03943.Emscripten.clang"
  },
  "schemaVersion": "3.4.5",
  "updatedAt": "2022-02-28T10:59:38.132Z",
  "devdoc": {
    "kind": "dev",
    "methods": {},
    "version": 1
  },
  "userdoc": {
    "kind": "user",
    "methods": {},
    "version": 1
  }
}