{
  "contractName": "FundingFactory",
  "abi": [
    {
      "anonymous": false,
      "inputs": [
        {
          "indexed": false,
          "internalType": "uint256",
          "name": "id",
          "type": "uint256"
        },
        {
          "indexed": false,
          "internalType": "string",
          "name": "title",
          "type": "string"
        },
        {
          "indexed": false,
          "internalType": "address",
          "name": "owner",
          "type": "address"
        }
      ],
      "name": "CreateFunding",
      "type": "event"
    },
    {
      "inputs": [
        {
          "internalType": "address",
          "name": "",
          "type": "address"
        },
        {
          "internalType": "uint256",
          "name": "",
          "type": "uint256"
        }
      ],
      "name": "addressToFundingIds",
      "outputs": [
        {
          "internalType": "uint256",
          "name": "",
          "type": "uint256"
        }
      ],
      "stateMutability": "view",
      "type": "function"
    },
    {
      "inputs": [
        {
          "internalType": "uint256",
          "name": "",
          "type": "uint256"
        }
      ],
      "name": "fundingToFundraiser",
      "outputs": [
        {
          "internalType": "address",
          "name": "",
          "type": "address"
        }
      ],
      "stateMutability": "view",
      "type": "function"
    },
    {
      "inputs": [
        {
          "internalType": "uint256",
          "name": "",
          "type": "uint256"
        }
      ],
      "name": "fundings",
      "outputs": [
        {
          "internalType": "string",
          "name": "title",
          "type": "string"
        },
        {
          "internalType": "string",
          "name": "subTitle",
          "type": "string"
        },
        {
          "internalType": "string",
          "name": "content",
          "type": "string"
        },
        {
          "internalType": "uint256",
          "name": "currentAmount",
          "type": "uint256"
        },
        {
          "internalType": "uint256",
          "name": "availableMinAmount",
          "type": "uint256"
        },
        {
          "internalType": "uint256",
          "name": "goalAmount",
          "type": "uint256"
        },
        {
          "internalType": "uint256",
          "name": "beginTime",
          "type": "uint256"
        },
        {
          "internalType": "uint256",
          "name": "endTime",
          "type": "uint256"
        },
        {
          "internalType": "address",
          "name": "fundraiser",
          "type": "address"
        }
      ],
      "stateMutability": "view",
      "type": "function"
    },
    {
      "inputs": [
        {
          "internalType": "string",
          "name": "_title",
          "type": "string"
        },
        {
          "internalType": "string",
          "name": "_subTitle",
          "type": "string"
        },
        {
          "internalType": "string",
          "name": "_content",
          "type": "string"
        },
        {
          "internalType": "uint256",
          "name": "_goalAmount",
          "type": "uint256"
        },
        {
          "internalType": "uint256",
          "name": "_availableMinAmount",
          "type": "uint256"
        },
        {
          "internalType": "uint256",
          "name": "_beginTime",
          "type": "uint256"
        },
        {
          "internalType": "uint256",
          "name": "_endTime",
          "type": "uint256"
        }
      ],
      "name": "createFunding",
      "outputs": [
        {
          "internalType": "uint256",
          "name": "",
          "type": "uint256"
        }
      ],
      "stateMutability": "nonpayable",
      "type": "function"
    }
  ],
  "bytecode": "0x6080604052600160005534801561001557600080fd5b50610ed7806100256000396000f3fe608060405234801561001057600080fd5b506004361061004c5760003560e01c80635ad868f614610051578063b9e1b88014610081578063c385e902146100b1578063d13cb1fb146100e1575b600080fd5b61006b600480360381019061006691906107fa565b610119565b6040516100789190610849565b60405180910390f35b61009b600480360381019061009691906109aa565b61014a565b6040516100a89190610849565b60405180910390f35b6100cb60048036038101906100c69190610aa0565b610450565b6040516100d89190610adc565b60405180910390f35b6100fb60048036038101906100f69190610aa0565b610483565b60405161011099989796959493929190610b7f565b60405180910390f35b6003602052816000526040600020818154811061013557600080fd5b90600052602060002001600091509150505481565b600060016040518061012001604052808a815260200189815260200188815260200160008152602001600054876101819190610c50565b81526020018781526020018581526020018481526020013373ffffffffffffffffffffffffffffffffffffffff16815250908060018154018082558091505060019003906000526020600020906009020160009091909190915060008201518160000190805190602001906101f79291906106af565b5060208201518160010190805190602001906102149291906106af565b5060408201518160020190805190602001906102319291906106af565b50606082015181600301556080820151816004015560a0820151816005015560c0820151816006015560e082015181600701556101008201518160080160006101000a81548173ffffffffffffffffffffffffffffffffffffffff021916908373ffffffffffffffffffffffffffffffffffffffff16021790555050508242106102f0576040517f08c379a00000000000000000000000000000000000000000000000000000000081526004016102e790610d1c565b60405180910390fd5b818310610332576040517f08c379a000000000000000000000000000000000000000000000000000000000815260040161032990610dae565b60405180910390fd5b600061034c6001808054905061069990919063ffffffff16565b9050336002600083815260200190815260200160002060006101000a81548173ffffffffffffffffffffffffffffffffffffffff021916908373ffffffffffffffffffffffffffffffffffffffff160217905550600360003373ffffffffffffffffffffffffffffffffffffffff1673ffffffffffffffffffffffffffffffffffffffff1681526020019081526020016000208190806001815401808255809150506001900390600052602060002001600090919091909150557f067c1b8999473c496ecef075b41bfd7fb76764f4329db144e64c9a31e9f93cec818a3360405161043993929190610dce565b60405180910390a180915050979650505050505050565b60026020528060005260406000206000915054906101000a900473ffffffffffffffffffffffffffffffffffffffff1681565b6001818154811061049357600080fd5b90600052602060002090600902016000915090508060000180546104b690610e3b565b80601f01602080910402602001604051908101604052809291908181526020018280546104e290610e3b565b801561052f5780601f106105045761010080835404028352916020019161052f565b820191906000526020600020905b81548152906001019060200180831161051257829003601f168201915b50505050509080600101805461054490610e3b565b80601f016020809104026020016040519081016040528092919081815260200182805461057090610e3b565b80156105bd5780601f10610592576101008083540402835291602001916105bd565b820191906000526020600020905b8154815290600101906020018083116105a057829003601f168201915b5050505050908060020180546105d290610e3b565b80601f01602080910402602001604051908101604052809291908181526020018280546105fe90610e3b565b801561064b5780601f106106205761010080835404028352916020019161064b565b820191906000526020600020905b81548152906001019060200180831161062e57829003601f168201915b5050505050908060030154908060040154908060050154908060060154908060070154908060080160009054906101000a900473ffffffffffffffffffffffffffffffffffffffff16905089565b600081836106a79190610e6d565b905092915050565b8280546106bb90610e3b565b90600052602060002090601f0160209004810192826106dd5760008555610724565b82601f106106f657805160ff1916838001178555610724565b82800160010185558215610724579182015b82811115610723578251825591602001919060010190610708565b5b5090506107319190610735565b5090565b5b8082111561074e576000816000905550600101610736565b5090565b6000604051905090565b600080fd5b600080fd5b600073ffffffffffffffffffffffffffffffffffffffff82169050919050565b600061079182610766565b9050919050565b6107a181610786565b81146107ac57600080fd5b50565b6000813590506107be81610798565b92915050565b6000819050919050565b6107d7816107c4565b81146107e257600080fd5b50565b6000813590506107f4816107ce565b92915050565b600080604083850312156108115761081061075c565b5b600061081f858286016107af565b9250506020610830858286016107e5565b9150509250929050565b610843816107c4565b82525050565b600060208201905061085e600083018461083a565b92915050565b600080fd5b600080fd5b6000601f19601f8301169050919050565b7f4e487b7100000000000000000000000000000000000000000000000000000000600052604160045260246000fd5b6108b78261086e565b810181811067ffffffffffffffff821117156108d6576108d561087f565b5b80604052505050565b60006108e9610752565b90506108f582826108ae565b919050565b600067ffffffffffffffff8211156109155761091461087f565b5b61091e8261086e565b9050602081019050919050565b82818337600083830152505050565b600061094d610948846108fa565b6108df565b90508281526020810184848401111561096957610968610869565b5b61097484828561092b565b509392505050565b600082601f83011261099157610990610864565b5b81356109a184826020860161093a565b91505092915050565b600080600080600080600060e0888a0312156109c9576109c861075c565b5b600088013567ffffffffffffffff8111156109e7576109e6610761565b5b6109f38a828b0161097c565b975050602088013567ffffffffffffffff811115610a1457610a13610761565b5b610a208a828b0161097c565b965050604088013567ffffffffffffffff811115610a4157610a40610761565b5b610a4d8a828b0161097c565b9550506060610a5e8a828b016107e5565b9450506080610a6f8a828b016107e5565b93505060a0610a808a828b016107e5565b92505060c0610a918a828b016107e5565b91505092959891949750929550565b600060208284031215610ab657610ab561075c565b5b6000610ac4848285016107e5565b91505092915050565b610ad681610786565b82525050565b6000602082019050610af16000830184610acd565b92915050565b600081519050919050565b600082825260208201905092915050565b60005b83811015610b31578082015181840152602081019050610b16565b83811115610b40576000848401525b50505050565b6000610b5182610af7565b610b5b8185610b02565b9350610b6b818560208601610b13565b610b748161086e565b840191505092915050565b6000610120820190508181036000830152610b9a818c610b46565b90508181036020830152610bae818b610b46565b90508181036040830152610bc2818a610b46565b9050610bd1606083018961083a565b610bde608083018861083a565b610beb60a083018761083a565b610bf860c083018661083a565b610c0560e083018561083a565b610c13610100830184610acd565b9a9950505050505050505050565b7f4e487b7100000000000000000000000000000000000000000000000000000000600052601160045260246000fd5b6000610c5b826107c4565b9150610c66836107c4565b9250817fffffffffffffffffffffffffffffffffffffffffffffffffffffffffffffffff0483118215151615610c9f57610c9e610c21565b5b828202905092915050565b7f54686520626567696e54696d65206d75737420626520616674657220626c6f6360008201527f6b2074696d657374616d702e0000000000000000000000000000000000000000602082015250565b6000610d06602c83610b02565b9150610d1182610caa565b604082019050919050565b60006020820190508181036000830152610d3581610cf9565b9050919050565b7f54686520626567696e54696d65206d757374206265206265666f72652074686560008201527f20656e6454696d652e0000000000000000000000000000000000000000000000602082015250565b6000610d98602983610b02565b9150610da382610d3c565b604082019050919050565b60006020820190508181036000830152610dc781610d8b565b9050919050565b6000606082019050610de3600083018661083a565b8181036020830152610df58185610b46565b9050610e046040830184610acd565b949350505050565b7f4e487b7100000000000000000000000000000000000000000000000000000000600052602260045260246000fd5b60006002820490506001821680610e5357607f821691505b60208210811415610e6757610e66610e0c565b5b50919050565b6000610e78826107c4565b9150610e83836107c4565b925082821015610e9657610e95610c21565b5b82820390509291505056fea2646970667358221220c8e93dbadc3566f9fe94f25dc28de352c7ae19f276a82159633ffa3286b2709364736f6c634300080b0033",
  "immutableReferences": {},
  "source": "// SPDX-License-Identifier: MIT\npragma solidity 0.8.11;\nimport \"@openzeppelin/contracts/utils/math/SafeMath.sol\";\ncontract FundingFactory {\n    using SafeMath for uint256;\n\n    event CreateFunding(uint id, string title, address owner);\n\n    uint coinUnit = 1 wei;\n\n    struct Funding {\n        string title;\n        string subTitle;\n        string content;\n        uint currentAmount;\n        uint availableMinAmount;\n        uint goalAmount;\n        uint beginTime;\n        uint endTime;\n        address fundraiser;\n    }\n\n    Funding[] public fundings;\n\n    mapping (uint=>address) public fundingToFundraiser;\n    mapping (address=>uint[]) public addressToFundingIds;\n\n    function createFunding(\n        string memory _title,\n        string memory _subTitle,\n        string memory _content,\n        uint _goalAmount,\n        uint _availableMinAmount,\n        uint _beginTime,\n        uint _endTime) external returns(uint) {\n        fundings.push(\n            Funding(_title, _subTitle, _content, 0, _availableMinAmount * coinUnit, _goalAmount, _beginTime, _endTime, msg.sender)\n        );\n        require(block.timestamp < _beginTime, \"The beginTime must be after block timestamp.\");\n        require(_beginTime < _endTime, \"The beginTime must be before the endTime.\");\n        uint id = fundings.length.sub(1);\n        fundingToFundraiser[id] = msg.sender;\n        addressToFundingIds[msg.sender].push(id);\n        emit CreateFunding(id, _title, msg.sender);\n        return id;\n    }\n}\n",
  "sourcePath": "/home/user/Develope/crowd-funding/contracts/FundingFactory.sol",
  "compiler": {
    "name": "solc",
    "version": "0.8.11+commit.d7f03943.Emscripten.clang"
  },
  "schemaVersion": "3.4.5",
  "updatedAt": "2022-02-28T10:59:38.152Z",
  "devdoc": {
    "kind": "dev",
    "methods": {},
    "version": 1
  },
  "userdoc": {
    "kind": "user",
    "methods": {},
    "version": 1
  }
}