{
  "contractName": "FundraiserHandler",
  "abi": [
    {
      "anonymous": false,
      "inputs": [
        {
          "indexed": false,
          "internalType": "uint256",
          "name": "id",
          "type": "uint256"
        },
        {
          "indexed": false,
          "internalType": "string",
          "name": "title",
          "type": "string"
        },
        {
          "indexed": false,
          "internalType": "address",
          "name": "owner",
          "type": "address"
        },
        {
          "indexed": false,
          "internalType": "uint256",
          "name": "goalAmount",
          "type": "uint256"
        },
        {
          "indexed": false,
          "internalType": "uint256",
          "name": "beginTime",
          "type": "uint256"
        },
        {
          "indexed": false,
          "internalType": "uint256",
          "name": "endTime",
          "type": "uint256"
        }
      ],
      "name": "CreateFunding",
      "type": "event"
    },
    {
      "anonymous": false,
      "inputs": [
        {
          "indexed": false,
          "internalType": "address",
          "name": "fundraiser",
          "type": "address"
        },
        {
          "indexed": false,
          "internalType": "uint256",
          "name": "amount",
          "type": "uint256"
        },
        {
          "indexed": false,
          "internalType": "uint256",
          "name": "time",
          "type": "uint256"
        }
      ],
      "name": "WithdrawAsFundraiser",
      "type": "event"
    },
    {
      "inputs": [
        {
          "internalType": "address",
          "name": "",
          "type": "address"
        },
        {
          "internalType": "uint256",
          "name": "",
          "type": "uint256"
        }
      ],
      "name": "addressToFundingIds",
      "outputs": [
        {
          "internalType": "uint256",
          "name": "",
          "type": "uint256"
        }
      ],
      "stateMutability": "view",
      "type": "function"
    },
    {
      "inputs": [
        {
          "internalType": "string",
          "name": "_title",
          "type": "string"
        },
        {
          "internalType": "string",
          "name": "_subTitle",
          "type": "string"
        },
        {
          "internalType": "string",
          "name": "_content",
          "type": "string"
        },
        {
          "internalType": "uint256",
          "name": "_goalAmount",
          "type": "uint256"
        },
        {
          "internalType": "uint256",
          "name": "_availableMinAmount",
          "type": "uint256"
        },
        {
          "internalType": "uint256",
          "name": "_beginTime",
          "type": "uint256"
        },
        {
          "internalType": "uint256",
          "name": "_endTime",
          "type": "uint256"
        }
      ],
      "name": "createFunding",
      "outputs": [
        {
          "internalType": "uint256",
          "name": "",
          "type": "uint256"
        }
      ],
      "stateMutability": "nonpayable",
      "type": "function"
    },
    {
      "inputs": [
        {
          "internalType": "uint256",
          "name": "",
          "type": "uint256"
        }
      ],
      "name": "fundingToFundraiser",
      "outputs": [
        {
          "internalType": "address",
          "name": "",
          "type": "address"
        }
      ],
      "stateMutability": "view",
      "type": "function"
    },
    {
      "inputs": [
        {
          "internalType": "uint256",
          "name": "",
          "type": "uint256"
        }
      ],
      "name": "fundings",
      "outputs": [
        {
          "internalType": "string",
          "name": "title",
          "type": "string"
        },
        {
          "internalType": "string",
          "name": "subTitle",
          "type": "string"
        },
        {
          "internalType": "string",
          "name": "content",
          "type": "string"
        },
        {
          "internalType": "uint256",
          "name": "currentAmount",
          "type": "uint256"
        },
        {
          "internalType": "uint256",
          "name": "availableMinAmount",
          "type": "uint256"
        },
        {
          "internalType": "uint256",
          "name": "goalAmount",
          "type": "uint256"
        },
        {
          "internalType": "uint256",
          "name": "beginTime",
          "type": "uint256"
        },
        {
          "internalType": "uint256",
          "name": "endTime",
          "type": "uint256"
        },
        {
          "internalType": "address",
          "name": "fundraiser",
          "type": "address"
        }
      ],
      "stateMutability": "view",
      "type": "function"
    },
    {
      "inputs": [
        {
          "internalType": "uint256",
          "name": "_fundingId",
          "type": "uint256"
        },
        {
          "internalType": "uint256",
          "name": "_availableMinAmount",
          "type": "uint256"
        }
      ],
      "name": "setAvailableMinAmount",
      "outputs": [],
      "stateMutability": "nonpayable",
      "type": "function"
    },
    {
      "inputs": [
        {
          "internalType": "uint256",
          "name": "_fundingId",
          "type": "uint256"
        }
      ],
      "name": "withdrawAsFundraiser",
      "outputs": [],
      "stateMutability": "nonpayable",
      "type": "function"
    }
  ],
  "bytecode": "0x6080604052600160005534801561001557600080fd5b506115af806100256000396000f3fe608060405234801561001057600080fd5b50600436106100625760003560e01c80633ba7cb6114610067578063513cdb8c146100835780635ad868f61461009f578063b9e1b880146100cf578063c385e902146100ff578063d13cb1fb1461012f575b600080fd5b610081600480360381019061007c9190610ba8565b610167565b005b61009d60048036038101906100989190610be8565b610257565b005b6100b960048036038101906100b49190610c73565b610467565b6040516100c69190610cc2565b60405180910390f35b6100e960048036038101906100e49190610e23565b610498565b6040516100f69190610cc2565b60405180910390f35b61011960048036038101906101149190610be8565b6107e6565b6040516101269190610f28565b60405180910390f35b61014960048036038101906101449190610be8565b610819565b60405161015e99989796959493929190610fcb565b60405180910390f35b816001818154811061017c5761017b61106d565b5b906000526020600020906009020160080160009054906101000a900473ffffffffffffffffffffffffffffffffffffffff1673ffffffffffffffffffffffffffffffffffffffff163373ffffffffffffffffffffffffffffffffffffffff16146101e557600080fd5b60008211610228576040517f08c379a000000000000000000000000000000000000000000000000000000000815260040161021f9061110e565b60405180910390fd5b816001848154811061023d5761023c61106d565b5b906000526020600020906009020160040181905550505050565b803373ffffffffffffffffffffffffffffffffffffffff16600182815481106102835761028261106d565b5b906000526020600020906009020160080160009054906101000a900473ffffffffffffffffffffffffffffffffffffffff1673ffffffffffffffffffffffffffffffffffffffff16146102d557600080fd5b600181815481106102e9576102e861106d565b5b9060005260206000209060090201600301546001828154811061030f5761030e61106d565b5b906000526020600020906009020160050154111561032c57600080fd5b42600182815481106103415761034061106d565b5b906000526020600020906009020160070154111561035e57600080fd5b600061038e600184815481106103775761037661106d565b5b906000526020600020906009020160030154610a2f565b9050806103d0576040517f08c379a00000000000000000000000000000000000000000000000000000000081526004016103c7906111a0565b60405180910390fd5b8015610462577f6552b24c7831225bf26325677522a862ef60cd568d63797a8bc9bb811c991a43336001858154811061040c5761040b61106d565b5b9060005260206000209060090201600301544260405161042e939291906111c0565b60405180910390a160006001848154811061044c5761044b61106d565b5b9060005260206000209060090201600301819055505b505050565b6003602052816000526040600020818154811061048357600080fd5b90600052602060002001600091509150505481565b60008242106104dc576040517f08c379a00000000000000000000000000000000000000000000000000000000081526004016104d390611269565b60405180910390fd5b81831061051e576040517f08c379a0000000000000000000000000000000000000000000000000000000008152600401610515906112fb565b60405180910390fd5b838511610560576040517f08c379a00000000000000000000000000000000000000000000000000000000081526004016105579061138d565b60405180910390fd5b60016040518061012001604052808a8152602001898152602001888152602001600081526020016000548761059591906113dc565b81526020018781526020018581526020018481526020013373ffffffffffffffffffffffffffffffffffffffff168152509080600181540180825580915050600190039060005260206000209060090201600090919091909150600082015181600001908051906020019061060b929190610abb565b506020820151816001019080519060200190610628929190610abb565b506040820151816002019080519060200190610645929190610abb565b50606082015181600301556080820151816004015560a0820151816005015560c0820151816006015560e082015181600701556101008201518160080160006101000a81548173ffffffffffffffffffffffffffffffffffffffff021916908373ffffffffffffffffffffffffffffffffffffffff160217905550505060006106dc60018080549050610aa590919063ffffffff16565b9050336002600083815260200190815260200160002060006101000a81548173ffffffffffffffffffffffffffffffffffffffff021916908373ffffffffffffffffffffffffffffffffffffffff160217905550600360003373ffffffffffffffffffffffffffffffffffffffff1673ffffffffffffffffffffffffffffffffffffffff1681526020019081526020016000208190806001815401808255809150506001900390600052602060002001600090919091909150557ff4d14b13a885fbfb9d8e330bc8926f9a6eef30045a65f60bfdf67ed3eb22b82e818a338988886040516107cf96959493929190611436565b60405180910390a180915050979650505050505050565b60026020528060005260406000206000915054906101000a900473ffffffffffffffffffffffffffffffffffffffff1681565b6001818154811061082957600080fd5b906000526020600020906009020160009150905080600001805461084c906114cd565b80601f0160208091040260200160405190810160405280929190818152602001828054610878906114cd565b80156108c55780601f1061089a576101008083540402835291602001916108c5565b820191906000526020600020905b8154815290600101906020018083116108a857829003601f168201915b5050505050908060010180546108da906114cd565b80601f0160208091040260200160405190810160405280929190818152602001828054610906906114cd565b80156109535780601f1061092857610100808354040283529160200191610953565b820191906000526020600020905b81548152906001019060200180831161093657829003601f168201915b505050505090806002018054610968906114cd565b80601f0160208091040260200160405190810160405280929190818152602001828054610994906114cd565b80156109e15780601f106109b6576101008083540402835291602001916109e1565b820191906000526020600020905b8154815290600101906020018083116109c457829003601f168201915b5050505050908060030154908060040154908060050154908060060154908060070154908060080160009054906101000a900473ffffffffffffffffffffffffffffffffffffffff16905089565b6000803373ffffffffffffffffffffffffffffffffffffffff1683604051610a5690611530565b60006040518083038185875af1925050503d8060008114610a93576040519150601f19603f3d011682016040523d82523d6000602084013e610a98565b606091505b5050905080915050919050565b60008183610ab39190611545565b905092915050565b828054610ac7906114cd565b90600052602060002090601f016020900481019282610ae95760008555610b30565b82601f10610b0257805160ff1916838001178555610b30565b82800160010185558215610b30579182015b82811115610b2f578251825591602001919060010190610b14565b5b509050610b3d9190610b41565b5090565b5b80821115610b5a576000816000905550600101610b42565b5090565b6000604051905090565b600080fd5b600080fd5b6000819050919050565b610b8581610b72565b8114610b9057600080fd5b50565b600081359050610ba281610b7c565b92915050565b60008060408385031215610bbf57610bbe610b68565b5b6000610bcd85828601610b93565b9250506020610bde85828601610b93565b9150509250929050565b600060208284031215610bfe57610bfd610b68565b5b6000610c0c84828501610b93565b91505092915050565b600073ffffffffffffffffffffffffffffffffffffffff82169050919050565b6000610c4082610c15565b9050919050565b610c5081610c35565b8114610c5b57600080fd5b50565b600081359050610c6d81610c47565b92915050565b60008060408385031215610c8a57610c89610b68565b5b6000610c9885828601610c5e565b9250506020610ca985828601610b93565b9150509250929050565b610cbc81610b72565b82525050565b6000602082019050610cd76000830184610cb3565b92915050565b600080fd5b600080fd5b6000601f19601f8301169050919050565b7f4e487b7100000000000000000000000000000000000000000000000000000000600052604160045260246000fd5b610d3082610ce7565b810181811067ffffffffffffffff82111715610d4f57610d4e610cf8565b5b80604052505050565b6000610d62610b5e565b9050610d6e8282610d27565b919050565b600067ffffffffffffffff821115610d8e57610d8d610cf8565b5b610d9782610ce7565b9050602081019050919050565b82818337600083830152505050565b6000610dc6610dc184610d73565b610d58565b905082815260208101848484011115610de257610de1610ce2565b5b610ded848285610da4565b509392505050565b600082601f830112610e0a57610e09610cdd565b5b8135610e1a848260208601610db3565b91505092915050565b600080600080600080600060e0888a031215610e4257610e41610b68565b5b600088013567ffffffffffffffff811115610e6057610e5f610b6d565b5b610e6c8a828b01610df5565b975050602088013567ffffffffffffffff811115610e8d57610e8c610b6d565b5b610e998a828b01610df5565b965050604088013567ffffffffffffffff811115610eba57610eb9610b6d565b5b610ec68a828b01610df5565b9550506060610ed78a828b01610b93565b9450506080610ee88a828b01610b93565b93505060a0610ef98a828b01610b93565b92505060c0610f0a8a828b01610b93565b91505092959891949750929550565b610f2281610c35565b82525050565b6000602082019050610f3d6000830184610f19565b92915050565b600081519050919050565b600082825260208201905092915050565b60005b83811015610f7d578082015181840152602081019050610f62565b83811115610f8c576000848401525b50505050565b6000610f9d82610f43565b610fa78185610f4e565b9350610fb7818560208601610f5f565b610fc081610ce7565b840191505092915050565b6000610120820190508181036000830152610fe6818c610f92565b90508181036020830152610ffa818b610f92565b9050818103604083015261100e818a610f92565b905061101d6060830189610cb3565b61102a6080830188610cb3565b61103760a0830187610cb3565b61104460c0830186610cb3565b61105160e0830185610cb3565b61105f610100830184610f19565b9a9950505050505050505050565b7f4e487b7100000000000000000000000000000000000000000000000000000000600052603260045260246000fd5b7f74686520617661696c61626c654d696e416d6f756e742076616c7565206d757360008201527f74206265207570706572207468616e2030207765692e00000000000000000000602082015250565b60006110f8603683610f4e565b91506111038261109c565b604082019050919050565b60006020820190508181036000830152611127816110eb565b9050919050565b7f7769746864726177206d6574686f6420646f65736e277420776f726b2077656c60008201527f6c2e000000000000000000000000000000000000000000000000000000000000602082015250565b600061118a602283610f4e565b91506111958261112e565b604082019050919050565b600060208201905081810360008301526111b98161117d565b9050919050565b60006060820190506111d56000830186610f19565b6111e26020830185610cb3565b6111ef6040830184610cb3565b949350505050565b7f54686520626567696e54696d65206d75737420626520616674657220626c6f6360008201527f6b2074696d657374616d702e0000000000000000000000000000000000000000602082015250565b6000611253602c83610f4e565b915061125e826111f7565b604082019050919050565b6000602082019050818103600083015261128281611246565b9050919050565b7f54686520626567696e54696d65206d757374206265206265666f72652074686560008201527f20656e6454696d652e0000000000000000000000000000000000000000000000602082015250565b60006112e5602983610f4e565b91506112f082611289565b604082019050919050565b60006020820190508181036000830152611314816112d8565b9050919050565b7f54686520676f616c416d6f756e74206d7573742062652075707065722074686160008201527f6e20617661696c61626c654d696e416d6f756e742e0000000000000000000000602082015250565b6000611377603583610f4e565b91506113828261131b565b604082019050919050565b600060208201905081810360008301526113a68161136a565b9050919050565b7f4e487b7100000000000000000000000000000000000000000000000000000000600052601160045260246000fd5b60006113e782610b72565b91506113f283610b72565b9250817fffffffffffffffffffffffffffffffffffffffffffffffffffffffffffffffff048311821515161561142b5761142a6113ad565b5b828202905092915050565b600060c08201905061144b6000830189610cb3565b818103602083015261145d8188610f92565b905061146c6040830187610f19565b6114796060830186610cb3565b6114866080830185610cb3565b61149360a0830184610cb3565b979650505050505050565b7f4e487b7100000000000000000000000000000000000000000000000000000000600052602260045260246000fd5b600060028204905060018216806114e557607f821691505b602082108114156114f9576114f861149e565b5b50919050565b600081905092915050565b50565b600061151a6000836114ff565b91506115258261150a565b600082019050919050565b600061153b8261150d565b9150819050919050565b600061155082610b72565b915061155b83610b72565b92508282101561156e5761156d6113ad565b5b82820390509291505056fea264697066735822122009796c971b398e6ff95a4f7cbaa2e59d78023ce18e5b2d9d4fce6cf42aa8ebe564736f6c634300080b0033",
  "immutableReferences": {},
  "source": "// SPDX-License-Identifier: MIT\npragma solidity 0.8.11;\nimport \"./FundingHandler.sol\";\n\ncontract FundraiserHandler is FundingHandler {\n    using SafeMath for uint256;\n\n    event WithdrawAsFundraiser(address fundraiser, uint amount, uint time);\n\n    function setAvailableMinAmount(uint _fundingId, uint _availableMinAmount) external ownerOfFunding(_fundingId) {\n        require(_availableMinAmount > 0,\"the availableMinAmount value must be upper than 0 wei.\");\n        fundings[_fundingId].availableMinAmount = _availableMinAmount;\n    }\n\n    function withdrawAsFundraiser(uint _fundingId) external fundingSucceeded(_fundingId) {\n        bool success = withdraw(fundings[_fundingId].currentAmount);\n        require(success,\"withdraw method doesn't work well.\");\n        if(success) {\n            emit WithdrawAsFundraiser(msg.sender, fundings[_fundingId].currentAmount, block.timestamp);\n            fundings[_fundingId].currentAmount = 0;\n        }\n    }\n}\n",
  "sourcePath": "/home/user/Develope/crowd-funding/contracts/FundraiserHandler.sol",
  "compiler": {
    "name": "solc",
    "version": "0.8.11+commit.d7f03943.Emscripten.clang"
  },
  "schemaVersion": "3.4.5",
  "updatedAt": "2022-03-04T15:18:00.656Z",
  "devdoc": {
    "kind": "dev",
    "methods": {},
    "version": 1
  },
  "userdoc": {
    "kind": "user",
    "methods": {},
    "version": 1
  }
}