{
  "contractName": "FunderHandler",
  "abi": [
    {
      "anonymous": false,
      "inputs": [
        {
          "indexed": false,
          "internalType": "uint256",
          "name": "id",
          "type": "uint256"
        },
        {
          "indexed": false,
          "internalType": "string",
          "name": "title",
          "type": "string"
        },
        {
          "indexed": false,
          "internalType": "address",
          "name": "owner",
          "type": "address"
        }
      ],
      "name": "CreateFunding",
      "type": "event"
    },
    {
      "anonymous": false,
      "inputs": [
        {
          "indexed": false,
          "internalType": "address",
          "name": "_address",
          "type": "address"
        },
        {
          "indexed": false,
          "internalType": "uint256",
          "name": "_fundingId",
          "type": "uint256"
        },
        {
          "indexed": false,
          "internalType": "uint256",
          "name": "amount",
          "type": "uint256"
        },
        {
          "indexed": false,
          "internalType": "uint256",
          "name": "date",
          "type": "uint256"
        }
      ],
      "name": "Fund",
      "type": "event"
    },
    {
      "anonymous": false,
      "inputs": [
        {
          "indexed": false,
          "internalType": "address",
          "name": "_address",
          "type": "address"
        },
        {
          "indexed": false,
          "internalType": "uint256",
          "name": "amount",
          "type": "uint256"
        }
      ],
      "name": "WithdrawAsFunder",
      "type": "event"
    },
    {
      "inputs": [
        {
          "internalType": "address",
          "name": "",
          "type": "address"
        },
        {
          "internalType": "uint256",
          "name": "",
          "type": "uint256"
        }
      ],
      "name": "addressToFundedFundingIds",
      "outputs": [
        {
          "internalType": "uint256",
          "name": "",
          "type": "uint256"
        }
      ],
      "stateMutability": "view",
      "type": "function"
    },
    {
      "inputs": [
        {
          "internalType": "address",
          "name": "",
          "type": "address"
        },
        {
          "internalType": "uint256",
          "name": "",
          "type": "uint256"
        },
        {
          "internalType": "uint256",
          "name": "",
          "type": "uint256"
        }
      ],
      "name": "addressToFundingIdToAcoountPapersIds",
      "outputs": [
        {
          "internalType": "uint256",
          "name": "",
          "type": "uint256"
        }
      ],
      "stateMutability": "view",
      "type": "function"
    },
    {
      "inputs": [
        {
          "internalType": "address",
          "name": "",
          "type": "address"
        },
        {
          "internalType": "uint256",
          "name": "",
          "type": "uint256"
        }
      ],
      "name": "addressToFundingIds",
      "outputs": [
        {
          "internalType": "uint256",
          "name": "",
          "type": "uint256"
        }
      ],
      "stateMutability": "view",
      "type": "function"
    },
    {
      "inputs": [
        {
          "internalType": "string",
          "name": "_title",
          "type": "string"
        },
        {
          "internalType": "string",
          "name": "_subTitle",
          "type": "string"
        },
        {
          "internalType": "string",
          "name": "_content",
          "type": "string"
        },
        {
          "internalType": "uint256",
          "name": "_goalAmount",
          "type": "uint256"
        },
        {
          "internalType": "uint256",
          "name": "_availableMinAmount",
          "type": "uint256"
        },
        {
          "internalType": "uint256",
          "name": "_beginTime",
          "type": "uint256"
        },
        {
          "internalType": "uint256",
          "name": "_endTime",
          "type": "uint256"
        }
      ],
      "name": "createFunding",
      "outputs": [
        {
          "internalType": "uint256",
          "name": "",
          "type": "uint256"
        }
      ],
      "stateMutability": "nonpayable",
      "type": "function"
    },
    {
      "inputs": [
        {
          "internalType": "uint256",
          "name": "",
          "type": "uint256"
        },
        {
          "internalType": "uint256",
          "name": "",
          "type": "uint256"
        }
      ],
      "name": "fundingToAccountPapers",
      "outputs": [
        {
          "internalType": "address",
          "name": "funder",
          "type": "address"
        },
        {
          "internalType": "uint256",
          "name": "fundingId",
          "type": "uint256"
        },
        {
          "internalType": "uint256",
          "name": "amount",
          "type": "uint256"
        },
        {
          "internalType": "uint256",
          "name": "date",
          "type": "uint256"
        }
      ],
      "stateMutability": "view",
      "type": "function"
    },
    {
      "inputs": [
        {
          "internalType": "uint256",
          "name": "",
          "type": "uint256"
        }
      ],
      "name": "fundingToFundraiser",
      "outputs": [
        {
          "internalType": "address",
          "name": "",
          "type": "address"
        }
      ],
      "stateMutability": "view",
      "type": "function"
    },
    {
      "inputs": [
        {
          "internalType": "uint256",
          "name": "",
          "type": "uint256"
        }
      ],
      "name": "fundings",
      "outputs": [
        {
          "internalType": "string",
          "name": "title",
          "type": "string"
        },
        {
          "internalType": "string",
          "name": "subTitle",
          "type": "string"
        },
        {
          "internalType": "string",
          "name": "content",
          "type": "string"
        },
        {
          "internalType": "uint256",
          "name": "currentAmount",
          "type": "uint256"
        },
        {
          "internalType": "uint256",
          "name": "availableMinAmount",
          "type": "uint256"
        },
        {
          "internalType": "uint256",
          "name": "goalAmount",
          "type": "uint256"
        },
        {
          "internalType": "uint256",
          "name": "beginTime",
          "type": "uint256"
        },
        {
          "internalType": "uint256",
          "name": "endTime",
          "type": "uint256"
        },
        {
          "internalType": "address",
          "name": "fundraiser",
          "type": "address"
        }
      ],
      "stateMutability": "view",
      "type": "function"
    },
    {
      "inputs": [],
      "name": "getFundings",
      "outputs": [
        {
          "components": [
            {
              "internalType": "string",
              "name": "title",
              "type": "string"
            },
            {
              "internalType": "string",
              "name": "subTitle",
              "type": "string"
            },
            {
              "internalType": "string",
              "name": "content",
              "type": "string"
            },
            {
              "internalType": "uint256",
              "name": "currentAmount",
              "type": "uint256"
            },
            {
              "internalType": "uint256",
              "name": "availableMinAmount",
              "type": "uint256"
            },
            {
              "internalType": "uint256",
              "name": "goalAmount",
              "type": "uint256"
            },
            {
              "internalType": "uint256",
              "name": "beginTime",
              "type": "uint256"
            },
            {
              "internalType": "uint256",
              "name": "endTime",
              "type": "uint256"
            },
            {
              "internalType": "address",
              "name": "fundraiser",
              "type": "address"
            }
          ],
          "internalType": "struct FundingFactory.Funding[]",
          "name": "",
          "type": "tuple[]"
        }
      ],
      "stateMutability": "view",
      "type": "function"
    },
    {
      "inputs": [],
      "name": "getMyFundingList",
      "outputs": [
        {
          "components": [
            {
              "internalType": "string",
              "name": "title",
              "type": "string"
            },
            {
              "internalType": "string",
              "name": "subTitle",
              "type": "string"
            },
            {
              "internalType": "string",
              "name": "content",
              "type": "string"
            },
            {
              "internalType": "uint256",
              "name": "currentAmount",
              "type": "uint256"
            },
            {
              "internalType": "uint256",
              "name": "availableMinAmount",
              "type": "uint256"
            },
            {
              "internalType": "uint256",
              "name": "goalAmount",
              "type": "uint256"
            },
            {
              "internalType": "uint256",
              "name": "beginTime",
              "type": "uint256"
            },
            {
              "internalType": "uint256",
              "name": "endTime",
              "type": "uint256"
            },
            {
              "internalType": "address",
              "name": "fundraiser",
              "type": "address"
            }
          ],
          "internalType": "struct FundingFactory.Funding[]",
          "name": "",
          "type": "tuple[]"
        }
      ],
      "stateMutability": "view",
      "type": "function"
    },
    {
      "inputs": [
        {
          "internalType": "uint256",
          "name": "_fundingId",
          "type": "uint256"
        }
      ],
      "name": "fund",
      "outputs": [],
      "stateMutability": "payable",
      "type": "function"
    },
    {
      "inputs": [
        {
          "internalType": "address payable",
          "name": "_address",
          "type": "address"
        },
        {
          "internalType": "uint256",
          "name": "_fundingId",
          "type": "uint256"
        }
      ],
      "name": "withdrawAsFunder",
      "outputs": [],
      "stateMutability": "nonpayable",
      "type": "function"
    },
    {
      "inputs": [
        {
          "internalType": "uint256",
          "name": "_fundingId",
          "type": "uint256"
        }
      ],
      "name": "getMyFundingAccountPapers",
      "outputs": [
        {
          "components": [
            {
              "internalType": "address",
              "name": "funder",
              "type": "address"
            },
            {
              "internalType": "uint256",
              "name": "fundingId",
              "type": "uint256"
            },
            {
              "internalType": "uint256",
              "name": "amount",
              "type": "uint256"
            },
            {
              "internalType": "uint256",
              "name": "date",
              "type": "uint256"
            }
          ],
          "internalType": "struct FunderHandler.AccountPaper[]",
          "name": "",
          "type": "tuple[]"
        }
      ],
      "stateMutability": "view",
      "type": "function"
    }
  ],
  "bytecode": "0x6080604052600160005534801561001557600080fd5b50612f73806100256000396000f3fe6080604052600436106100a75760003560e01c8063af50498e11610064578063af50498e146101f4578063b9e1b88014610234578063c18d0cf214610271578063c385e9021461029c578063ca1d209d146102d9578063d13cb1fb146102f5576100a7565b80630127bd96146100ac57806315644b76146100d5578063359ef97d146101125780634696a8d71461014f5780635ad868f61461017a5780639f23c821146101b7575b600080fd5b3480156100b857600080fd5b506100d360048036038101906100ce9190611f7c565b61033a565b005b3480156100e157600080fd5b506100fc60048036038101906100f79190611fbc565b6106db565b604051610109919061211d565b60405180910390f35b34801561011e57600080fd5b506101396004803603810190610134919061216b565b610938565b60405161014691906121cd565b60405180910390f35b34801561015b57600080fd5b50610164610976565b6040516101719190612416565b60405180910390f35b34801561018657600080fd5b506101a1600480360381019061019c9190612438565b610c14565b6040516101ae91906121cd565b60405180910390f35b3480156101c357600080fd5b506101de60048036038101906101d99190612438565b610c45565b6040516101eb91906121cd565b60405180910390f35b34801561020057600080fd5b5061021b60048036038101906102169190612478565b610c76565b60405161022b94939291906124c7565b60405180910390f35b34801561024057600080fd5b5061025b60048036038101906102569190612641565b610ce3565b60405161026891906121cd565b60405180910390f35b34801561027d57600080fd5b50610286610fe9565b6040516102939190612416565b60405180910390f35b3480156102a857600080fd5b506102c360048036038101906102be9190611fbc565b6113a2565b6040516102d09190612737565b60405180910390f35b6102f360048036038101906102ee9190611fbc565b6113d5565b005b34801561030157600080fd5b5061031c60048036038101906103179190611fbc565b6117b3565b6040516103319998979695949392919061279c565b60405180910390f35b806000600660003373ffffffffffffffffffffffffffffffffffffffff1673ffffffffffffffffffffffffffffffffffffffff1681526020019081526020016000206000838152602001908152602001600020805490501161039b57600080fd5b816000429050600081600184815481106103b8576103b761283e565b5b9060005260206000209060090201600601541080156103fb5750600183815481106103e6576103e561283e565b5b90600052602060002090600902016007015482105b9050600082600185815481106104145761041361283e565b5b90600052602060002090600902016007015410801561047c5750600184815481106104425761044161283e565b5b906000526020600020906009020160030154600185815481106104685761046761283e565b5b906000526020600020906009020160050154105b905081806104875750805b6104c6576040517f08c379a00000000000000000000000000000000000000000000000000000000081526004016104bd906128df565b60405180910390fd5b6000600660003373ffffffffffffffffffffffffffffffffffffffff1673ffffffffffffffffffffffffffffffffffffffff1681526020019081526020016000206000888152602001908152602001600020805490501161055c576040517f08c379a000000000000000000000000000000000000000000000000000000000815260040161055390612971565b60405180910390fd5b600080600090505b600660003373ffffffffffffffffffffffffffffffffffffffff1673ffffffffffffffffffffffffffffffffffffffff1681526020019081526020016000206000898152602001908152602001600020805490508110156105ef576105da6105cb896119c9565b83611aec90919063ffffffff16565b915080806105e7906129c0565b915050610564565b5061062881600189815481106106085761060761283e565b5b906000526020600020906009020160030154611b0290919063ffffffff16565b6001888154811061063c5761063b61283e565b5b9060005260206000209060090201600301819055508773ffffffffffffffffffffffffffffffffffffffff166108fc829081150290604051600060405180830381858888f19350505050158015610697573d6000803e3d6000fd5b507f8b44624ed77d3aba37528007e957b3364e912e373b37b367bf5bd578d226747a88826040516106c9929190612a68565b60405180910390a15050505050505050565b60606000600660003373ffffffffffffffffffffffffffffffffffffffff1673ffffffffffffffffffffffffffffffffffffffff168152602001908152602001600020600084815260200190815260200160002080548060200260200160405190810160405280929190818152602001828054801561077957602002820191906000526020600020905b815481526020019060010190808311610765575b50505050509050600060046000858152602001908152602001600020805480602002602001604051908101604052809291908181526020016000905b8282101561085b57838290600052602060002090600402016040518060800160405290816000820160009054906101000a900473ffffffffffffffffffffffffffffffffffffffff1673ffffffffffffffffffffffffffffffffffffffff1673ffffffffffffffffffffffffffffffffffffffff1681526020016001820154815260200160028201548152602001600382015481525050815260200190600101906107b5565b5050505090506000825167ffffffffffffffff81111561087e5761087d612516565b5b6040519080825280602002602001820160405280156108b757816020015b6108a4611d91565b81526020019060019003908161089c5790505b50905060005b835181101561092c57828482815181106108da576108d961283e565b5b6020026020010151815181106108f3576108f261283e565b5b602002602001015182828151811061090e5761090d61283e565b5b60200260200101819052508080610924906129c0565b9150506108bd565b50809350505050919050565b6006602052826000526040600020602052816000526040600020818154811061096057600080fd5b9060005260206000200160009250925050505481565b60606001805480602002602001604051908101604052809291908181526020016000905b82821015610c0b5783829060005260206000209060090201604051806101200160405290816000820180546109ce90612ac0565b80601f01602080910402602001604051908101604052809291908181526020018280546109fa90612ac0565b8015610a475780601f10610a1c57610100808354040283529160200191610a47565b820191906000526020600020905b815481529060010190602001808311610a2a57829003601f168201915b50505050508152602001600182018054610a6090612ac0565b80601f0160208091040260200160405190810160405280929190818152602001828054610a8c90612ac0565b8015610ad95780601f10610aae57610100808354040283529160200191610ad9565b820191906000526020600020905b815481529060010190602001808311610abc57829003601f168201915b50505050508152602001600282018054610af290612ac0565b80601f0160208091040260200160405190810160405280929190818152602001828054610b1e90612ac0565b8015610b6b5780601f10610b4057610100808354040283529160200191610b6b565b820191906000526020600020905b815481529060010190602001808311610b4e57829003601f168201915b5050505050815260200160038201548152602001600482015481526020016005820154815260200160068201548152602001600782015481526020016008820160009054906101000a900473ffffffffffffffffffffffffffffffffffffffff1673ffffffffffffffffffffffffffffffffffffffff1673ffffffffffffffffffffffffffffffffffffffff16815250508152602001906001019061099a565b50505050905090565b60036020528160005260406000208181548110610c3057600080fd5b90600052602060002001600091509150505481565b60056020528160005260406000208181548110610c6157600080fd5b90600052602060002001600091509150505481565b60046020528160005260406000208181548110610c9257600080fd5b9060005260206000209060040201600091509150508060000160009054906101000a900473ffffffffffffffffffffffffffffffffffffffff16908060010154908060020154908060030154905084565b600060016040518061012001604052808a81526020018981526020018881526020016000815260200160005487610d1a9190612af2565b81526020018781526020018581526020018481526020013373ffffffffffffffffffffffffffffffffffffffff1681525090806001815401808255809150506001900390600052602060002090600902016000909190919091506000820151816000019080519060200190610d90929190611dcf565b506020820151816001019080519060200190610dad929190611dcf565b506040820151816002019080519060200190610dca929190611dcf565b50606082015181600301556080820151816004015560a0820151816005015560c0820151816006015560e082015181600701556101008201518160080160006101000a81548173ffffffffffffffffffffffffffffffffffffffff021916908373ffffffffffffffffffffffffffffffffffffffff1602179055505050824210610e89576040517f08c379a0000000000000000000000000000000000000000000000000000000008152600401610e8090612bbe565b60405180910390fd5b818310610ecb576040517f08c379a0000000000000000000000000000000000000000000000000000000008152600401610ec290612c50565b60405180910390fd5b6000610ee560018080549050611b0290919063ffffffff16565b9050336002600083815260200190815260200160002060006101000a81548173ffffffffffffffffffffffffffffffffffffffff021916908373ffffffffffffffffffffffffffffffffffffffff160217905550600360003373ffffffffffffffffffffffffffffffffffffffff1673ffffffffffffffffffffffffffffffffffffffff1681526020019081526020016000208190806001815401808255809150506001900390600052602060002001600090919091909150557f067c1b8999473c496ecef075b41bfd7fb76764f4329db144e64c9a31e9f93cec818a33604051610fd293929190612c70565b60405180910390a180915050979650505050505050565b60606000600360003373ffffffffffffffffffffffffffffffffffffffff1673ffffffffffffffffffffffffffffffffffffffff16815260200190815260200160002080548060200260200160405190810160405280929190818152602001828054801561107657602002820191906000526020600020905b815481526020019060010190808311611062575b505050505090506000815167ffffffffffffffff81111561109a57611099612516565b5b6040519080825280602002602001820160405280156110d357816020015b6110c0611e55565b8152602001906001900390816110b85790505b50905060005b82518110156113995760018382815181106110f7576110f661283e565b5b6020026020010151815481106111105761110f61283e565b5b90600052602060002090600902016040518061012001604052908160008201805461113a90612ac0565b80601f016020809104026020016040519081016040528092919081815260200182805461116690612ac0565b80156111b35780601f10611188576101008083540402835291602001916111b3565b820191906000526020600020905b81548152906001019060200180831161119657829003601f168201915b505050505081526020016001820180546111cc90612ac0565b80601f01602080910402602001604051908101604052809291908181526020018280546111f890612ac0565b80156112455780601f1061121a57610100808354040283529160200191611245565b820191906000526020600020905b81548152906001019060200180831161122857829003601f168201915b5050505050815260200160028201805461125e90612ac0565b80601f016020809104026020016040519081016040528092919081815260200182805461128a90612ac0565b80156112d75780601f106112ac576101008083540402835291602001916112d7565b820191906000526020600020905b8154815290600101906020018083116112ba57829003601f168201915b5050505050815260200160038201548152602001600482015481526020016005820154815260200160068201548152602001600782015481526020016008820160009054906101000a900473ffffffffffffffffffffffffffffffffffffffff1673ffffffffffffffffffffffffffffffffffffffff1673ffffffffffffffffffffffffffffffffffffffff168152505082828151811061137b5761137a61283e565b5b60200260200101819052508080611391906129c0565b9150506110d9565b50809250505090565b60026020528060005260406000206000915054906101000a900473ffffffffffffffffffffffffffffffffffffffff1681565b80600042905080600183815481106113f0576113ef61283e565b5b90600052602060002090600902016006015410611442576040517f08c379a000000000000000000000000000000000000000000000000000000000815260040161143990612cfa565b60405180910390fd5b600182815481106114565761145561283e565b5b90600052602060002090600902016007015481106114a9576040517f08c379a00000000000000000000000000000000000000000000000000000000081526004016114a090612d66565b60405180910390fd5b34600054600184815481106114c1576114c061283e565b5b9060005260206000209060090201600401546114dd9190612af2565b111561151e576040517f08c379a000000000000000000000000000000000000000000000000000000000815260040161151590612df8565b60405180910390fd5b6000429050600034905061156081600187815481106115405761153f61283e565b5b906000526020600020906009020160030154611aec90919063ffffffff16565b600186815481106115745761157361283e565b5b906000526020600020906009020160030181905550600060405180608001604052803373ffffffffffffffffffffffffffffffffffffffff1681526020018781526020018381526020018481525090506004600087815260200190815260200160002081908060018154018082558091505060019003906000526020600020906004020160009091909190915060008201518160000160006101000a81548173ffffffffffffffffffffffffffffffffffffffff021916908373ffffffffffffffffffffffffffffffffffffffff1602179055506020820151816001015560408201518160020155606082015181600301555050600560003373ffffffffffffffffffffffffffffffffffffffff1673ffffffffffffffffffffffffffffffffffffffff168152602001908152602001600020869080600181540180825580915050600190039060005260206000200160009091909190915055600660003373ffffffffffffffffffffffffffffffffffffffff1673ffffffffffffffffffffffffffffffffffffffff16815260200190815260200160002060008781526020019081526020016000206117486001600460008a815260200190815260200160002080549050611b0290919063ffffffff16565b90806001815401808255809150506001900390600052602060002001600090919091909150557f5570b9603539479ab41b78451afd6c57c24197e1ca6a1e74436daefe1d658764338784866040516117a394939291906124c7565b60405180910390a1505050505050565b600181815481106117c357600080fd5b90600052602060002090600902016000915090508060000180546117e690612ac0565b80601f016020809104026020016040519081016040528092919081815260200182805461181290612ac0565b801561185f5780601f106118345761010080835404028352916020019161185f565b820191906000526020600020905b81548152906001019060200180831161184257829003601f168201915b50505050509080600101805461187490612ac0565b80601f01602080910402602001604051908101604052809291908181526020018280546118a090612ac0565b80156118ed5780601f106118c2576101008083540402835291602001916118ed565b820191906000526020600020905b8154815290600101906020018083116118d057829003601f168201915b50505050509080600201805461190290612ac0565b80601f016020809104026020016040519081016040528092919081815260200182805461192e90612ac0565b801561197b5780601f106119505761010080835404028352916020019161197b565b820191906000526020600020905b81548152906001019060200180831161195e57829003601f168201915b5050505050908060030154908060040154908060050154908060060154908060070154908060080160009054906101000a900473ffffffffffffffffffffffffffffffffffffffff16905089565b600080600660003373ffffffffffffffffffffffffffffffffffffffff1673ffffffffffffffffffffffffffffffffffffffff16815260200190815260200160002060008481526020019081526020016000208054905011611a2a57600080fd5b6000600660003373ffffffffffffffffffffffffffffffffffffffff1673ffffffffffffffffffffffffffffffffffffffff1681526020019081526020016000206000848152602001908152602001600020600081548110611a8f57611a8e61283e565b5b906000526020600020015490506000600460008581526020019081526020016000208281548110611ac357611ac261283e565b5b9060005260206000209060040201600201549050611ae2846000611b18565b8092505050919050565b60008183611afa9190612e18565b905092915050565b60008183611b109190612e6e565b905092915050565b600660003373ffffffffffffffffffffffffffffffffffffffff1673ffffffffffffffffffffffffffffffffffffffff1681526020019081526020016000206000838152602001908152602001600020805490508110611bad576040517f08c379a0000000000000000000000000000000000000000000000000000000008152600401611ba490612eee565b60405180910390fd5b60008190505b6001600660003373ffffffffffffffffffffffffffffffffffffffff1673ffffffffffffffffffffffffffffffffffffffff168152602001908152602001600020600085815260200190815260200160002080549050611c139190612e6e565b811015611d1657600660003373ffffffffffffffffffffffffffffffffffffffff1673ffffffffffffffffffffffffffffffffffffffff1681526020019081526020016000206000848152602001908152602001600020600182611c779190612e18565b81548110611c8857611c8761283e565b5b9060005260206000200154600660003373ffffffffffffffffffffffffffffffffffffffff1673ffffffffffffffffffffffffffffffffffffffff16815260200190815260200160002060008581526020019081526020016000208281548110611cf557611cf461283e565b5b90600052602060002001819055508080611d0e906129c0565b915050611bb3565b50600660003373ffffffffffffffffffffffffffffffffffffffff1673ffffffffffffffffffffffffffffffffffffffff1681526020019081526020016000206000838152602001908152602001600020805480611d7757611d76612f0e565b5b600190038181906000526020600020016000905590555050565b6040518060800160405280600073ffffffffffffffffffffffffffffffffffffffff1681526020016000815260200160008152602001600081525090565b828054611ddb90612ac0565b90600052602060002090601f016020900481019282611dfd5760008555611e44565b82601f10611e1657805160ff1916838001178555611e44565b82800160010185558215611e44579182015b82811115611e43578251825591602001919060010190611e28565b5b509050611e519190611eb7565b5090565b6040518061012001604052806060815260200160608152602001606081526020016000815260200160008152602001600081526020016000815260200160008152602001600073ffffffffffffffffffffffffffffffffffffffff1681525090565b5b80821115611ed0576000816000905550600101611eb8565b5090565b6000604051905090565b600080fd5b600080fd5b600073ffffffffffffffffffffffffffffffffffffffff82169050919050565b6000611f1382611ee8565b9050919050565b611f2381611f08565b8114611f2e57600080fd5b50565b600081359050611f4081611f1a565b92915050565b6000819050919050565b611f5981611f46565b8114611f6457600080fd5b50565b600081359050611f7681611f50565b92915050565b60008060408385031215611f9357611f92611ede565b5b6000611fa185828601611f31565b9250506020611fb285828601611f67565b9150509250929050565b600060208284031215611fd257611fd1611ede565b5b6000611fe084828501611f67565b91505092915050565b600081519050919050565b600082825260208201905092915050565b6000819050602082019050919050565b600061202082611ee8565b9050919050565b61203081612015565b82525050565b61203f81611f46565b82525050565b60808201600082015161205b6000850182612027565b50602082015161206e6020850182612036565b5060408201516120816040850182612036565b5060608201516120946060850182612036565b50505050565b60006120a68383612045565b60808301905092915050565b6000602082019050919050565b60006120ca82611fe9565b6120d48185611ff4565b93506120df83612005565b8060005b838110156121105781516120f7888261209a565b9750612102836120b2565b9250506001810190506120e3565b5085935050505092915050565b6000602082019050818103600083015261213781846120bf565b905092915050565b61214881612015565b811461215357600080fd5b50565b6000813590506121658161213f565b92915050565b60008060006060848603121561218457612183611ede565b5b600061219286828701612156565b93505060206121a386828701611f67565b92505060406121b486828701611f67565b9150509250925092565b6121c781611f46565b82525050565b60006020820190506121e260008301846121be565b92915050565b600081519050919050565b600082825260208201905092915050565b6000819050602082019050919050565b600081519050919050565b600082825260208201905092915050565b60005b8381101561224e578082015181840152602081019050612233565b8381111561225d576000848401525b50505050565b6000601f19601f8301169050919050565b600061227f82612214565b612289818561221f565b9350612299818560208601612230565b6122a281612263565b840191505092915050565b60006101208301600083015184820360008601526122cb8282612274565b915050602083015184820360208601526122e58282612274565b915050604083015184820360408601526122ff8282612274565b91505060608301516123146060860182612036565b5060808301516123276080860182612036565b5060a083015161233a60a0860182612036565b5060c083015161234d60c0860182612036565b5060e083015161236060e0860182612036565b50610100830151612375610100860182612027565b508091505092915050565b600061238c83836122ad565b905092915050565b6000602082019050919050565b60006123ac826121e8565b6123b681856121f3565b9350836020820285016123c885612204565b8060005b8581101561240457848403895281516123e58582612380565b94506123f083612394565b925060208a019950506001810190506123cc565b50829750879550505050505092915050565b6000602082019050818103600083015261243081846123a1565b905092915050565b6000806040838503121561244f5761244e611ede565b5b600061245d85828601612156565b925050602061246e85828601611f67565b9150509250929050565b6000806040838503121561248f5761248e611ede565b5b600061249d85828601611f67565b92505060206124ae85828601611f67565b9150509250929050565b6124c181612015565b82525050565b60006080820190506124dc60008301876124b8565b6124e960208301866121be565b6124f660408301856121be565b61250360608301846121be565b95945050505050565b600080fd5b600080fd5b7f4e487b7100000000000000000000000000000000000000000000000000000000600052604160045260246000fd5b61254e82612263565b810181811067ffffffffffffffff8211171561256d5761256c612516565b5b80604052505050565b6000612580611ed4565b905061258c8282612545565b919050565b600067ffffffffffffffff8211156125ac576125ab612516565b5b6125b582612263565b9050602081019050919050565b82818337600083830152505050565b60006125e46125df84612591565b612576565b905082815260208101848484011115612600576125ff612511565b5b61260b8482856125c2565b509392505050565b600082601f8301126126285761262761250c565b5b81356126388482602086016125d1565b91505092915050565b600080600080600080600060e0888a0312156126605761265f611ede565b5b600088013567ffffffffffffffff81111561267e5761267d611ee3565b5b61268a8a828b01612613565b975050602088013567ffffffffffffffff8111156126ab576126aa611ee3565b5b6126b78a828b01612613565b965050604088013567ffffffffffffffff8111156126d8576126d7611ee3565b5b6126e48a828b01612613565b95505060606126f58a828b01611f67565b94505060806127068a828b01611f67565b93505060a06127178a828b01611f67565b92505060c06127288a828b01611f67565b91505092959891949750929550565b600060208201905061274c60008301846124b8565b92915050565b600082825260208201905092915050565b600061276e82612214565b6127788185612752565b9350612788818560208601612230565b61279181612263565b840191505092915050565b60006101208201905081810360008301526127b7818c612763565b905081810360208301526127cb818b612763565b905081810360408301526127df818a612763565b90506127ee60608301896121be565b6127fb60808301886121be565b61280860a08301876121be565b61281560c08301866121be565b61282260e08301856121be565b6128306101008301846124b8565b9a9950505050505050505050565b7f4e487b7100000000000000000000000000000000000000000000000000000000600052603260045260246000fd5b7f5468652066756e64696e672074696d652068617320706173736564206f72206860008201527f6173206e6f74206265656e207375636365737366756c2e000000000000000000602082015250565b60006128c9603783612752565b91506128d48261286d565b604082019050919050565b600060208201905081810360008301526128f8816128bc565b9050919050565b7f596f7520646f6e2774206861766520616e79206163636f756e7420706170657260008201527f2061626f7574207468652066756e64696e672e00000000000000000000000000602082015250565b600061295b603383612752565b9150612966826128ff565b604082019050919050565b6000602082019050818103600083015261298a8161294e565b9050919050565b7f4e487b7100000000000000000000000000000000000000000000000000000000600052601160045260246000fd5b60006129cb82611f46565b91507fffffffffffffffffffffffffffffffffffffffffffffffffffffffffffffffff8214156129fe576129fd612991565b5b600182019050919050565b6000819050919050565b6000612a2e612a29612a2484611ee8565b612a09565b611ee8565b9050919050565b6000612a4082612a13565b9050919050565b6000612a5282612a35565b9050919050565b612a6281612a47565b82525050565b6000604082019050612a7d6000830185612a59565b612a8a60208301846121be565b9392505050565b7f4e487b7100000000000000000000000000000000000000000000000000000000600052602260045260246000fd5b60006002820490506001821680612ad857607f821691505b60208210811415612aec57612aeb612a91565b5b50919050565b6000612afd82611f46565b9150612b0883611f46565b9250817fffffffffffffffffffffffffffffffffffffffffffffffffffffffffffffffff0483118215151615612b4157612b40612991565b5b828202905092915050565b7f54686520626567696e54696d65206d75737420626520616674657220626c6f6360008201527f6b2074696d657374616d702e0000000000000000000000000000000000000000602082015250565b6000612ba8602c83612752565b9150612bb382612b4c565b604082019050919050565b60006020820190508181036000830152612bd781612b9b565b9050919050565b7f54686520626567696e54696d65206d757374206265206265666f72652074686560008201527f20656e6454696d652e0000000000000000000000000000000000000000000000602082015250565b6000612c3a602983612752565b9150612c4582612bde565b604082019050919050565b60006020820190508181036000830152612c6981612c2d565b9050919050565b6000606082019050612c8560008301866121be565b8181036020830152612c978185612763565b9050612ca660408301846124b8565b949350505050565b7f5468652066756e64696e67206e6f74206f70656e207965742e00000000000000600082015250565b6000612ce4601983612752565b9150612cef82612cae565b602082019050919050565b60006020820190508181036000830152612d1381612cd7565b9050919050565b7f5468652066756e64696e6720636c6f7365642e00000000000000000000000000600082015250565b6000612d50601383612752565b9150612d5b82612d1a565b602082019050919050565b60006020820190508181036000830152612d7f81612d43565b9050919050565b7f596f75206e65656420746f20757365206d6f726520616d6f756e742e2043686560008201527f636b207468652066756e64696e67206d696e696d756e20616d6f756e742e0000602082015250565b6000612de2603e83612752565b9150612ded82612d86565b604082019050919050565b60006020820190508181036000830152612e1181612dd5565b9050919050565b6000612e2382611f46565b9150612e2e83611f46565b9250827fffffffffffffffffffffffffffffffffffffffffffffffffffffffffffffffff03821115612e6357612e62612991565b5b828201905092915050565b6000612e7982611f46565b9150612e8483611f46565b925082821015612e9757612e96612991565b5b828203905092915050565b7f696e646578206f7574206f6620626f756e640000000000000000000000000000600082015250565b6000612ed8601283612752565b9150612ee382612ea2565b602082019050919050565b60006020820190508181036000830152612f0781612ecb565b9050919050565b7f4e487b7100000000000000000000000000000000000000000000000000000000600052603160045260246000fdfea2646970667358221220cd7852cc875e96b4140d19b1e092e74c848b8b6ee481982fd984f2dd8b9d442f64736f6c634300080b0033",
  "immutableReferences": {},
  "source": "// SPDX-License-Identifier: MIT\npragma solidity 0.8.11;\nimport \"@openzeppelin/contracts/utils/math/SafeMath.sol\";\nimport \"./FundingHandler.sol\";\n\ncontract FunderHandler is FundingHandler {\n    \n    using SafeMath for uint256;\n\n    event Fund(address _address, uint _fundingId, uint amount, uint date);\n    event WithdrawAsFunder(address _address, uint amount);\n\n    modifier funded(uint _fundingId) {\n        require(addressToFundingIdToAcoountPapersIds[msg.sender][_fundingId].length > 0);\n        _;\n    }\n\n    modifier ownerOfAccountPaper(uint _fundingId, uint _accountPaperId) {\n        require(fundingToAccountPapers[_fundingId][_accountPaperId].funder == msg.sender);\n        _;\n    }\n\n    struct AccountPaper {\n        address funder;\n        uint fundingId;\n        uint amount;\n        uint date;\n    }\n\n    mapping (uint=>AccountPaper[]) public fundingToAccountPapers;\n    mapping (address=>uint[]) public addressToFundedFundingIds;\n    mapping (address=>mapping(uint=>uint[])) public addressToFundingIdToAcoountPapersIds;\n\n    function fund(uint _fundingId) external payable availableFund(_fundingId) { \n        uint date = block.timestamp;\n        uint fundAmount = msg.value;\n        fundings[_fundingId].currentAmount = fundings[_fundingId].currentAmount.add(fundAmount);\n        AccountPaper memory accountPaper = AccountPaper(msg.sender, _fundingId, fundAmount, date);\n        fundingToAccountPapers[_fundingId].push(accountPaper);\n        addressToFundedFundingIds[msg.sender].push(_fundingId);\n        addressToFundingIdToAcoountPapersIds[msg.sender][_fundingId].push(fundingToAccountPapers[_fundingId].length.sub(1));\n        emit Fund(msg.sender, _fundingId, fundAmount, date);\n    }\n\n    function withdrawAsFunder(address payable _address,uint _fundingId) external funded(_fundingId) fundingNotEndOrFailed(_fundingId) {\n        require(addressToFundingIdToAcoountPapersIds[msg.sender][_fundingId].length > 0, \"You don't have any account paper about the funding.\");\n        uint fundedAmount;\n\n        for (uint256 i = 0; i < addressToFundingIdToAcoountPapersIds[msg.sender][_fundingId].length; i++) {\n           fundedAmount = fundedAmount.add(_popAccountPaperAmount(_fundingId));\n        }\n        fundings[_fundingId].currentAmount = fundings[_fundingId].currentAmount.sub(fundedAmount);\n        _address.transfer(fundedAmount);\n        emit WithdrawAsFunder(_address, fundedAmount);\n    }\n\n    function getMyFundingAccountPapers(uint _fundingId) external view returns(AccountPaper[] memory){\n        uint[] memory accountPaperIds = addressToFundingIdToAcoountPapersIds[msg.sender][_fundingId];\n        AccountPaper[] memory FundingAccountPapers = fundingToAccountPapers[_fundingId];\n        AccountPaper[] memory myAccountPapers = new AccountPaper[](accountPaperIds.length);\n\n        for(uint i=0; i < accountPaperIds.length; i++) {\n            myAccountPapers[i] = FundingAccountPapers[accountPaperIds[i]];\n        }\n\n        return myAccountPapers;\n    }\n\n    function _popAccountPaperAmount(uint _fundingId) private returns(uint) {\n        require(addressToFundingIdToAcoountPapersIds[msg.sender][_fundingId].length > 0);\n        uint accountPaperId = addressToFundingIdToAcoountPapersIds[msg.sender][_fundingId][0];\n        uint amount = fundingToAccountPapers[_fundingId][accountPaperId].amount;\n        _removeMyAccountPaperIds(_fundingId, 0);\n        return amount;\n    }\n\n    function _removeMyAccountPaperIds(uint _fundingId, uint _index) private {\n        require(_index < addressToFundingIdToAcoountPapersIds[msg.sender][_fundingId].length, \"index out of bound\");\n\n        for (uint i = _index; i < addressToFundingIdToAcoountPapersIds[msg.sender][_fundingId].length - 1; i++) {\n            addressToFundingIdToAcoountPapersIds[msg.sender][_fundingId][i] = addressToFundingIdToAcoountPapersIds[msg.sender][_fundingId][i + 1];\n        }\n        addressToFundingIdToAcoountPapersIds[msg.sender][_fundingId].pop();\n    }\n}\n",
  "sourcePath": "/home/user/Develope/crowd-funding/contracts/FunderHandler.sol",
  "compiler": {
    "name": "solc",
    "version": "0.8.11+commit.d7f03943.Emscripten.clang"
  },
  "schemaVersion": "3.4.5",
  "updatedAt": "2022-02-28T10:59:38.138Z",
  "devdoc": {
    "kind": "dev",
    "methods": {},
    "version": 1
  },
  "userdoc": {
    "kind": "user",
    "methods": {},
    "version": 1
  }
}