{
  "contractName": "FundingHandler",
  "abi": [
    {
      "anonymous": false,
      "inputs": [
        {
          "indexed": false,
          "internalType": "uint256",
          "name": "id",
          "type": "uint256"
        },
        {
          "indexed": false,
          "internalType": "string",
          "name": "title",
          "type": "string"
        },
        {
          "indexed": false,
          "internalType": "address",
          "name": "owner",
          "type": "address"
        },
        {
          "indexed": false,
          "internalType": "uint256",
          "name": "goalAmount",
          "type": "uint256"
        },
        {
          "indexed": false,
          "internalType": "uint256",
          "name": "beginTime",
          "type": "uint256"
        },
        {
          "indexed": false,
          "internalType": "uint256",
          "name": "endTime",
          "type": "uint256"
        }
      ],
      "name": "CreateFunding",
      "type": "event"
    },
    {
      "inputs": [
        {
          "internalType": "address",
          "name": "",
          "type": "address"
        },
        {
          "internalType": "uint256",
          "name": "",
          "type": "uint256"
        }
      ],
      "name": "addressToFundingIds",
      "outputs": [
        {
          "internalType": "uint256",
          "name": "",
          "type": "uint256"
        }
      ],
      "stateMutability": "view",
      "type": "function"
    },
    {
      "inputs": [
        {
          "internalType": "string",
          "name": "_title",
          "type": "string"
        },
        {
          "internalType": "string",
          "name": "_subTitle",
          "type": "string"
        },
        {
          "internalType": "string",
          "name": "_content",
          "type": "string"
        },
        {
          "internalType": "uint256",
          "name": "_goalAmount",
          "type": "uint256"
        },
        {
          "internalType": "uint256",
          "name": "_availableMinAmount",
          "type": "uint256"
        },
        {
          "internalType": "uint256",
          "name": "_beginTime",
          "type": "uint256"
        },
        {
          "internalType": "uint256",
          "name": "_endTime",
          "type": "uint256"
        }
      ],
      "name": "createFunding",
      "outputs": [
        {
          "internalType": "uint256",
          "name": "",
          "type": "uint256"
        }
      ],
      "stateMutability": "nonpayable",
      "type": "function"
    },
    {
      "inputs": [
        {
          "internalType": "uint256",
          "name": "",
          "type": "uint256"
        }
      ],
      "name": "fundingToFundraiser",
      "outputs": [
        {
          "internalType": "address",
          "name": "",
          "type": "address"
        }
      ],
      "stateMutability": "view",
      "type": "function"
    },
    {
      "inputs": [
        {
          "internalType": "uint256",
          "name": "",
          "type": "uint256"
        }
      ],
      "name": "fundings",
      "outputs": [
        {
          "internalType": "string",
          "name": "title",
          "type": "string"
        },
        {
          "internalType": "string",
          "name": "subTitle",
          "type": "string"
        },
        {
          "internalType": "string",
          "name": "content",
          "type": "string"
        },
        {
          "internalType": "uint256",
          "name": "currentAmount",
          "type": "uint256"
        },
        {
          "internalType": "uint256",
          "name": "availableMinAmount",
          "type": "uint256"
        },
        {
          "internalType": "uint256",
          "name": "goalAmount",
          "type": "uint256"
        },
        {
          "internalType": "uint256",
          "name": "beginTime",
          "type": "uint256"
        },
        {
          "internalType": "uint256",
          "name": "endTime",
          "type": "uint256"
        },
        {
          "internalType": "address",
          "name": "fundraiser",
          "type": "address"
        }
      ],
      "stateMutability": "view",
      "type": "function"
    }
  ],
  "bytecode": "0x6080604052600160005534801561001557600080fd5b50610fdb806100256000396000f3fe608060405234801561001057600080fd5b506004361061004c5760003560e01c80635ad868f614610051578063b9e1b88014610081578063c385e902146100b1578063d13cb1fb146100e1575b600080fd5b61006b60048036038101906100669190610842565b610119565b6040516100789190610891565b60405180910390f35b61009b600480360381019061009691906109f2565b61014a565b6040516100a89190610891565b60405180910390f35b6100cb60048036038101906100c69190610ae8565b610498565b6040516100d89190610b24565b60405180910390f35b6100fb60048036038101906100f69190610ae8565b6104cb565b60405161011099989796959493929190610bc7565b60405180910390f35b6003602052816000526040600020818154811061013557600080fd5b90600052602060002001600091509150505481565b600082421061018e576040517f08c379a000000000000000000000000000000000000000000000000000000000815260040161018590610cdb565b60405180910390fd5b8183106101d0576040517f08c379a00000000000000000000000000000000000000000000000000000000081526004016101c790610d6d565b60405180910390fd5b838511610212576040517f08c379a000000000000000000000000000000000000000000000000000000000815260040161020990610dff565b60405180910390fd5b60016040518061012001604052808a815260200189815260200188815260200160008152602001600054876102479190610e4e565b81526020018781526020018581526020018481526020013373ffffffffffffffffffffffffffffffffffffffff16815250908060018154018082558091505060019003906000526020600020906009020160009091909190915060008201518160000190805190602001906102bd9291906106f7565b5060208201518160010190805190602001906102da9291906106f7565b5060408201518160020190805190602001906102f79291906106f7565b50606082015181600301556080820151816004015560a0820151816005015560c0820151816006015560e082015181600701556101008201518160080160006101000a81548173ffffffffffffffffffffffffffffffffffffffff021916908373ffffffffffffffffffffffffffffffffffffffff1602179055505050600061038e600180805490506106e190919063ffffffff16565b9050336002600083815260200190815260200160002060006101000a81548173ffffffffffffffffffffffffffffffffffffffff021916908373ffffffffffffffffffffffffffffffffffffffff160217905550600360003373ffffffffffffffffffffffffffffffffffffffff1673ffffffffffffffffffffffffffffffffffffffff1681526020019081526020016000208190806001815401808255809150506001900390600052602060002001600090919091909150557ff4d14b13a885fbfb9d8e330bc8926f9a6eef30045a65f60bfdf67ed3eb22b82e818a3389888860405161048196959493929190610ea8565b60405180910390a180915050979650505050505050565b60026020528060005260406000206000915054906101000a900473ffffffffffffffffffffffffffffffffffffffff1681565b600181815481106104db57600080fd5b90600052602060002090600902016000915090508060000180546104fe90610f3f565b80601f016020809104026020016040519081016040528092919081815260200182805461052a90610f3f565b80156105775780601f1061054c57610100808354040283529160200191610577565b820191906000526020600020905b81548152906001019060200180831161055a57829003601f168201915b50505050509080600101805461058c90610f3f565b80601f01602080910402602001604051908101604052809291908181526020018280546105b890610f3f565b80156106055780601f106105da57610100808354040283529160200191610605565b820191906000526020600020905b8154815290600101906020018083116105e857829003601f168201915b50505050509080600201805461061a90610f3f565b80601f016020809104026020016040519081016040528092919081815260200182805461064690610f3f565b80156106935780601f1061066857610100808354040283529160200191610693565b820191906000526020600020905b81548152906001019060200180831161067657829003601f168201915b5050505050908060030154908060040154908060050154908060060154908060070154908060080160009054906101000a900473ffffffffffffffffffffffffffffffffffffffff16905089565b600081836106ef9190610f71565b905092915050565b82805461070390610f3f565b90600052602060002090601f016020900481019282610725576000855561076c565b82601f1061073e57805160ff191683800117855561076c565b8280016001018555821561076c579182015b8281111561076b578251825591602001919060010190610750565b5b509050610779919061077d565b5090565b5b8082111561079657600081600090555060010161077e565b5090565b6000604051905090565b600080fd5b600080fd5b600073ffffffffffffffffffffffffffffffffffffffff82169050919050565b60006107d9826107ae565b9050919050565b6107e9816107ce565b81146107f457600080fd5b50565b600081359050610806816107e0565b92915050565b6000819050919050565b61081f8161080c565b811461082a57600080fd5b50565b60008135905061083c81610816565b92915050565b60008060408385031215610859576108586107a4565b5b6000610867858286016107f7565b92505060206108788582860161082d565b9150509250929050565b61088b8161080c565b82525050565b60006020820190506108a66000830184610882565b92915050565b600080fd5b600080fd5b6000601f19601f8301169050919050565b7f4e487b7100000000000000000000000000000000000000000000000000000000600052604160045260246000fd5b6108ff826108b6565b810181811067ffffffffffffffff8211171561091e5761091d6108c7565b5b80604052505050565b600061093161079a565b905061093d82826108f6565b919050565b600067ffffffffffffffff82111561095d5761095c6108c7565b5b610966826108b6565b9050602081019050919050565b82818337600083830152505050565b600061099561099084610942565b610927565b9050828152602081018484840111156109b1576109b06108b1565b5b6109bc848285610973565b509392505050565b600082601f8301126109d9576109d86108ac565b5b81356109e9848260208601610982565b91505092915050565b600080600080600080600060e0888a031215610a1157610a106107a4565b5b600088013567ffffffffffffffff811115610a2f57610a2e6107a9565b5b610a3b8a828b016109c4565b975050602088013567ffffffffffffffff811115610a5c57610a5b6107a9565b5b610a688a828b016109c4565b965050604088013567ffffffffffffffff811115610a8957610a886107a9565b5b610a958a828b016109c4565b9550506060610aa68a828b0161082d565b9450506080610ab78a828b0161082d565b93505060a0610ac88a828b0161082d565b92505060c0610ad98a828b0161082d565b91505092959891949750929550565b600060208284031215610afe57610afd6107a4565b5b6000610b0c8482850161082d565b91505092915050565b610b1e816107ce565b82525050565b6000602082019050610b396000830184610b15565b92915050565b600081519050919050565b600082825260208201905092915050565b60005b83811015610b79578082015181840152602081019050610b5e565b83811115610b88576000848401525b50505050565b6000610b9982610b3f565b610ba38185610b4a565b9350610bb3818560208601610b5b565b610bbc816108b6565b840191505092915050565b6000610120820190508181036000830152610be2818c610b8e565b90508181036020830152610bf6818b610b8e565b90508181036040830152610c0a818a610b8e565b9050610c196060830189610882565b610c266080830188610882565b610c3360a0830187610882565b610c4060c0830186610882565b610c4d60e0830185610882565b610c5b610100830184610b15565b9a9950505050505050505050565b7f54686520626567696e54696d65206d75737420626520616674657220626c6f6360008201527f6b2074696d657374616d702e0000000000000000000000000000000000000000602082015250565b6000610cc5602c83610b4a565b9150610cd082610c69565b604082019050919050565b60006020820190508181036000830152610cf481610cb8565b9050919050565b7f54686520626567696e54696d65206d757374206265206265666f72652074686560008201527f20656e6454696d652e0000000000000000000000000000000000000000000000602082015250565b6000610d57602983610b4a565b9150610d6282610cfb565b604082019050919050565b60006020820190508181036000830152610d8681610d4a565b9050919050565b7f54686520676f616c416d6f756e74206d7573742062652075707065722074686160008201527f6e20617661696c61626c654d696e416d6f756e742e0000000000000000000000602082015250565b6000610de9603583610b4a565b9150610df482610d8d565b604082019050919050565b60006020820190508181036000830152610e1881610ddc565b9050919050565b7f4e487b7100000000000000000000000000000000000000000000000000000000600052601160045260246000fd5b6000610e598261080c565b9150610e648361080c565b9250817fffffffffffffffffffffffffffffffffffffffffffffffffffffffffffffffff0483118215151615610e9d57610e9c610e1f565b5b828202905092915050565b600060c082019050610ebd6000830189610882565b8181036020830152610ecf8188610b8e565b9050610ede6040830187610b15565b610eeb6060830186610882565b610ef86080830185610882565b610f0560a0830184610882565b979650505050505050565b7f4e487b7100000000000000000000000000000000000000000000000000000000600052602260045260246000fd5b60006002820490506001821680610f5757607f821691505b60208210811415610f6b57610f6a610f10565b5b50919050565b6000610f7c8261080c565b9150610f878361080c565b925082821015610f9a57610f99610e1f565b5b82820390509291505056fea2646970667358221220e10801578ffefecb05842312c54030a0fcd08bfea84f1cbe9768c26aa7f3d2f064736f6c634300080b0033",
  "immutableReferences": {},
  "source": "// SPDX-License-Identifier: MIT\npragma solidity 0.8.11;\nimport \"./FundingFactory.sol\";\nimport \"./FundingCoinManager.sol\";\n\ncontract FundingHandler is FundingFactory, FundingCoinManager {\n    using SafeMath for uint256;\n\n    modifier beginFunding(uint _fundingId) {\n        require(block.timestamp <= fundings[_fundingId].beginTime);\n        _;\n    }\n\n    modifier endFunding(uint _fundingId) {\n        require(fundings[_fundingId].endTime < block.timestamp);\n        _;\n    }\n\n    modifier availableFund(uint _fundingId) {\n        uint time = block.timestamp;\n        require(fundings[_fundingId].beginTime < time,\"The funding not open yet.\");\n        require(time < fundings[_fundingId].endTime,\"The funding has closed.\");\n        require(fundings[_fundingId].availableMinAmount * coinUnit <= msg.value, \"You need to fund more amount. Check the funding minimun amount.\");\n        _;\n    }\n\n    modifier ownerOfFunding(uint _fundingId) {\n        require(msg.sender == fundings[_fundingId].fundraiser);\n        _;\n    }\n\n    modifier fundingInProgressOrFailed(uint _fundingId) {\n        uint time = block.timestamp;\n        bool inProgress = (fundings[_fundingId].beginTime < time && time < fundings[_fundingId].endTime);\n        bool failedFunding =  (fundings[_fundingId].endTime < time) && (fundings[_fundingId].currentAmount < fundings[_fundingId].goalAmount );\n        require(inProgress || failedFunding,\"The funding state must be progress or failed.\");\n        _;\n    }\n\n    modifier fundingSucceeded(uint _fundingId) {\n        require(fundings[_fundingId].fundraiser == msg.sender);\n        require(fundings[_fundingId].goalAmount <= fundings[_fundingId].currentAmount);\n        require(fundings[_fundingId].endTime <= block.timestamp);\n        _;\n    }\n}\n",
  "sourcePath": "/home/user/Develope/crowd-funding/contracts/FundingHandler.sol",
  "compiler": {
    "name": "solc",
    "version": "0.8.11+commit.d7f03943.Emscripten.clang"
  },
  "schemaVersion": "3.4.5",
  "updatedAt": "2022-03-04T14:41:11.237Z",
  "devdoc": {
    "kind": "dev",
    "methods": {},
    "version": 1
  },
  "userdoc": {
    "kind": "user",
    "methods": {},
    "version": 1
  }
}