{
  "contractName": "FunderHandler",
  "abi": [
    {
      "anonymous": false,
      "inputs": [
        {
          "indexed": false,
          "internalType": "uint256",
          "name": "id",
          "type": "uint256"
        },
        {
          "indexed": false,
          "internalType": "string",
          "name": "title",
          "type": "string"
        },
        {
          "indexed": false,
          "internalType": "address",
          "name": "owner",
          "type": "address"
        },
        {
          "indexed": false,
          "internalType": "uint256",
          "name": "goalAmount",
          "type": "uint256"
        },
        {
          "indexed": false,
          "internalType": "uint256",
          "name": "beginTime",
          "type": "uint256"
        },
        {
          "indexed": false,
          "internalType": "uint256",
          "name": "endTime",
          "type": "uint256"
        }
      ],
      "name": "CreateFunding",
      "type": "event"
    },
    {
      "anonymous": false,
      "inputs": [
        {
          "indexed": false,
          "internalType": "address",
          "name": "funder",
          "type": "address"
        },
        {
          "indexed": false,
          "internalType": "uint256",
          "name": "fundingId",
          "type": "uint256"
        },
        {
          "indexed": false,
          "internalType": "uint256",
          "name": "amount",
          "type": "uint256"
        },
        {
          "indexed": false,
          "internalType": "uint256",
          "name": "time",
          "type": "uint256"
        }
      ],
      "name": "Fund",
      "type": "event"
    },
    {
      "anonymous": false,
      "inputs": [
        {
          "indexed": false,
          "internalType": "address",
          "name": "funder",
          "type": "address"
        },
        {
          "indexed": false,
          "internalType": "uint256",
          "name": "amount",
          "type": "uint256"
        },
        {
          "indexed": false,
          "internalType": "uint256",
          "name": "time",
          "type": "uint256"
        }
      ],
      "name": "WithdrawAsFunder",
      "type": "event"
    },
    {
      "inputs": [
        {
          "internalType": "address",
          "name": "",
          "type": "address"
        },
        {
          "internalType": "uint256",
          "name": "",
          "type": "uint256"
        }
      ],
      "name": "addressToFundedFundingIds",
      "outputs": [
        {
          "internalType": "uint256",
          "name": "",
          "type": "uint256"
        }
      ],
      "stateMutability": "view",
      "type": "function"
    },
    {
      "inputs": [
        {
          "internalType": "address",
          "name": "",
          "type": "address"
        },
        {
          "internalType": "uint256",
          "name": "",
          "type": "uint256"
        },
        {
          "internalType": "uint256",
          "name": "",
          "type": "uint256"
        }
      ],
      "name": "addressToFundingIdToAcoountPapersIds",
      "outputs": [
        {
          "internalType": "uint256",
          "name": "",
          "type": "uint256"
        }
      ],
      "stateMutability": "view",
      "type": "function"
    },
    {
      "inputs": [
        {
          "internalType": "address",
          "name": "",
          "type": "address"
        },
        {
          "internalType": "uint256",
          "name": "",
          "type": "uint256"
        }
      ],
      "name": "addressToFundingIds",
      "outputs": [
        {
          "internalType": "uint256",
          "name": "",
          "type": "uint256"
        }
      ],
      "stateMutability": "view",
      "type": "function"
    },
    {
      "inputs": [
        {
          "internalType": "string",
          "name": "_title",
          "type": "string"
        },
        {
          "internalType": "string",
          "name": "_subTitle",
          "type": "string"
        },
        {
          "internalType": "string",
          "name": "_content",
          "type": "string"
        },
        {
          "internalType": "uint256",
          "name": "_goalAmount",
          "type": "uint256"
        },
        {
          "internalType": "uint256",
          "name": "_availableMinAmount",
          "type": "uint256"
        },
        {
          "internalType": "uint256",
          "name": "_beginTime",
          "type": "uint256"
        },
        {
          "internalType": "uint256",
          "name": "_endTime",
          "type": "uint256"
        }
      ],
      "name": "createFunding",
      "outputs": [
        {
          "internalType": "uint256",
          "name": "",
          "type": "uint256"
        }
      ],
      "stateMutability": "nonpayable",
      "type": "function"
    },
    {
      "inputs": [
        {
          "internalType": "uint256",
          "name": "",
          "type": "uint256"
        },
        {
          "internalType": "uint256",
          "name": "",
          "type": "uint256"
        }
      ],
      "name": "fundingToAccountPapers",
      "outputs": [
        {
          "internalType": "address",
          "name": "funder",
          "type": "address"
        },
        {
          "internalType": "uint256",
          "name": "fundingId",
          "type": "uint256"
        },
        {
          "internalType": "uint256",
          "name": "amount",
          "type": "uint256"
        },
        {
          "internalType": "uint256",
          "name": "date",
          "type": "uint256"
        }
      ],
      "stateMutability": "view",
      "type": "function"
    },
    {
      "inputs": [
        {
          "internalType": "uint256",
          "name": "",
          "type": "uint256"
        }
      ],
      "name": "fundingToFundraiser",
      "outputs": [
        {
          "internalType": "address",
          "name": "",
          "type": "address"
        }
      ],
      "stateMutability": "view",
      "type": "function"
    },
    {
      "inputs": [
        {
          "internalType": "uint256",
          "name": "",
          "type": "uint256"
        }
      ],
      "name": "fundings",
      "outputs": [
        {
          "internalType": "string",
          "name": "title",
          "type": "string"
        },
        {
          "internalType": "string",
          "name": "subTitle",
          "type": "string"
        },
        {
          "internalType": "string",
          "name": "content",
          "type": "string"
        },
        {
          "internalType": "uint256",
          "name": "currentAmount",
          "type": "uint256"
        },
        {
          "internalType": "uint256",
          "name": "availableMinAmount",
          "type": "uint256"
        },
        {
          "internalType": "uint256",
          "name": "goalAmount",
          "type": "uint256"
        },
        {
          "internalType": "uint256",
          "name": "beginTime",
          "type": "uint256"
        },
        {
          "internalType": "uint256",
          "name": "endTime",
          "type": "uint256"
        },
        {
          "internalType": "address",
          "name": "fundraiser",
          "type": "address"
        }
      ],
      "stateMutability": "view",
      "type": "function"
    },
    {
      "inputs": [
        {
          "internalType": "uint256",
          "name": "_fundingId",
          "type": "uint256"
        }
      ],
      "name": "fund",
      "outputs": [],
      "stateMutability": "payable",
      "type": "function"
    },
    {
      "inputs": [
        {
          "internalType": "uint256",
          "name": "_fundingId",
          "type": "uint256"
        }
      ],
      "name": "withdrawAsFunder",
      "outputs": [],
      "stateMutability": "nonpayable",
      "type": "function"
    },
    {
      "inputs": [
        {
          "internalType": "uint256",
          "name": "_fundingId",
          "type": "uint256"
        }
      ],
      "name": "getMyFundingAccountPapers",
      "outputs": [
        {
          "components": [
            {
              "internalType": "address",
              "name": "funder",
              "type": "address"
            },
            {
              "internalType": "uint256",
              "name": "fundingId",
              "type": "uint256"
            },
            {
              "internalType": "uint256",
              "name": "amount",
              "type": "uint256"
            },
            {
              "internalType": "uint256",
              "name": "date",
              "type": "uint256"
            }
          ],
          "internalType": "struct FunderHandler.AccountPaper[]",
          "name": "",
          "type": "tuple[]"
        }
      ],
      "stateMutability": "view",
      "type": "function"
    }
  ],
  "bytecode": "0x6080604052600160005534801561001557600080fd5b506127da806100256000396000f3fe6080604052600436106100915760003560e01c8063b9e1b88011610059578063b9e1b880146101ca578063c385e90214610207578063ca1d209d14610244578063d13cb1fb14610260578063f23406bb146102a557610091565b806315644b7614610096578063359ef97d146100d35780635ad868f6146101105780639f23c8211461014d578063af50498e1461018a575b600080fd5b3480156100a257600080fd5b506100bd60048036038101906100b891906118c1565b6102ce565b6040516100ca9190611a42565b60405180910390f35b3480156100df57600080fd5b506100fa60048036038101906100f59190611a90565b61052b565b6040516101079190611af2565b60405180910390f35b34801561011c57600080fd5b5061013760048036038101906101329190611b0d565b610569565b6040516101449190611af2565b60405180910390f35b34801561015957600080fd5b50610174600480360381019061016f9190611b0d565b61059a565b6040516101819190611af2565b60405180910390f35b34801561019657600080fd5b506101b160048036038101906101ac9190611b4d565b6105cb565b6040516101c19493929190611b9c565b60405180910390f35b3480156101d657600080fd5b506101f160048036038101906101ec9190611d27565b610638565b6040516101fe9190611af2565b60405180910390f35b34801561021357600080fd5b5061022e600480360381019061022991906118c1565b610986565b60405161023b9190611e1d565b60405180910390f35b61025e600480360381019061025991906118c1565b6109b9565b005b34801561026c57600080fd5b50610287600480360381019061028291906118c1565b610d97565b60405161029c99989796959493929190611ec0565b60405180910390f35b3480156102b157600080fd5b506102cc60048036038101906102c791906118c1565b610fad565b005b60606000600660003373ffffffffffffffffffffffffffffffffffffffff1673ffffffffffffffffffffffffffffffffffffffff168152602001908152602001600020600084815260200190815260200160002080548060200260200160405190810160405280929190818152602001828054801561036c57602002820191906000526020600020905b815481526020019060010190808311610358575b50505050509050600060046000858152602001908152602001600020805480602002602001604051908101604052809291908181526020016000905b8282101561044e57838290600052602060002090600402016040518060800160405290816000820160009054906101000a900473ffffffffffffffffffffffffffffffffffffffff1673ffffffffffffffffffffffffffffffffffffffff1673ffffffffffffffffffffffffffffffffffffffff1681526020016001820154815260200160028201548152602001600382015481525050815260200190600101906103a8565b5050505090506000825167ffffffffffffffff81111561047157610470611bfc565b5b6040519080825280602002602001820160405280156104aa57816020015b610497611796565b81526020019060019003908161048f5790505b50905060005b835181101561051f57828482815181106104cd576104cc611f62565b5b6020026020010151815181106104e6576104e5611f62565b5b602002602001015182828151811061050157610500611f62565b5b6020026020010181905250808061051790611fc0565b9150506104b0565b50809350505050919050565b6006602052826000526040600020602052816000526040600020818154811061055357600080fd5b9060005260206000200160009250925050505481565b6003602052816000526040600020818154811061058557600080fd5b90600052602060002001600091509150505481565b600560205281600052604060002081815481106105b657600080fd5b90600052602060002001600091509150505481565b600460205281600052604060002081815481106105e757600080fd5b9060005260206000209060040201600091509150508060000160009054906101000a900473ffffffffffffffffffffffffffffffffffffffff16908060010154908060020154908060030154905084565b600082421061067c576040517f08c379a00000000000000000000000000000000000000000000000000000000081526004016106739061207b565b60405180910390fd5b8183106106be576040517f08c379a00000000000000000000000000000000000000000000000000000000081526004016106b59061210d565b60405180910390fd5b838511610700576040517f08c379a00000000000000000000000000000000000000000000000000000000081526004016106f79061219f565b60405180910390fd5b60016040518061012001604052808a8152602001898152602001888152602001600081526020016000548761073591906121bf565b81526020018781526020018581526020018481526020013373ffffffffffffffffffffffffffffffffffffffff16815250908060018154018082558091505060019003906000526020600020906009020160009091909190915060008201518160000190805190602001906107ab9291906117d4565b5060208201518160010190805190602001906107c89291906117d4565b5060408201518160020190805190602001906107e59291906117d4565b50606082015181600301556080820151816004015560a0820151816005015560c0820151816006015560e082015181600701556101008201518160080160006101000a81548173ffffffffffffffffffffffffffffffffffffffff021916908373ffffffffffffffffffffffffffffffffffffffff1602179055505050600061087c6001808054905061135890919063ffffffff16565b9050336002600083815260200190815260200160002060006101000a81548173ffffffffffffffffffffffffffffffffffffffff021916908373ffffffffffffffffffffffffffffffffffffffff160217905550600360003373ffffffffffffffffffffffffffffffffffffffff1673ffffffffffffffffffffffffffffffffffffffff1681526020019081526020016000208190806001815401808255809150506001900390600052602060002001600090919091909150557ff4d14b13a885fbfb9d8e330bc8926f9a6eef30045a65f60bfdf67ed3eb22b82e818a3389888860405161096f96959493929190612219565b60405180910390a180915050979650505050505050565b60026020528060005260406000206000915054906101000a900473ffffffffffffffffffffffffffffffffffffffff1681565b80600042905080600183815481106109d4576109d3611f62565b5b90600052602060002090600902016006015410610a26576040517f08c379a0000000000000000000000000000000000000000000000000000000008152600401610a1d906122cd565b60405180910390fd5b60018281548110610a3a57610a39611f62565b5b9060005260206000209060090201600701548110610a8d576040517f08c379a0000000000000000000000000000000000000000000000000000000008152600401610a8490612339565b60405180910390fd5b3460005460018481548110610aa557610aa4611f62565b5b906000526020600020906009020160040154610ac191906121bf565b1115610b02576040517f08c379a0000000000000000000000000000000000000000000000000000000008152600401610af9906123cb565b60405180910390fd5b60004290506000349050610b448160018781548110610b2457610b23611f62565b5b90600052602060002090600902016003015461136e90919063ffffffff16565b60018681548110610b5857610b57611f62565b5b906000526020600020906009020160030181905550600060405180608001604052803373ffffffffffffffffffffffffffffffffffffffff1681526020018781526020018381526020018481525090506004600087815260200190815260200160002081908060018154018082558091505060019003906000526020600020906004020160009091909190915060008201518160000160006101000a81548173ffffffffffffffffffffffffffffffffffffffff021916908373ffffffffffffffffffffffffffffffffffffffff1602179055506020820151816001015560408201518160020155606082015181600301555050600560003373ffffffffffffffffffffffffffffffffffffffff1673ffffffffffffffffffffffffffffffffffffffff168152602001908152602001600020869080600181540180825580915050600190039060005260206000200160009091909190915055600660003373ffffffffffffffffffffffffffffffffffffffff1673ffffffffffffffffffffffffffffffffffffffff1681526020019081526020016000206000878152602001908152602001600020610d2c6001600460008a81526020019081526020016000208054905061135890919063ffffffff16565b90806001815401808255809150506001900390600052602060002001600090919091909150557f5570b9603539479ab41b78451afd6c57c24197e1ca6a1e74436daefe1d65876433878486604051610d879493929190611b9c565b60405180910390a1505050505050565b60018181548110610da757600080fd5b9060005260206000209060090201600091509050806000018054610dca9061241a565b80601f0160208091040260200160405190810160405280929190818152602001828054610df69061241a565b8015610e435780601f10610e1857610100808354040283529160200191610e43565b820191906000526020600020905b815481529060010190602001808311610e2657829003601f168201915b505050505090806001018054610e589061241a565b80601f0160208091040260200160405190810160405280929190818152602001828054610e849061241a565b8015610ed15780601f10610ea657610100808354040283529160200191610ed1565b820191906000526020600020905b815481529060010190602001808311610eb457829003601f168201915b505050505090806002018054610ee69061241a565b80601f0160208091040260200160405190810160405280929190818152602001828054610f129061241a565b8015610f5f5780601f10610f3457610100808354040283529160200191610f5f565b820191906000526020600020905b815481529060010190602001808311610f4257829003601f168201915b5050505050908060030154908060040154908060050154908060060154908060070154908060080160009054906101000a900473ffffffffffffffffffffffffffffffffffffffff16905089565b806000600660003373ffffffffffffffffffffffffffffffffffffffff1673ffffffffffffffffffffffffffffffffffffffff1681526020019081526020016000206000838152602001908152602001600020805490501161100e57600080fd5b8160004290506000816001848154811061102b5761102a611f62565b5b90600052602060002090600902016006015410801561106e57506001838154811061105957611058611f62565b5b90600052602060002090600902016007015482105b90506000826001858154811061108757611086611f62565b5b9060005260206000209060090201600701541080156110ef5750600184815481106110b5576110b4611f62565b5b906000526020600020906009020160050154600185815481106110db576110da611f62565b5b906000526020600020906009020160030154105b905081806110fa5750805b611139576040517f08c379a0000000000000000000000000000000000000000000000000000000008152600401611130906124be565b60405180910390fd5b6000600660003373ffffffffffffffffffffffffffffffffffffffff1673ffffffffffffffffffffffffffffffffffffffff168152602001908152602001600020600088815260200190815260200160002080549050116111cf576040517f08c379a00000000000000000000000000000000000000000000000000000000081526004016111c690612550565b60405180910390fd5b600080600660003373ffffffffffffffffffffffffffffffffffffffff1673ffffffffffffffffffffffffffffffffffffffff168152602001908152602001600020600089815260200190815260200160002080549050905060005b818110156112635761124e61123f8a611384565b8461136e90919063ffffffff16565b9250808061125b90611fc0565b91505061122b565b5061129c8260018a8154811061127c5761127b611f62565b5b90600052602060002090600902016003015461135890919063ffffffff16565b600189815481106112b0576112af611f62565b5b90600052602060002090600902016003018190555060006112d0836114a7565b905080611312576040517f08c379a0000000000000000000000000000000000000000000000000000000008152600401611309906125e2565b60405180910390fd5b7f9ad197141d5c72dae11f90854737d3cc9efd77578b03f5a92862afaacf99f2dc33844260405161134593929190612602565b60405180910390a1505050505050505050565b600081836113669190612639565b905092915050565b6000818361137c919061266d565b905092915050565b600080600660003373ffffffffffffffffffffffffffffffffffffffff1673ffffffffffffffffffffffffffffffffffffffff168152602001908152602001600020600084815260200190815260200160002080549050116113e557600080fd5b6000600660003373ffffffffffffffffffffffffffffffffffffffff1673ffffffffffffffffffffffffffffffffffffffff168152602001908152602001600020600084815260200190815260200160002060008154811061144a57611449611f62565b5b90600052602060002001549050600060046000858152602001908152602001600020828154811061147e5761147d611f62565b5b906000526020600020906004020160020154905061149d84600061151d565b8092505050919050565b6000803373ffffffffffffffffffffffffffffffffffffffff16836040516114ce906126f4565b60006040518083038185875af1925050503d806000811461150b576040519150601f19603f3d011682016040523d82523d6000602084013e611510565b606091505b5050905080915050919050565b600660003373ffffffffffffffffffffffffffffffffffffffff1673ffffffffffffffffffffffffffffffffffffffff16815260200190815260200160002060008381526020019081526020016000208054905081106115b2576040517f08c379a00000000000000000000000000000000000000000000000000000000081526004016115a990612755565b60405180910390fd5b60008190505b6001600660003373ffffffffffffffffffffffffffffffffffffffff1673ffffffffffffffffffffffffffffffffffffffff1681526020019081526020016000206000858152602001908152602001600020805490506116189190612639565b81101561171b57600660003373ffffffffffffffffffffffffffffffffffffffff1673ffffffffffffffffffffffffffffffffffffffff168152602001908152602001600020600084815260200190815260200160002060018261167c919061266d565b8154811061168d5761168c611f62565b5b9060005260206000200154600660003373ffffffffffffffffffffffffffffffffffffffff1673ffffffffffffffffffffffffffffffffffffffff168152602001908152602001600020600085815260200190815260200160002082815481106116fa576116f9611f62565b5b9060005260206000200181905550808061171390611fc0565b9150506115b8565b50600660003373ffffffffffffffffffffffffffffffffffffffff1673ffffffffffffffffffffffffffffffffffffffff168152602001908152602001600020600083815260200190815260200160002080548061177c5761177b612775565b5b600190038181906000526020600020016000905590555050565b6040518060800160405280600073ffffffffffffffffffffffffffffffffffffffff1681526020016000815260200160008152602001600081525090565b8280546117e09061241a565b90600052602060002090601f0160209004810192826118025760008555611849565b82601f1061181b57805160ff1916838001178555611849565b82800160010185558215611849579182015b8281111561184857825182559160200191906001019061182d565b5b509050611856919061185a565b5090565b5b8082111561187357600081600090555060010161185b565b5090565b6000604051905090565b600080fd5b600080fd5b6000819050919050565b61189e8161188b565b81146118a957600080fd5b50565b6000813590506118bb81611895565b92915050565b6000602082840312156118d7576118d6611881565b5b60006118e5848285016118ac565b91505092915050565b600081519050919050565b600082825260208201905092915050565b6000819050602082019050919050565b600073ffffffffffffffffffffffffffffffffffffffff82169050919050565b60006119458261191a565b9050919050565b6119558161193a565b82525050565b6119648161188b565b82525050565b608082016000820151611980600085018261194c565b506020820151611993602085018261195b565b5060408201516119a6604085018261195b565b5060608201516119b9606085018261195b565b50505050565b60006119cb838361196a565b60808301905092915050565b6000602082019050919050565b60006119ef826118ee565b6119f981856118f9565b9350611a048361190a565b8060005b83811015611a35578151611a1c88826119bf565b9750611a27836119d7565b925050600181019050611a08565b5085935050505092915050565b60006020820190508181036000830152611a5c81846119e4565b905092915050565b611a6d8161193a565b8114611a7857600080fd5b50565b600081359050611a8a81611a64565b92915050565b600080600060608486031215611aa957611aa8611881565b5b6000611ab786828701611a7b565b9350506020611ac8868287016118ac565b9250506040611ad9868287016118ac565b9150509250925092565b611aec8161188b565b82525050565b6000602082019050611b076000830184611ae3565b92915050565b60008060408385031215611b2457611b23611881565b5b6000611b3285828601611a7b565b9250506020611b43858286016118ac565b9150509250929050565b60008060408385031215611b6457611b63611881565b5b6000611b72858286016118ac565b9250506020611b83858286016118ac565b9150509250929050565b611b968161193a565b82525050565b6000608082019050611bb16000830187611b8d565b611bbe6020830186611ae3565b611bcb6040830185611ae3565b611bd86060830184611ae3565b95945050505050565b600080fd5b600080fd5b6000601f19601f8301169050919050565b7f4e487b7100000000000000000000000000000000000000000000000000000000600052604160045260246000fd5b611c3482611beb565b810181811067ffffffffffffffff82111715611c5357611c52611bfc565b5b80604052505050565b6000611c66611877565b9050611c728282611c2b565b919050565b600067ffffffffffffffff821115611c9257611c91611bfc565b5b611c9b82611beb565b9050602081019050919050565b82818337600083830152505050565b6000611cca611cc584611c77565b611c5c565b905082815260208101848484011115611ce657611ce5611be6565b5b611cf1848285611ca8565b509392505050565b600082601f830112611d0e57611d0d611be1565b5b8135611d1e848260208601611cb7565b91505092915050565b600080600080600080600060e0888a031215611d4657611d45611881565b5b600088013567ffffffffffffffff811115611d6457611d63611886565b5b611d708a828b01611cf9565b975050602088013567ffffffffffffffff811115611d9157611d90611886565b5b611d9d8a828b01611cf9565b965050604088013567ffffffffffffffff811115611dbe57611dbd611886565b5b611dca8a828b01611cf9565b9550506060611ddb8a828b016118ac565b9450506080611dec8a828b016118ac565b93505060a0611dfd8a828b016118ac565b92505060c0611e0e8a828b016118ac565b91505092959891949750929550565b6000602082019050611e326000830184611b8d565b92915050565b600081519050919050565b600082825260208201905092915050565b60005b83811015611e72578082015181840152602081019050611e57565b83811115611e81576000848401525b50505050565b6000611e9282611e38565b611e9c8185611e43565b9350611eac818560208601611e54565b611eb581611beb565b840191505092915050565b6000610120820190508181036000830152611edb818c611e87565b90508181036020830152611eef818b611e87565b90508181036040830152611f03818a611e87565b9050611f126060830189611ae3565b611f1f6080830188611ae3565b611f2c60a0830187611ae3565b611f3960c0830186611ae3565b611f4660e0830185611ae3565b611f54610100830184611b8d565b9a9950505050505050505050565b7f4e487b7100000000000000000000000000000000000000000000000000000000600052603260045260246000fd5b7f4e487b7100000000000000000000000000000000000000000000000000000000600052601160045260246000fd5b6000611fcb8261188b565b91507fffffffffffffffffffffffffffffffffffffffffffffffffffffffffffffffff821415611ffe57611ffd611f91565b5b600182019050919050565b7f54686520626567696e54696d65206d75737420626520616674657220626c6f6360008201527f6b2074696d657374616d702e0000000000000000000000000000000000000000602082015250565b6000612065602c83611e43565b915061207082612009565b604082019050919050565b6000602082019050818103600083015261209481612058565b9050919050565b7f54686520626567696e54696d65206d757374206265206265666f72652074686560008201527f20656e6454696d652e0000000000000000000000000000000000000000000000602082015250565b60006120f7602983611e43565b91506121028261209b565b604082019050919050565b60006020820190508181036000830152612126816120ea565b9050919050565b7f54686520676f616c416d6f756e74206d7573742062652075707065722074686160008201527f6e20617661696c61626c654d696e416d6f756e742e0000000000000000000000602082015250565b6000612189603583611e43565b91506121948261212d565b604082019050919050565b600060208201905081810360008301526121b88161217c565b9050919050565b60006121ca8261188b565b91506121d58361188b565b9250817fffffffffffffffffffffffffffffffffffffffffffffffffffffffffffffffff048311821515161561220e5761220d611f91565b5b828202905092915050565b600060c08201905061222e6000830189611ae3565b81810360208301526122408188611e87565b905061224f6040830187611b8d565b61225c6060830186611ae3565b6122696080830185611ae3565b61227660a0830184611ae3565b979650505050505050565b7f5468652066756e64696e67206e6f74206f70656e207965742e00000000000000600082015250565b60006122b7601983611e43565b91506122c282612281565b602082019050919050565b600060208201905081810360008301526122e6816122aa565b9050919050565b7f5468652066756e64696e672068617320636c6f7365642e000000000000000000600082015250565b6000612323601783611e43565b915061232e826122ed565b602082019050919050565b6000602082019050818103600083015261235281612316565b9050919050565b7f596f75206e65656420746f2066756e64206d6f726520616d6f756e742e20436860008201527f65636b207468652066756e64696e67206d696e696d756e20616d6f756e742e00602082015250565b60006123b5603f83611e43565b91506123c082612359565b604082019050919050565b600060208201905081810360008301526123e4816123a8565b9050919050565b7f4e487b7100000000000000000000000000000000000000000000000000000000600052602260045260246000fd5b6000600282049050600182168061243257607f821691505b60208210811415612446576124456123eb565b5b50919050565b7f5468652066756e64696e67207374617465206d7573742062652070726f67726560008201527f7373206f72206661696c65642e00000000000000000000000000000000000000602082015250565b60006124a8602d83611e43565b91506124b38261244c565b604082019050919050565b600060208201905081810360008301526124d78161249b565b9050919050565b7f596f7520646f6e2774206861766520616e79206163636f756e7420706170657260008201527f2061626f7574207468652066756e64696e672e00000000000000000000000000602082015250565b600061253a603383611e43565b9150612545826124de565b604082019050919050565b600060208201905081810360008301526125698161252d565b9050919050565b7f7769746864726177206d6574686f6420646f65736e277420776f726b2077656c60008201527f6c2e000000000000000000000000000000000000000000000000000000000000602082015250565b60006125cc602283611e43565b91506125d782612570565b604082019050919050565b600060208201905081810360008301526125fb816125bf565b9050919050565b60006060820190506126176000830186611b8d565b6126246020830185611ae3565b6126316040830184611ae3565b949350505050565b60006126448261188b565b915061264f8361188b565b92508282101561266257612661611f91565b5b828203905092915050565b60006126788261188b565b91506126838361188b565b9250827fffffffffffffffffffffffffffffffffffffffffffffffffffffffffffffffff038211156126b8576126b7611f91565b5b828201905092915050565b600081905092915050565b50565b60006126de6000836126c3565b91506126e9826126ce565b600082019050919050565b60006126ff826126d1565b9150819050919050565b7f696e646578206f7574206f6620626f756e640000000000000000000000000000600082015250565b600061273f601283611e43565b915061274a82612709565b602082019050919050565b6000602082019050818103600083015261276e81612732565b9050919050565b7f4e487b7100000000000000000000000000000000000000000000000000000000600052603160045260246000fdfea26469706673582212203fa26672aa5cc80078aa0adfdbc12f49366a4a90b9c2604c64ddab331f93e7aa64736f6c634300080b0033",
  "immutableReferences": {},
  "source": "// SPDX-License-Identifier: MIT\npragma solidity 0.8.11;\nimport \"./FundingHandler.sol\";\n\ncontract FunderHandler is FundingHandler {\n    \n    using SafeMath for uint256;\n\n    event Fund(address funder, uint fundingId, uint amount, uint time);\n    event WithdrawAsFunder(address funder, uint amount, uint time);\n\n    modifier funded(uint _fundingId) {\n        require(addressToFundingIdToAcoountPapersIds[msg.sender][_fundingId].length > 0);\n        _;\n    }\n\n    modifier ownerOfAccountPaper(uint _fundingId, uint _accountPaperId) {\n        require(fundingToAccountPapers[_fundingId][_accountPaperId].funder == msg.sender);\n        _;\n    }\n\n    struct AccountPaper {\n        address funder;\n        uint fundingId;\n        uint amount;\n        uint date;\n    }\n\n    mapping (uint=>AccountPaper[]) public fundingToAccountPapers;\n    mapping (address=>uint[]) public addressToFundedFundingIds;\n    mapping (address=>mapping(uint=>uint[])) public addressToFundingIdToAcoountPapersIds;\n\n    function fund(uint _fundingId) external payable availableFund(_fundingId) { \n        uint time = block.timestamp;\n        uint fundAmount = msg.value;\n        fundings[_fundingId].currentAmount = fundings[_fundingId].currentAmount.add(fundAmount);\n        AccountPaper memory accountPaper = AccountPaper(msg.sender, _fundingId, fundAmount, time);\n        fundingToAccountPapers[_fundingId].push(accountPaper);\n        addressToFundedFundingIds[msg.sender].push(_fundingId);\n        addressToFundingIdToAcoountPapersIds[msg.sender][_fundingId].push(fundingToAccountPapers[_fundingId].length.sub(1));\n        emit Fund(msg.sender, _fundingId, fundAmount, time);\n    }\n\n    function withdrawAsFunder(uint _fundingId) external funded(_fundingId) fundingInProgressOrFailed(_fundingId) {\n        require(addressToFundingIdToAcoountPapersIds[msg.sender][_fundingId].length > 0, \"You don't have any account paper about the funding.\");\n        uint fundedAmount;\n        uint accountPaperLength = addressToFundingIdToAcoountPapersIds[msg.sender][_fundingId].length;\n        for (uint i = 0; i < accountPaperLength; i++) {\n           fundedAmount = fundedAmount.add(_popAccountPaperAmount(_fundingId));\n        }\n        fundings[_fundingId].currentAmount = fundings[_fundingId].currentAmount.sub(fundedAmount);\n        bool success = withdraw(fundedAmount);\n        require(success,\"withdraw method doesn't work well.\");\n        emit WithdrawAsFunder(msg.sender, fundedAmount, block.timestamp);\n    }\n\n    function getMyFundingAccountPapers(uint _fundingId) external view returns(AccountPaper[] memory){\n        uint[] memory accountPaperIds = addressToFundingIdToAcoountPapersIds[msg.sender][_fundingId];\n        AccountPaper[] memory FundingAccountPapers = fundingToAccountPapers[_fundingId];\n        AccountPaper[] memory myAccountPapers = new AccountPaper[](accountPaperIds.length);\n\n        for(uint i=0; i < accountPaperIds.length; i++) {\n            myAccountPapers[i] = FundingAccountPapers[accountPaperIds[i]];\n        }\n\n        return myAccountPapers;\n    }\n\n    function _popAccountPaperAmount(uint _fundingId) private returns(uint) {\n        require(addressToFundingIdToAcoountPapersIds[msg.sender][_fundingId].length > 0);\n        uint accountPaperId = addressToFundingIdToAcoountPapersIds[msg.sender][_fundingId][0];\n        uint amount = fundingToAccountPapers[_fundingId][accountPaperId].amount;\n        _removeMyAccountPaperIds(_fundingId, 0);\n        return amount;\n    }\n\n    function _removeMyAccountPaperIds(uint _fundingId, uint _index) private {\n        require(_index < addressToFundingIdToAcoountPapersIds[msg.sender][_fundingId].length, \"index out of bound\");\n\n        for (uint i = _index; i < addressToFundingIdToAcoountPapersIds[msg.sender][_fundingId].length - 1; i++) {\n            addressToFundingIdToAcoountPapersIds[msg.sender][_fundingId][i] = addressToFundingIdToAcoountPapersIds[msg.sender][_fundingId][i + 1];\n        }\n        addressToFundingIdToAcoountPapersIds[msg.sender][_fundingId].pop();\n    }\n}\n",
  "sourcePath": "/home/user/Develope/crowd-funding/contracts/FunderHandler.sol",
  "compiler": {
    "name": "solc",
    "version": "0.8.11+commit.d7f03943.Emscripten.clang"
  },
  "schemaVersion": "3.4.5",
  "updatedAt": "2022-03-04T15:18:00.615Z",
  "devdoc": {
    "kind": "dev",
    "methods": {},
    "version": 1
  },
  "userdoc": {
    "kind": "user",
    "methods": {},
    "version": 1
  }
}