{
  "contractName": "FundingHandler",
  "abi": [
    {
      "anonymous": false,
      "inputs": [
        {
          "indexed": false,
          "internalType": "uint256",
          "name": "id",
          "type": "uint256"
        },
        {
          "indexed": false,
          "internalType": "string",
          "name": "title",
          "type": "string"
        },
        {
          "indexed": false,
          "internalType": "address",
          "name": "owner",
          "type": "address"
        }
      ],
      "name": "CreateFunding",
      "type": "event"
    },
    {
      "inputs": [
        {
          "internalType": "address",
          "name": "",
          "type": "address"
        },
        {
          "internalType": "uint256",
          "name": "",
          "type": "uint256"
        }
      ],
      "name": "addressToFundingIds",
      "outputs": [
        {
          "internalType": "uint256",
          "name": "",
          "type": "uint256"
        }
      ],
      "stateMutability": "view",
      "type": "function"
    },
    {
      "inputs": [
        {
          "internalType": "string",
          "name": "_title",
          "type": "string"
        },
        {
          "internalType": "string",
          "name": "_subTitle",
          "type": "string"
        },
        {
          "internalType": "string",
          "name": "_content",
          "type": "string"
        },
        {
          "internalType": "uint256",
          "name": "_goalAmount",
          "type": "uint256"
        },
        {
          "internalType": "uint256",
          "name": "_availableMinAmount",
          "type": "uint256"
        },
        {
          "internalType": "uint256",
          "name": "_beginTime",
          "type": "uint256"
        },
        {
          "internalType": "uint256",
          "name": "_endTime",
          "type": "uint256"
        }
      ],
      "name": "createFunding",
      "outputs": [
        {
          "internalType": "uint256",
          "name": "",
          "type": "uint256"
        }
      ],
      "stateMutability": "nonpayable",
      "type": "function"
    },
    {
      "inputs": [
        {
          "internalType": "uint256",
          "name": "",
          "type": "uint256"
        }
      ],
      "name": "fundingToFundraiser",
      "outputs": [
        {
          "internalType": "address",
          "name": "",
          "type": "address"
        }
      ],
      "stateMutability": "view",
      "type": "function"
    },
    {
      "inputs": [
        {
          "internalType": "uint256",
          "name": "",
          "type": "uint256"
        }
      ],
      "name": "fundings",
      "outputs": [
        {
          "internalType": "string",
          "name": "title",
          "type": "string"
        },
        {
          "internalType": "string",
          "name": "subTitle",
          "type": "string"
        },
        {
          "internalType": "string",
          "name": "content",
          "type": "string"
        },
        {
          "internalType": "uint256",
          "name": "currentAmount",
          "type": "uint256"
        },
        {
          "internalType": "uint256",
          "name": "availableMinAmount",
          "type": "uint256"
        },
        {
          "internalType": "uint256",
          "name": "goalAmount",
          "type": "uint256"
        },
        {
          "internalType": "uint256",
          "name": "beginTime",
          "type": "uint256"
        },
        {
          "internalType": "uint256",
          "name": "endTime",
          "type": "uint256"
        },
        {
          "internalType": "address",
          "name": "fundraiser",
          "type": "address"
        }
      ],
      "stateMutability": "view",
      "type": "function"
    },
    {
      "inputs": [],
      "name": "getMyFundingList",
      "outputs": [
        {
          "components": [
            {
              "internalType": "string",
              "name": "title",
              "type": "string"
            },
            {
              "internalType": "string",
              "name": "subTitle",
              "type": "string"
            },
            {
              "internalType": "string",
              "name": "content",
              "type": "string"
            },
            {
              "internalType": "uint256",
              "name": "currentAmount",
              "type": "uint256"
            },
            {
              "internalType": "uint256",
              "name": "availableMinAmount",
              "type": "uint256"
            },
            {
              "internalType": "uint256",
              "name": "goalAmount",
              "type": "uint256"
            },
            {
              "internalType": "uint256",
              "name": "beginTime",
              "type": "uint256"
            },
            {
              "internalType": "uint256",
              "name": "endTime",
              "type": "uint256"
            },
            {
              "internalType": "address",
              "name": "fundraiser",
              "type": "address"
            }
          ],
          "internalType": "struct FundingFactory.Funding[]",
          "name": "",
          "type": "tuple[]"
        }
      ],
      "stateMutability": "view",
      "type": "function"
    },
    {
      "inputs": [],
      "name": "getFundings",
      "outputs": [
        {
          "components": [
            {
              "internalType": "string",
              "name": "title",
              "type": "string"
            },
            {
              "internalType": "string",
              "name": "subTitle",
              "type": "string"
            },
            {
              "internalType": "string",
              "name": "content",
              "type": "string"
            },
            {
              "internalType": "uint256",
              "name": "currentAmount",
              "type": "uint256"
            },
            {
              "internalType": "uint256",
              "name": "availableMinAmount",
              "type": "uint256"
            },
            {
              "internalType": "uint256",
              "name": "goalAmount",
              "type": "uint256"
            },
            {
              "internalType": "uint256",
              "name": "beginTime",
              "type": "uint256"
            },
            {
              "internalType": "uint256",
              "name": "endTime",
              "type": "uint256"
            },
            {
              "internalType": "address",
              "name": "fundraiser",
              "type": "address"
            }
          ],
          "internalType": "struct FundingFactory.Funding[]",
          "name": "",
          "type": "tuple[]"
        }
      ],
      "stateMutability": "view",
      "type": "function"
    }
  ],
  "bytecode": "0x6080604052600160005534801561001557600080fd5b50611879806100256000396000f3fe608060405234801561001057600080fd5b50600436106100625760003560e01c80634696a8d7146100675780635ad868f614610085578063b9e1b880146100b5578063c18d0cf2146100e5578063c385e90214610103578063d13cb1fb14610133575b600080fd5b61006f61016b565b60405161007c91906110e5565b60405180910390f35b61009f600480360381019061009a9190611173565b610409565b6040516100ac91906111c2565b60405180910390f35b6100cf60048036038101906100ca9190611312565b61043a565b6040516100dc91906111c2565b60405180910390f35b6100ed610740565b6040516100fa91906110e5565b60405180910390f35b61011d60048036038101906101189190611408565b610af9565b60405161012a9190611444565b60405180910390f35b61014d60048036038101906101489190611408565b610b2c565b604051610162999897969594939291906114a9565b60405180910390f35b60606001805480602002602001604051908101604052809291908181526020016000905b828210156104005783829060005260206000209060090201604051806101200160405290816000820180546101c39061157a565b80601f01602080910402602001604051908101604052809291908181526020018280546101ef9061157a565b801561023c5780601f106102115761010080835404028352916020019161023c565b820191906000526020600020905b81548152906001019060200180831161021f57829003601f168201915b505050505081526020016001820180546102559061157a565b80601f01602080910402602001604051908101604052809291908181526020018280546102819061157a565b80156102ce5780601f106102a3576101008083540402835291602001916102ce565b820191906000526020600020905b8154815290600101906020018083116102b157829003601f168201915b505050505081526020016002820180546102e79061157a565b80601f01602080910402602001604051908101604052809291908181526020018280546103139061157a565b80156103605780601f1061033557610100808354040283529160200191610360565b820191906000526020600020905b81548152906001019060200180831161034357829003601f168201915b5050505050815260200160038201548152602001600482015481526020016005820154815260200160068201548152602001600782015481526020016008820160009054906101000a900473ffffffffffffffffffffffffffffffffffffffff1673ffffffffffffffffffffffffffffffffffffffff1673ffffffffffffffffffffffffffffffffffffffff16815250508152602001906001019061018f565b50505050905090565b6003602052816000526040600020818154811061042557600080fd5b90600052602060002001600091509150505481565b600060016040518061012001604052808a8152602001898152602001888152602001600081526020016000548761047191906115db565b81526020018781526020018581526020018481526020013373ffffffffffffffffffffffffffffffffffffffff16815250908060018154018082558091505060019003906000526020600020906009020160009091909190915060008201518160000190805190602001906104e7929190610d58565b506020820151816001019080519060200190610504929190610d58565b506040820151816002019080519060200190610521929190610d58565b50606082015181600301556080820151816004015560a0820151816005015560c0820151816006015560e082015181600701556101008201518160080160006101000a81548173ffffffffffffffffffffffffffffffffffffffff021916908373ffffffffffffffffffffffffffffffffffffffff16021790555050508242106105e0576040517f08c379a00000000000000000000000000000000000000000000000000000000081526004016105d7906116a7565b60405180910390fd5b818310610622576040517f08c379a000000000000000000000000000000000000000000000000000000000815260040161061990611739565b60405180910390fd5b600061063c60018080549050610d4290919063ffffffff16565b9050336002600083815260200190815260200160002060006101000a81548173ffffffffffffffffffffffffffffffffffffffff021916908373ffffffffffffffffffffffffffffffffffffffff160217905550600360003373ffffffffffffffffffffffffffffffffffffffff1673ffffffffffffffffffffffffffffffffffffffff1681526020019081526020016000208190806001815401808255809150506001900390600052602060002001600090919091909150557f067c1b8999473c496ecef075b41bfd7fb76764f4329db144e64c9a31e9f93cec818a3360405161072993929190611759565b60405180910390a180915050979650505050505050565b60606000600360003373ffffffffffffffffffffffffffffffffffffffff1673ffffffffffffffffffffffffffffffffffffffff1681526020019081526020016000208054806020026020016040519081016040528092919081815260200182805480156107cd57602002820191906000526020600020905b8154815260200190600101908083116107b9575b505050505090506000815167ffffffffffffffff8111156107f1576107f06111e7565b5b60405190808252806020026020018201604052801561082a57816020015b610817610dde565b81526020019060019003908161080f5790505b50905060005b8251811015610af057600183828151811061084e5761084d611797565b5b60200260200101518154811061086757610866611797565b5b9060005260206000209060090201604051806101200160405290816000820180546108919061157a565b80601f01602080910402602001604051908101604052809291908181526020018280546108bd9061157a565b801561090a5780601f106108df5761010080835404028352916020019161090a565b820191906000526020600020905b8154815290600101906020018083116108ed57829003601f168201915b505050505081526020016001820180546109239061157a565b80601f016020809104026020016040519081016040528092919081815260200182805461094f9061157a565b801561099c5780601f106109715761010080835404028352916020019161099c565b820191906000526020600020905b81548152906001019060200180831161097f57829003601f168201915b505050505081526020016002820180546109b59061157a565b80601f01602080910402602001604051908101604052809291908181526020018280546109e19061157a565b8015610a2e5780601f10610a0357610100808354040283529160200191610a2e565b820191906000526020600020905b815481529060010190602001808311610a1157829003601f168201915b5050505050815260200160038201548152602001600482015481526020016005820154815260200160068201548152602001600782015481526020016008820160009054906101000a900473ffffffffffffffffffffffffffffffffffffffff1673ffffffffffffffffffffffffffffffffffffffff1673ffffffffffffffffffffffffffffffffffffffff1681525050828281518110610ad257610ad1611797565b5b60200260200101819052508080610ae8906117c6565b915050610830565b50809250505090565b60026020528060005260406000206000915054906101000a900473ffffffffffffffffffffffffffffffffffffffff1681565b60018181548110610b3c57600080fd5b9060005260206000209060090201600091509050806000018054610b5f9061157a565b80601f0160208091040260200160405190810160405280929190818152602001828054610b8b9061157a565b8015610bd85780601f10610bad57610100808354040283529160200191610bd8565b820191906000526020600020905b815481529060010190602001808311610bbb57829003601f168201915b505050505090806001018054610bed9061157a565b80601f0160208091040260200160405190810160405280929190818152602001828054610c199061157a565b8015610c665780601f10610c3b57610100808354040283529160200191610c66565b820191906000526020600020905b815481529060010190602001808311610c4957829003601f168201915b505050505090806002018054610c7b9061157a565b80601f0160208091040260200160405190810160405280929190818152602001828054610ca79061157a565b8015610cf45780601f10610cc957610100808354040283529160200191610cf4565b820191906000526020600020905b815481529060010190602001808311610cd757829003601f168201915b5050505050908060030154908060040154908060050154908060060154908060070154908060080160009054906101000a900473ffffffffffffffffffffffffffffffffffffffff16905089565b60008183610d50919061180f565b905092915050565b828054610d649061157a565b90600052602060002090601f016020900481019282610d865760008555610dcd565b82601f10610d9f57805160ff1916838001178555610dcd565b82800160010185558215610dcd579182015b82811115610dcc578251825591602001919060010190610db1565b5b509050610dda9190610e40565b5090565b6040518061012001604052806060815260200160608152602001606081526020016000815260200160008152602001600081526020016000815260200160008152602001600073ffffffffffffffffffffffffffffffffffffffff1681525090565b5b80821115610e59576000816000905550600101610e41565b5090565b600081519050919050565b600082825260208201905092915050565b6000819050602082019050919050565b600081519050919050565b600082825260208201905092915050565b60005b83811015610ec3578082015181840152602081019050610ea8565b83811115610ed2576000848401525b50505050565b6000601f19601f8301169050919050565b6000610ef482610e89565b610efe8185610e94565b9350610f0e818560208601610ea5565b610f1781610ed8565b840191505092915050565b6000819050919050565b610f3581610f22565b82525050565b600073ffffffffffffffffffffffffffffffffffffffff82169050919050565b6000610f6682610f3b565b9050919050565b610f7681610f5b565b82525050565b6000610120830160008301518482036000860152610f9a8282610ee9565b91505060208301518482036020860152610fb48282610ee9565b91505060408301518482036040860152610fce8282610ee9565b9150506060830151610fe36060860182610f2c565b506080830151610ff66080860182610f2c565b5060a083015161100960a0860182610f2c565b5060c083015161101c60c0860182610f2c565b5060e083015161102f60e0860182610f2c565b50610100830151611044610100860182610f6d565b508091505092915050565b600061105b8383610f7c565b905092915050565b6000602082019050919050565b600061107b82610e5d565b6110858185610e68565b93508360208202850161109785610e79565b8060005b858110156110d357848403895281516110b4858261104f565b94506110bf83611063565b925060208a0199505060018101905061109b565b50829750879550505050505092915050565b600060208201905081810360008301526110ff8184611070565b905092915050565b6000604051905090565b600080fd5b600080fd5b61112481610f5b565b811461112f57600080fd5b50565b6000813590506111418161111b565b92915050565b61115081610f22565b811461115b57600080fd5b50565b60008135905061116d81611147565b92915050565b6000806040838503121561118a57611189611111565b5b600061119885828601611132565b92505060206111a98582860161115e565b9150509250929050565b6111bc81610f22565b82525050565b60006020820190506111d760008301846111b3565b92915050565b600080fd5b600080fd5b7f4e487b7100000000000000000000000000000000000000000000000000000000600052604160045260246000fd5b61121f82610ed8565b810181811067ffffffffffffffff8211171561123e5761123d6111e7565b5b80604052505050565b6000611251611107565b905061125d8282611216565b919050565b600067ffffffffffffffff82111561127d5761127c6111e7565b5b61128682610ed8565b9050602081019050919050565b82818337600083830152505050565b60006112b56112b084611262565b611247565b9050828152602081018484840111156112d1576112d06111e2565b5b6112dc848285611293565b509392505050565b600082601f8301126112f9576112f86111dd565b5b81356113098482602086016112a2565b91505092915050565b600080600080600080600060e0888a03121561133157611330611111565b5b600088013567ffffffffffffffff81111561134f5761134e611116565b5b61135b8a828b016112e4565b975050602088013567ffffffffffffffff81111561137c5761137b611116565b5b6113888a828b016112e4565b965050604088013567ffffffffffffffff8111156113a9576113a8611116565b5b6113b58a828b016112e4565b95505060606113c68a828b0161115e565b94505060806113d78a828b0161115e565b93505060a06113e88a828b0161115e565b92505060c06113f98a828b0161115e565b91505092959891949750929550565b60006020828403121561141e5761141d611111565b5b600061142c8482850161115e565b91505092915050565b61143e81610f5b565b82525050565b60006020820190506114596000830184611435565b92915050565b600082825260208201905092915050565b600061147b82610e89565b611485818561145f565b9350611495818560208601610ea5565b61149e81610ed8565b840191505092915050565b60006101208201905081810360008301526114c4818c611470565b905081810360208301526114d8818b611470565b905081810360408301526114ec818a611470565b90506114fb60608301896111b3565b61150860808301886111b3565b61151560a08301876111b3565b61152260c08301866111b3565b61152f60e08301856111b3565b61153d610100830184611435565b9a9950505050505050505050565b7f4e487b7100000000000000000000000000000000000000000000000000000000600052602260045260246000fd5b6000600282049050600182168061159257607f821691505b602082108114156115a6576115a561154b565b5b50919050565b7f4e487b7100000000000000000000000000000000000000000000000000000000600052601160045260246000fd5b60006115e682610f22565b91506115f183610f22565b9250817fffffffffffffffffffffffffffffffffffffffffffffffffffffffffffffffff048311821515161561162a576116296115ac565b5b828202905092915050565b7f54686520626567696e54696d65206d75737420626520616674657220626c6f6360008201527f6b2074696d657374616d702e0000000000000000000000000000000000000000602082015250565b6000611691602c8361145f565b915061169c82611635565b604082019050919050565b600060208201905081810360008301526116c081611684565b9050919050565b7f54686520626567696e54696d65206d757374206265206265666f72652074686560008201527f20656e6454696d652e0000000000000000000000000000000000000000000000602082015250565b600061172360298361145f565b915061172e826116c7565b604082019050919050565b6000602082019050818103600083015261175281611716565b9050919050565b600060608201905061176e60008301866111b3565b81810360208301526117808185611470565b905061178f6040830184611435565b949350505050565b7f4e487b7100000000000000000000000000000000000000000000000000000000600052603260045260246000fd5b60006117d182610f22565b91507fffffffffffffffffffffffffffffffffffffffffffffffffffffffffffffffff821415611804576118036115ac565b5b600182019050919050565b600061181a82610f22565b915061182583610f22565b925082821015611838576118376115ac565b5b82820390509291505056fea2646970667358221220725738bdff301a0d1575056e68a068560aea5d52706a8f4dfb3fd38222d925dc64736f6c634300080b0033",
  "immutableReferences": {},
  "source": "// SPDX-License-Identifier: MIT\npragma solidity 0.8.11;\nimport \"@openzeppelin/contracts/utils/math/SafeMath.sol\";\nimport \"./FundingFactory.sol\";\nimport \"./FundingCoinManager.sol\";\n\ncontract FundingHandler is FundingFactory, FundingCoinManager {\n    using SafeMath for uint256;\n\n    modifier beginFunding(uint _fundingId) {\n        require(block.timestamp <= fundings[_fundingId].beginTime);\n        _;\n    }\n\n    modifier endFunding(uint _fundingId) {\n        require(fundings[_fundingId].endTime < block.timestamp);\n        _;\n    }\n\n    modifier availableFund(uint _fundingId) {\n        uint time = block.timestamp;\n        require(fundings[_fundingId].beginTime < time,\"The funding not open yet.\");\n        require(time < fundings[_fundingId].endTime,\"The funding closed.\");\n        require(fundings[_fundingId].availableMinAmount * coinUnit <= msg.value, \"You need to use more amount. Check the funding minimun amount.\");\n        _;\n    }\n\n    modifier ownerOfFunding(uint _fundingId) {\n        require(msg.sender == fundings[_fundingId].fundraiser);\n        _;\n    }\n\n    modifier fundingNotEndOrFailed(uint _fundingId) {\n        uint time = block.timestamp;\n        bool notEndFunding = (fundings[_fundingId].beginTime < time && time < fundings[_fundingId].endTime);\n        bool failedFunding =  (fundings[_fundingId].endTime < time) && (fundings[_fundingId].goalAmount < fundings[_fundingId].currentAmount);\n        require(notEndFunding || failedFunding,\"The funding time has passed or has not been successful.\");\n        _;\n    }\n\n    modifier fundingSucceeded(uint _fundingId) {\n        require(fundings[_fundingId].fundraiser == msg.sender);\n        require(fundings[_fundingId].goalAmount <= fundings[_fundingId].currentAmount);\n        require(fundings[_fundingId].endTime <= block.timestamp);\n        _;\n    }\n\n    function getMyFundingList() external view returns(Funding [] memory) {\n        uint[] memory fundingIds = addressToFundingIds[msg.sender];\n        Funding[] memory myFundings = new Funding[](fundingIds.length);\n        for(uint i=0; i < fundingIds.length; i++) {\n            myFundings[i] = fundings[fundingIds[i]];\n        }\n        return myFundings;\n    }\n\n    function getFundings() external view returns(Funding [] memory) {\n        return fundings;\n    }\n}\n",
  "sourcePath": "/home/user/Develope/crowd-funding/contracts/FundingHandler.sol",
  "compiler": {
    "name": "solc",
    "version": "0.8.11+commit.d7f03943.Emscripten.clang"
  },
  "schemaVersion": "3.4.5",
  "updatedAt": "2022-02-28T10:59:38.156Z",
  "devdoc": {
    "kind": "dev",
    "methods": {},
    "version": 1
  },
  "userdoc": {
    "kind": "user",
    "methods": {},
    "version": 1
  }
}