{
  "contractName": "FundraiserHandler",
  "abi": [
    {
      "anonymous": false,
      "inputs": [
        {
          "indexed": false,
          "internalType": "uint256",
          "name": "id",
          "type": "uint256"
        },
        {
          "indexed": false,
          "internalType": "string",
          "name": "title",
          "type": "string"
        },
        {
          "indexed": false,
          "internalType": "address",
          "name": "owner",
          "type": "address"
        }
      ],
      "name": "CreateFunding",
      "type": "event"
    },
    {
      "inputs": [
        {
          "internalType": "address",
          "name": "",
          "type": "address"
        },
        {
          "internalType": "uint256",
          "name": "",
          "type": "uint256"
        }
      ],
      "name": "addressToFundingIds",
      "outputs": [
        {
          "internalType": "uint256",
          "name": "",
          "type": "uint256"
        }
      ],
      "stateMutability": "view",
      "type": "function"
    },
    {
      "inputs": [
        {
          "internalType": "string",
          "name": "_title",
          "type": "string"
        },
        {
          "internalType": "string",
          "name": "_subTitle",
          "type": "string"
        },
        {
          "internalType": "string",
          "name": "_content",
          "type": "string"
        },
        {
          "internalType": "uint256",
          "name": "_goalAmount",
          "type": "uint256"
        },
        {
          "internalType": "uint256",
          "name": "_availableMinAmount",
          "type": "uint256"
        },
        {
          "internalType": "uint256",
          "name": "_beginTime",
          "type": "uint256"
        },
        {
          "internalType": "uint256",
          "name": "_endTime",
          "type": "uint256"
        }
      ],
      "name": "createFunding",
      "outputs": [
        {
          "internalType": "uint256",
          "name": "",
          "type": "uint256"
        }
      ],
      "stateMutability": "nonpayable",
      "type": "function"
    },
    {
      "inputs": [
        {
          "internalType": "uint256",
          "name": "",
          "type": "uint256"
        }
      ],
      "name": "fundingToFundraiser",
      "outputs": [
        {
          "internalType": "address",
          "name": "",
          "type": "address"
        }
      ],
      "stateMutability": "view",
      "type": "function"
    },
    {
      "inputs": [
        {
          "internalType": "uint256",
          "name": "",
          "type": "uint256"
        }
      ],
      "name": "fundings",
      "outputs": [
        {
          "internalType": "string",
          "name": "title",
          "type": "string"
        },
        {
          "internalType": "string",
          "name": "subTitle",
          "type": "string"
        },
        {
          "internalType": "string",
          "name": "content",
          "type": "string"
        },
        {
          "internalType": "uint256",
          "name": "currentAmount",
          "type": "uint256"
        },
        {
          "internalType": "uint256",
          "name": "availableMinAmount",
          "type": "uint256"
        },
        {
          "internalType": "uint256",
          "name": "goalAmount",
          "type": "uint256"
        },
        {
          "internalType": "uint256",
          "name": "beginTime",
          "type": "uint256"
        },
        {
          "internalType": "uint256",
          "name": "endTime",
          "type": "uint256"
        },
        {
          "internalType": "address",
          "name": "fundraiser",
          "type": "address"
        }
      ],
      "stateMutability": "view",
      "type": "function"
    },
    {
      "inputs": [],
      "name": "getFundings",
      "outputs": [
        {
          "components": [
            {
              "internalType": "string",
              "name": "title",
              "type": "string"
            },
            {
              "internalType": "string",
              "name": "subTitle",
              "type": "string"
            },
            {
              "internalType": "string",
              "name": "content",
              "type": "string"
            },
            {
              "internalType": "uint256",
              "name": "currentAmount",
              "type": "uint256"
            },
            {
              "internalType": "uint256",
              "name": "availableMinAmount",
              "type": "uint256"
            },
            {
              "internalType": "uint256",
              "name": "goalAmount",
              "type": "uint256"
            },
            {
              "internalType": "uint256",
              "name": "beginTime",
              "type": "uint256"
            },
            {
              "internalType": "uint256",
              "name": "endTime",
              "type": "uint256"
            },
            {
              "internalType": "address",
              "name": "fundraiser",
              "type": "address"
            }
          ],
          "internalType": "struct FundingFactory.Funding[]",
          "name": "",
          "type": "tuple[]"
        }
      ],
      "stateMutability": "view",
      "type": "function"
    },
    {
      "inputs": [],
      "name": "getMyFundingList",
      "outputs": [
        {
          "components": [
            {
              "internalType": "string",
              "name": "title",
              "type": "string"
            },
            {
              "internalType": "string",
              "name": "subTitle",
              "type": "string"
            },
            {
              "internalType": "string",
              "name": "content",
              "type": "string"
            },
            {
              "internalType": "uint256",
              "name": "currentAmount",
              "type": "uint256"
            },
            {
              "internalType": "uint256",
              "name": "availableMinAmount",
              "type": "uint256"
            },
            {
              "internalType": "uint256",
              "name": "goalAmount",
              "type": "uint256"
            },
            {
              "internalType": "uint256",
              "name": "beginTime",
              "type": "uint256"
            },
            {
              "internalType": "uint256",
              "name": "endTime",
              "type": "uint256"
            },
            {
              "internalType": "address",
              "name": "fundraiser",
              "type": "address"
            }
          ],
          "internalType": "struct FundingFactory.Funding[]",
          "name": "",
          "type": "tuple[]"
        }
      ],
      "stateMutability": "view",
      "type": "function"
    },
    {
      "inputs": [
        {
          "internalType": "uint256",
          "name": "_fundingId",
          "type": "uint256"
        },
        {
          "internalType": "uint256",
          "name": "_availableMinAmount",
          "type": "uint256"
        }
      ],
      "name": "setAvailableMinAmount",
      "outputs": [],
      "stateMutability": "nonpayable",
      "type": "function"
    },
    {
      "inputs": [
        {
          "internalType": "address payable",
          "name": "_address",
          "type": "address"
        },
        {
          "internalType": "uint256",
          "name": "_fundingId",
          "type": "uint256"
        }
      ],
      "name": "withdrawAsFundraiser",
      "outputs": [],
      "stateMutability": "nonpayable",
      "type": "function"
    }
  ],
  "bytecode": "0x6080604052600160005534801561001557600080fd5b50611d56806100256000396000f3fe608060405234801561001057600080fd5b50600436106100885760003560e01c8063b9e1b8801161005b578063b9e1b88014610113578063c18d0cf214610143578063c385e90214610161578063d13cb1fb1461019157610088565b80633ba7cb611461008d5780634696a8d7146100a95780635ad868f6146100c757806379f76021146100f7575b600080fd5b6100a760048036038101906100a29190611214565b6101c9565b005b6100b1610276565b6040516100be91906114d2565b60405180910390f35b6100e160048036038101906100dc9190611520565b610514565b6040516100ee919061156f565b60405180910390f35b610111600480360381019061010c91906115c8565b610545565b005b61012d6004803603810190610128919061173d565b6106b7565b60405161013a919061156f565b60405180910390f35b61014b6109bd565b60405161015891906114d2565b60405180910390f35b61017b60048036038101906101769190611833565b610d76565b604051610188919061186f565b60405180910390f35b6101ab60048036038101906101a69190611833565b610da9565b6040516101c0999897969594939291906118d4565b60405180910390f35b81600181815481106101de576101dd611976565b5b906000526020600020906009020160080160009054906101000a900473ffffffffffffffffffffffffffffffffffffffff1673ffffffffffffffffffffffffffffffffffffffff163373ffffffffffffffffffffffffffffffffffffffff161461024757600080fd5b816001848154811061025c5761025b611976565b5b906000526020600020906009020160040181905550505050565b60606001805480602002602001604051908101604052809291908181526020016000905b8282101561050b5783829060005260206000209060090201604051806101200160405290816000820180546102ce906119d4565b80601f01602080910402602001604051908101604052809291908181526020018280546102fa906119d4565b80156103475780601f1061031c57610100808354040283529160200191610347565b820191906000526020600020905b81548152906001019060200180831161032a57829003601f168201915b50505050508152602001600182018054610360906119d4565b80601f016020809104026020016040519081016040528092919081815260200182805461038c906119d4565b80156103d95780601f106103ae576101008083540402835291602001916103d9565b820191906000526020600020905b8154815290600101906020018083116103bc57829003601f168201915b505050505081526020016002820180546103f2906119d4565b80601f016020809104026020016040519081016040528092919081815260200182805461041e906119d4565b801561046b5780601f106104405761010080835404028352916020019161046b565b820191906000526020600020905b81548152906001019060200180831161044e57829003601f168201915b5050505050815260200160038201548152602001600482015481526020016005820154815260200160068201548152602001600782015481526020016008820160009054906101000a900473ffffffffffffffffffffffffffffffffffffffff1673ffffffffffffffffffffffffffffffffffffffff1673ffffffffffffffffffffffffffffffffffffffff16815250508152602001906001019061029a565b50505050905090565b6003602052816000526040600020818154811061053057600080fd5b90600052602060002001600091509150505481565b803373ffffffffffffffffffffffffffffffffffffffff166001828154811061057157610570611976565b5b906000526020600020906009020160080160009054906101000a900473ffffffffffffffffffffffffffffffffffffffff1673ffffffffffffffffffffffffffffffffffffffff16146105c357600080fd5b600181815481106105d7576105d6611976565b5b906000526020600020906009020160030154600182815481106105fd576105fc611976565b5b906000526020600020906009020160050154111561061a57600080fd5b426001828154811061062f5761062e611976565b5b906000526020600020906009020160070154111561064c57600080fd5b600061067d846001858154811061066657610665611976565b5b906000526020600020906009020160030154610fbf565b905080156106b15760006001848154811061069b5761069a611976565b5b9060005260206000209060090201600301819055505b50505050565b600060016040518061012001604052808a815260200189815260200188815260200160008152602001600054876106ee9190611a35565b81526020018781526020018581526020018481526020013373ffffffffffffffffffffffffffffffffffffffff16815250908060018154018082558091505060019003906000526020600020906009020160009091909190915060008201518160000190805190602001906107649291906110c5565b5060208201518160010190805190602001906107819291906110c5565b50604082015181600201908051906020019061079e9291906110c5565b50606082015181600301556080820151816004015560a0820151816005015560c0820151816006015560e082015181600701556101008201518160080160006101000a81548173ffffffffffffffffffffffffffffffffffffffff021916908373ffffffffffffffffffffffffffffffffffffffff160217905550505082421061085d576040517f08c379a000000000000000000000000000000000000000000000000000000000815260040161085490611b01565b60405180910390fd5b81831061089f576040517f08c379a000000000000000000000000000000000000000000000000000000000815260040161089690611b93565b60405180910390fd5b60006108b9600180805490506110af90919063ffffffff16565b9050336002600083815260200190815260200160002060006101000a81548173ffffffffffffffffffffffffffffffffffffffff021916908373ffffffffffffffffffffffffffffffffffffffff160217905550600360003373ffffffffffffffffffffffffffffffffffffffff1673ffffffffffffffffffffffffffffffffffffffff1681526020019081526020016000208190806001815401808255809150506001900390600052602060002001600090919091909150557f067c1b8999473c496ecef075b41bfd7fb76764f4329db144e64c9a31e9f93cec818a336040516109a693929190611bb3565b60405180910390a180915050979650505050505050565b60606000600360003373ffffffffffffffffffffffffffffffffffffffff1673ffffffffffffffffffffffffffffffffffffffff168152602001908152602001600020805480602002602001604051908101604052809291908181526020018280548015610a4a57602002820191906000526020600020905b815481526020019060010190808311610a36575b505050505090506000815167ffffffffffffffff811115610a6e57610a6d611612565b5b604051908082528060200260200182016040528015610aa757816020015b610a9461114b565b815260200190600190039081610a8c5790505b50905060005b8251811015610d6d576001838281518110610acb57610aca611976565b5b602002602001015181548110610ae457610ae3611976565b5b906000526020600020906009020160405180610120016040529081600082018054610b0e906119d4565b80601f0160208091040260200160405190810160405280929190818152602001828054610b3a906119d4565b8015610b875780601f10610b5c57610100808354040283529160200191610b87565b820191906000526020600020905b815481529060010190602001808311610b6a57829003601f168201915b50505050508152602001600182018054610ba0906119d4565b80601f0160208091040260200160405190810160405280929190818152602001828054610bcc906119d4565b8015610c195780601f10610bee57610100808354040283529160200191610c19565b820191906000526020600020905b815481529060010190602001808311610bfc57829003601f168201915b50505050508152602001600282018054610c32906119d4565b80601f0160208091040260200160405190810160405280929190818152602001828054610c5e906119d4565b8015610cab5780601f10610c8057610100808354040283529160200191610cab565b820191906000526020600020905b815481529060010190602001808311610c8e57829003601f168201915b5050505050815260200160038201548152602001600482015481526020016005820154815260200160068201548152602001600782015481526020016008820160009054906101000a900473ffffffffffffffffffffffffffffffffffffffff1673ffffffffffffffffffffffffffffffffffffffff1673ffffffffffffffffffffffffffffffffffffffff1681525050828281518110610d4f57610d4e611976565b5b60200260200101819052508080610d6590611bf1565b915050610aad565b50809250505090565b60026020528060005260406000206000915054906101000a900473ffffffffffffffffffffffffffffffffffffffff1681565b60018181548110610db957600080fd5b9060005260206000209060090201600091509050806000018054610ddc906119d4565b80601f0160208091040260200160405190810160405280929190818152602001828054610e08906119d4565b8015610e555780601f10610e2a57610100808354040283529160200191610e55565b820191906000526020600020905b815481529060010190602001808311610e3857829003601f168201915b505050505090806001018054610e6a906119d4565b80601f0160208091040260200160405190810160405280929190818152602001828054610e96906119d4565b8015610ee35780601f10610eb857610100808354040283529160200191610ee3565b820191906000526020600020905b815481529060010190602001808311610ec657829003601f168201915b505050505090806002018054610ef8906119d4565b80601f0160208091040260200160405190810160405280929190818152602001828054610f24906119d4565b8015610f715780601f10610f4657610100808354040283529160200191610f71565b820191906000526020600020905b815481529060010190602001808311610f5457829003601f168201915b5050505050908060030154908060040154908060050154908060060154908060070154908060080160009054906101000a900473ffffffffffffffffffffffffffffffffffffffff16905089565b60003373ffffffffffffffffffffffffffffffffffffffff168373ffffffffffffffffffffffffffffffffffffffff1614610ff957600080fd5b60008373ffffffffffffffffffffffffffffffffffffffff168360405161101f90611c6b565b60006040518083038185875af1925050503d806000811461105c576040519150601f19603f3d011682016040523d82523d6000602084013e611061565b606091505b50509050806110a5576040517f08c379a000000000000000000000000000000000000000000000000000000000815260040161109c90611ccc565b60405180910390fd5b8091505092915050565b600081836110bd9190611cec565b905092915050565b8280546110d1906119d4565b90600052602060002090601f0160209004810192826110f3576000855561113a565b82601f1061110c57805160ff191683800117855561113a565b8280016001018555821561113a579182015b8281111561113957825182559160200191906001019061111e565b5b50905061114791906111ad565b5090565b6040518061012001604052806060815260200160608152602001606081526020016000815260200160008152602001600081526020016000815260200160008152602001600073ffffffffffffffffffffffffffffffffffffffff1681525090565b5b808211156111c65760008160009055506001016111ae565b5090565b6000604051905090565b600080fd5b600080fd5b6000819050919050565b6111f1816111de565b81146111fc57600080fd5b50565b60008135905061120e816111e8565b92915050565b6000806040838503121561122b5761122a6111d4565b5b6000611239858286016111ff565b925050602061124a858286016111ff565b9150509250929050565b600081519050919050565b600082825260208201905092915050565b6000819050602082019050919050565b600081519050919050565b600082825260208201905092915050565b60005b838110156112ba57808201518184015260208101905061129f565b838111156112c9576000848401525b50505050565b6000601f19601f8301169050919050565b60006112eb82611280565b6112f5818561128b565b935061130581856020860161129c565b61130e816112cf565b840191505092915050565b611322816111de565b82525050565b600073ffffffffffffffffffffffffffffffffffffffff82169050919050565b600061135382611328565b9050919050565b61136381611348565b82525050565b600061012083016000830151848203600086015261138782826112e0565b915050602083015184820360208601526113a182826112e0565b915050604083015184820360408601526113bb82826112e0565b91505060608301516113d06060860182611319565b5060808301516113e36080860182611319565b5060a08301516113f660a0860182611319565b5060c083015161140960c0860182611319565b5060e083015161141c60e0860182611319565b5061010083015161143161010086018261135a565b508091505092915050565b60006114488383611369565b905092915050565b6000602082019050919050565b600061146882611254565b611472818561125f565b93508360208202850161148485611270565b8060005b858110156114c057848403895281516114a1858261143c565b94506114ac83611450565b925060208a01995050600181019050611488565b50829750879550505050505092915050565b600060208201905081810360008301526114ec818461145d565b905092915050565b6114fd81611348565b811461150857600080fd5b50565b60008135905061151a816114f4565b92915050565b60008060408385031215611537576115366111d4565b5b60006115458582860161150b565b9250506020611556858286016111ff565b9150509250929050565b611569816111de565b82525050565b60006020820190506115846000830184611560565b92915050565b600061159582611328565b9050919050565b6115a58161158a565b81146115b057600080fd5b50565b6000813590506115c28161159c565b92915050565b600080604083850312156115df576115de6111d4565b5b60006115ed858286016115b3565b92505060206115fe858286016111ff565b9150509250929050565b600080fd5b600080fd5b7f4e487b7100000000000000000000000000000000000000000000000000000000600052604160045260246000fd5b61164a826112cf565b810181811067ffffffffffffffff8211171561166957611668611612565b5b80604052505050565b600061167c6111ca565b90506116888282611641565b919050565b600067ffffffffffffffff8211156116a8576116a7611612565b5b6116b1826112cf565b9050602081019050919050565b82818337600083830152505050565b60006116e06116db8461168d565b611672565b9050828152602081018484840111156116fc576116fb61160d565b5b6117078482856116be565b509392505050565b600082601f83011261172457611723611608565b5b81356117348482602086016116cd565b91505092915050565b600080600080600080600060e0888a03121561175c5761175b6111d4565b5b600088013567ffffffffffffffff81111561177a576117796111d9565b5b6117868a828b0161170f565b975050602088013567ffffffffffffffff8111156117a7576117a66111d9565b5b6117b38a828b0161170f565b965050604088013567ffffffffffffffff8111156117d4576117d36111d9565b5b6117e08a828b0161170f565b95505060606117f18a828b016111ff565b94505060806118028a828b016111ff565b93505060a06118138a828b016111ff565b92505060c06118248a828b016111ff565b91505092959891949750929550565b600060208284031215611849576118486111d4565b5b6000611857848285016111ff565b91505092915050565b61186981611348565b82525050565b60006020820190506118846000830184611860565b92915050565b600082825260208201905092915050565b60006118a682611280565b6118b0818561188a565b93506118c081856020860161129c565b6118c9816112cf565b840191505092915050565b60006101208201905081810360008301526118ef818c61189b565b90508181036020830152611903818b61189b565b90508181036040830152611917818a61189b565b90506119266060830189611560565b6119336080830188611560565b61194060a0830187611560565b61194d60c0830186611560565b61195a60e0830185611560565b611968610100830184611860565b9a9950505050505050505050565b7f4e487b7100000000000000000000000000000000000000000000000000000000600052603260045260246000fd5b7f4e487b7100000000000000000000000000000000000000000000000000000000600052602260045260246000fd5b600060028204905060018216806119ec57607f821691505b60208210811415611a00576119ff6119a5565b5b50919050565b7f4e487b7100000000000000000000000000000000000000000000000000000000600052601160045260246000fd5b6000611a40826111de565b9150611a4b836111de565b9250817fffffffffffffffffffffffffffffffffffffffffffffffffffffffffffffffff0483118215151615611a8457611a83611a06565b5b828202905092915050565b7f54686520626567696e54696d65206d75737420626520616674657220626c6f6360008201527f6b2074696d657374616d702e0000000000000000000000000000000000000000602082015250565b6000611aeb602c8361188a565b9150611af682611a8f565b604082019050919050565b60006020820190508181036000830152611b1a81611ade565b9050919050565b7f54686520626567696e54696d65206d757374206265206265666f72652074686560008201527f20656e6454696d652e0000000000000000000000000000000000000000000000602082015250565b6000611b7d60298361188a565b9150611b8882611b21565b604082019050919050565b60006020820190508181036000830152611bac81611b70565b9050919050565b6000606082019050611bc86000830186611560565b8181036020830152611bda818561189b565b9050611be96040830184611860565b949350505050565b6000611bfc826111de565b91507fffffffffffffffffffffffffffffffffffffffffffffffffffffffffffffffff821415611c2f57611c2e611a06565b5b600182019050919050565b600081905092915050565b50565b6000611c55600083611c3a565b9150611c6082611c45565b600082019050919050565b6000611c7682611c48565b9150819050919050565b7f4661696c656420746f2073656e64204574686572000000000000000000000000600082015250565b6000611cb660148361188a565b9150611cc182611c80565b602082019050919050565b60006020820190508181036000830152611ce581611ca9565b9050919050565b6000611cf7826111de565b9150611d02836111de565b925082821015611d1557611d14611a06565b5b82820390509291505056fea26469706673582212207e49d1af35015c6722709840cbfa7da5f18a4d6e3c95e3d8df7d2b393b837c7364736f6c634300080b0033",
  "immutableReferences": {},
  "source": "// SPDX-License-Identifier: MIT\npragma solidity 0.8.11;\nimport \"@openzeppelin/contracts/utils/math/SafeMath.sol\";\nimport \"./FundingHandler.sol\";\n\ncontract FundraiserHandler is FundingHandler {\n    using SafeMath for uint256;\n\n    function setAvailableMinAmount(uint _fundingId, uint _availableMinAmount) external ownerOfFunding(_fundingId) {\n        fundings[_fundingId].availableMinAmount = _availableMinAmount;\n    }\n\n    function withdrawAsFundraiser(address payable _address, uint _fundingId) external fundingSucceeded(_fundingId) {\n        bool success = _transfer(_address, fundings[_fundingId].currentAmount);\n        if(success) fundings[_fundingId].currentAmount = 0;\n    }\n}\n",
  "sourcePath": "/home/user/Develope/crowd-funding/contracts/FundraiserHandler.sol",
  "compiler": {
    "name": "solc",
    "version": "0.8.11+commit.d7f03943.Emscripten.clang"
  },
  "schemaVersion": "3.4.5",
  "updatedAt": "2022-02-28T10:59:38.164Z",
  "devdoc": {
    "kind": "dev",
    "methods": {},
    "version": 1
  },
  "userdoc": {
    "kind": "user",
    "methods": {},
    "version": 1
  }
}